{"abi":[{"type":"constructor","inputs":[{"name":"_initialOwner","type":"address","internalType":"address"}],"stateMutability":"nonpayable"},{"type":"function","name":"deactivateWorker","inputs":[{"name":"wallet","type":"address","internalType":"address"}],"outputs":[],"stateMutability":"nonpayable"},{"type":"function","name":"getBuildingWallet","inputs":[{"name":"buildingId","type":"string","internalType":"string"}],"outputs":[{"name":"","type":"address","internalType":"address"}],"stateMutability":"view"},{"type":"function","name":"getWorkerWallet","inputs":[{"name":"tokenId","type":"uint256","internalType":"uint256"}],"outputs":[{"name":"","type":"address","internalType":"address"}],"stateMutability":"view"},{"type":"function","name":"isBuildingRegistered","inputs":[{"name":"buildingId","type":"string","internalType":"string"}],"outputs":[{"name":"","type":"bool","internalType":"bool"}],"stateMutability":"view"},{"type":"function","name":"isWorkerActive","inputs":[{"name":"wallet","type":"address","internalType":"address"}],"outputs":[{"name":"","type":"bool","internalType":"bool"}],"stateMutability":"view"},{"type":"function","name":"owner","inputs":[],"outputs":[{"name":"","type":"address","internalType":"address"}],"stateMutability":"view"},{"type":"function","name":"registerBuilding","inputs":[{"name":"buildingId","type":"string","internalType":"string"},{"name":"wallet","type":"address","internalType":"address"}],"outputs":[],"stateMutability":"nonpayable"},{"type":"function","name":"registerWorker","inputs":[{"name":"wallet","type":"address","internalType":"address"},{"name":"metadata","type":"string","internalType":"string"}],"outputs":[],"stateMutability":"nonpayable"},{"type":"function","name":"renounceOwnership","inputs":[],"outputs":[],"stateMutability":"nonpayable"},{"type":"function","name":"transferOwnership","inputs":[{"name":"newOwner","type":"address","internalType":"address"}],"outputs":[],"stateMutability":"nonpayable"},{"type":"function","name":"updateBuildingWallet","inputs":[{"name":"buildingId","type":"string","internalType":"string"},{"name":"newWallet","type":"address","internalType":"address"}],"outputs":[],"stateMutability":"nonpayable"},{"type":"function","name":"workerNFT","inputs":[],"outputs":[{"name":"","type":"address","internalType":"contract ArxWorkerID"}],"stateMutability":"view"},{"type":"event","name":"BuildingRegistered","inputs":[{"name":"buildingId","type":"string","indexed":true,"internalType":"string"},{"name":"wallet","type":"address","indexed":true,"internalType":"address"}],"anonymous":false},{"type":"event","name":"BuildingWalletUpdated","inputs":[{"name":"buildingId","type":"string","indexed":true,"internalType":"string"},{"name":"oldWallet","type":"address","indexed":true,"internalType":"address"},{"name":"newWallet","type":"address","indexed":true,"internalType":"address"}],"anonymous":false},{"type":"event","name":"OwnershipTransferred","inputs":[{"name":"previousOwner","type":"address","indexed":true,"internalType":"address"},{"name":"newOwner","type":"address","indexed":true,"internalType":"address"}],"anonymous":false},{"type":"event","name":"WorkerDeactivated","inputs":[{"name":"wallet","type":"address","indexed":true,"internalType":"address"},{"name":"tokenId","type":"uint256","indexed":true,"internalType":"uint256"}],"anonymous":false},{"type":"event","name":"WorkerRegistered","inputs":[{"name":"wallet","type":"address","indexed":true,"internalType":"address"},{"name":"tokenId","type":"uint256","indexed":true,"internalType":"uint256"},{"name":"metadata","type":"string","indexed":false,"internalType":"string"}],"anonymous":false},{"type":"error","name":"OwnableInvalidOwner","inputs":[{"name":"owner","type":"address","internalType":"address"}]},{"type":"error","name":"OwnableUnauthorizedAccount","inputs":[{"name":"account","type":"address","internalType":"address"}]},{"type":"error","name":"ReentrancyGuardReentrantCall","inputs":[]}],"bytecode":{"object":"0x60a03461014c576001600160401b0390601f61286e38819003918201601f1916830191848311848410176101205780849260209460405283398101031261014c57516001600160a01b0391908281169081900361014c578015610134575f80546001600160a01b03198116831782556040519416907f8be0079c531659141344cd1fd0a4f28419497f9722a3daafe3b4186f6b6457e09080a360017f9b779b17422d0df92223018b32b4d1fa46e071723d6817e2486d003becc55f005561183e8281019182118383101761012057602091839161103083393081520301905ff0801561011557608052604051610edf9081610151823960805181818161045f01528181610537015281816108c50152610ba30152f35b6040513d5f823e3d90fd5b634e487b7160e01b5f52604160045260245ffd5b604051631e4fbdf760e01b81525f6004820152602490fd5b5f80fdfe60806040818152600480361015610014575f80fd5b5f925f3560e01c90816308e16bcc14610b46575080632329765b14610af15780636045da48146107e75780636ca008b314610700578063715018a6146106825780638da5cb5b1461064f57806395597c3c14610483578063a17a76b914610432578063acddd7ea14610242578063c5689dbf146101f5578063ca0e4a7b1461016b5763f2fde38b146100a4575f80fd5b34610167576020600319360112610167576100bd610c4b565b906100c6610e59565b73ffffffffffffffffffffffffffffffffffffffff8092169283156101385750505f54827fffffffffffffffffffffffff00000000000000000000000000000000000000008216175f55167f8be0079c531659141344cd1fd0a4f28419497f9722a3daafe3b4186f6b6457e05f80a380f35b908460249251917f1e4fbdf7000000000000000000000000000000000000000000000000000000008352820152fd5b8280fd5b5091346101f25760206003193601126101f25782359067ffffffffffffffff82116101f2575060206101b6819473ffffffffffffffffffffffffffffffffffffffff93369101610c1d565b91906101d760ff865185848237848187810160028152030190205416610dcf565b82855193849283378101600181520301902054169051908152f35b80fd5b50503461023e57602060031936011261023e5760ff8160209373ffffffffffffffffffffffffffffffffffffffff61022b610c4b565b1681526003855220541690519015158152f35b5080fd5b5090346101675773ffffffffffffffffffffffffffffffffffffffff61026736610c6e565b6102749492939194610e59565b1693610281851515610d2c565b83156103d65760ff82518585823760208187810160028152030190205416610354575080839151828482376020818481016001815203019020857fffffffffffffffffffffffff0000000000000000000000000000000000000000825416179055805182848237602081848101600281520301902060017fffffffffffffffffffffffffffffffffffffffffffffffffffffffffffffff0082541617905551928392833781015f81520390207f0620a1c3decd4cab5958577b84e23e9bc9f81207d2d2ef7c795f4545da6a9d218380a380f35b602060849251917f08c379a0000000000000000000000000000000000000000000000000000000008352820152602860248201527f41727852656769737472793a206275696c64696e6720616c726561647920726560448201527f67697374657265640000000000000000000000000000000000000000000000006064820152fd5b602060649251917f08c379a0000000000000000000000000000000000000000000000000000000008352820152601e60248201527f41727852656769737472793a20656d707479206275696c64696e6720494400006044820152fd5b50503461023e578160031936011261023e576020905173ffffffffffffffffffffffffffffffffffffffff7f0000000000000000000000000000000000000000000000000000000000000000168152f35b50346101675760208060031936011261064b5761049e610c4b565b906104a7610e59565b73ffffffffffffffffffffffffffffffffffffffff809216928386526003825260ff8587205416156105ca578360248392828952600384528789207fffffffffffffffffffffffffffffffffffffffffffffffffffffffffffffff008154169055875195869384927ff15376860000000000000000000000000000000000000000000000000000000084528301527f0000000000000000000000000000000000000000000000000000000000000000165afa9384156105c157508493610591575b50507f52f103b7600137d8fc13fa0fe992bbf0fe18bbc6fe6e66424a8e0efc34b2c2f48380a380f35b9080929350813d83116105ba575b6105a98183610cbe565b810103126101675751905f80610568565b503d61059f565b513d86823e3d90fd5b6084918551917f08c379a0000000000000000000000000000000000000000000000000000000008352820152602260248201527f41727852656769737472793a20776f726b6572206e6f7420726567697374657260448201527f65640000000000000000000000000000000000000000000000000000000000006064820152fd5b8380fd5b50503461023e578160031936011261023e5773ffffffffffffffffffffffffffffffffffffffff60209254169051908152f35b83346101f257806003193601126101f25761069b610e59565b5f73ffffffffffffffffffffffffffffffffffffffff81547fffffffffffffffffffffffff000000000000000000000000000000000000000081168355167f8be0079c531659141344cd1fd0a4f28419497f9722a3daafe3b4186f6b6457e08280a380f35b50503461023e5761071036610c6e565b929161071a610e59565b8173ffffffffffffffffffffffffffffffffffffffff8095169461073f861515610d2c565b61075f60ff86518486823760208186810160028152030190205416610dcf565b84518284823760208184810160018152030190205416938051828482376020818481016001815203019020867fffffffffffffffffffffffff000000000000000000000000000000000000000082541617905551928392833781015f81520390207fdab82fc8790af971e693ac9f430d117330c774a6d2ea2d29e29847320daab1d58480a480f35b50829034610a165782600319360112610a1657610802610c4b565b67ffffffffffffffff91602435838111610a16576108239036908301610c1d565b909561082d610e59565b7f9b779b17422d0df92223018b32b4d1fa46e071723d6817e2486d003becc55f00946002865414610ac9576002865573ffffffffffffffffffffffffffffffffffffffff80951693610880851515610d2c565b845f52600360205260ff835f205416610a46578054957fffffffffffffffffffffffffffffffffffffffffffffffffffffffffffffffff8714610a1a576001870182557f00000000000000000000000000000000000000000000000000000000000000001691823b15610a16575f8a61093d9489838a8951988995869485937fd3fc98640000000000000000000000000000000000000000000000000000000085528b8501526024840152606060448401528c6064840191610d91565b03925af18015610a0c576109c5575b505050957ff897548086f6ac7c95c8db9bcf434a9fe71cebb258844338f535d78a8b7c9b84916109be879885600199526003602052808a20897fffffffffffffffffffffffffffffffffffffffffffffffffffffffffffffff0082541617905551928392602084526020840191610d91565b0390a35580f35b909180939850116109e0575085525f94816109be600161094c565b6041907f4e487b71000000000000000000000000000000000000000000000000000000005f525260245ffd5b84513d5f823e3d90fd5b5f80fd5b6011827f4e487b71000000000000000000000000000000000000000000000000000000005f525260245ffd5b60849060208451917f08c379a0000000000000000000000000000000000000000000000000000000008352820152602660248201527f41727852656769737472793a20776f726b657220616c7265616479207265676960448201527f73746572656400000000000000000000000000000000000000000000000000006064820152fd5b8382517f3ee5aeb5000000000000000000000000000000000000000000000000000000008152fd5b509034610a16576020600319360112610a1657813567ffffffffffffffff8111610a16576020610b27819460ff93369101610c1d565b9190828551938492833781016002815203019020541690519015158152f35b91905034610a165760209283600319360112610a165773ffffffffffffffffffffffffffffffffffffffff917f6352211e0000000000000000000000000000000000000000000000000000000084528035908401528383602481857f0000000000000000000000000000000000000000000000000000000000000000165afa928315610c13575f93610bdb575b505191168152f35b9092508381813d8311610c0c575b610bf38183610cbe565b81010312610a1657518181168103610a16579184610bd3565b503d610be9565b50513d5f823e3d90fd5b9181601f84011215610a165782359167ffffffffffffffff8311610a165760208381860195010111610a1657565b6004359073ffffffffffffffffffffffffffffffffffffffff82168203610a1657565b6040600319820112610a16576004359067ffffffffffffffff8211610a1657610c9991600401610c1d565b909160243573ffffffffffffffffffffffffffffffffffffffff81168103610a165790565b90601f7fffffffffffffffffffffffffffffffffffffffffffffffffffffffffffffffe0910116810190811067ffffffffffffffff821117610cff57604052565b7f4e487b71000000000000000000000000000000000000000000000000000000005f52604160045260245ffd5b15610d3357565b60646040517f08c379a000000000000000000000000000000000000000000000000000000000815260206004820152601960248201527f41727852656769737472793a207a65726f2061646472657373000000000000006044820152fd5b601f82602094937fffffffffffffffffffffffffffffffffffffffffffffffffffffffffffffffe093818652868601375f8582860101520116010190565b15610dd657565b60846040517f08c379a0000000000000000000000000000000000000000000000000000000008152602060048201526024808201527f41727852656769737472793a206275696c64696e67206e6f742072656769737460448201527f65726564000000000000000000000000000000000000000000000000000000006064820152fd5b73ffffffffffffffffffffffffffffffffffffffff5f54163303610e7957565b60246040517f118cdaa7000000000000000000000000000000000000000000000000000000008152336004820152fdfea264697066735822122020177f38c313b98c58215129fc1ea15ca278db4efd9b8cd8f2f3c95d6635b05d64736f6c6343000818003360a0346200032c57601f1990601f906001600160401b036200183e3881900384810186168401838111858210176200024e578492829160405283396020938491810103126200032c5751926001600160a01b03841684036200032c576200006562000330565b92600f84526e105c9e13d4c815dbdc9ad95c881251608a1b818501526200008b62000330565b95600987526820a92c2ba7a925a2a960b91b8288015284518481116200024e575f546001968782811c9216801562000321575b858310146200022f578186849311620002ce575b5084908683116001146200026e575f9262000262575b50505f19600383901b1c191690861b175f555b86519384116200024e5784548581811c9116801562000243575b838210146200022f57838111620001e7575b508192841160011462000184575050819293945f9262000178575b50505f19600383901b1c191690821b1790555b6080526040516114ed90816200035182396080518181816101e101526109e00152f35b015190505f8062000142565b5f858152828120918516979193925b888210620001cf5750508385969710620001b6575b505050811b01905562000155565b01515f1960f88460031b161c191690555f8080620001a8565b80878596829496860151815501950193019062000193565b855f52825f208480870160051c82019285881062000225575b0160051c019086905b8281106200021957505062000127565b5f815501869062000209565b9250819262000200565b634e487b7160e01b5f52602260045260245ffd5b90607f169062000115565b634e487b7160e01b5f52604160045260245ffd5b015190505f80620000e8565b9084899416915f8052865f20925f5b88828210620002b757505084116200029e575b505050811b015f55620000fb565b01515f1960f88460031b161c191690555f808062000290565b8385015186558c979095019493840193016200027d565b9091505f8052845f208680850160051c82019287861062000317575b918a91869594930160051c01915b82811062000308575050620000d2565b5f81558594508a9101620002f8565b92508192620002ea565b91607f1691620000be565b5f80fd5b60408051919082016001600160401b038111838210176200024e5760405256fe6080604090808252600480361015610015575f80fd5b5f3560e01c91826301ffc9a714610d5a5750816306fdde0314610cad578163081812fc14610c67578163095ea7b314610b3557816323b872dd14610b1e57816342842e0e14610ab95781636352211e14610a7e57816370a0823114610a045781637b103999146109b457816395d89b41146108c2578163a22cb465146107e3578163b88d4fde1461075d578163c87b56dd14610659578163d3fc98641461017357508063e985e9c5146101175763f1537686146100d0575f80fd5b346101135760206003193601126101135760209073ffffffffffffffffffffffffffffffffffffffff610101610e66565b165f5260088252805f20549051908152f35b5f80fd5b5034610113578060031936011261011357602090610133610e66565b61013b610e89565b9073ffffffffffffffffffffffffffffffffffffffff8091165f5260058452825f2091165f52825260ff815f20541690519015158152f35b82346101135760606003193601126101135761018d610e66565b60248035926044359267ffffffffffffffff928385116101135736602386011215610113578487013593841161011357368185870101116101135773ffffffffffffffffffffffffffffffffffffffff91827f00000000000000000000000000000000000000000000000000000000000000001633036105fd5782169485156105a157865f526020926002845280855f205416610536575b875f5260028452845f20541697881515806104ca575b875f52600385528888875f209b60019c8d8154019055825f5260028852885f20827fffffffffffffffffffffffff00000000000000000000000000000000000000008254161790557fddf252ad1be2c89b69c2b068fc378daa952ba7f163c4a11628f55a4df523b3ef5f80a461049c5750865f5260068352835f20887fffffffffffffffffffffffffffffffffffffffffffffffffffffffffffffff0082541617905560078352835f20976102f08954610f5a565b601f8111610456575b505f601f87116001146103a95783601f937f77618eca4f86caec086408921de3b6c44d2fcec4fd43297e63a9fa73ec944030999a9b89808096601f199982975f9461039c575b50501b907fffffffffffffffffffffffffffffffffffffffffffffffffffffffffffffffff8660031b1c19161790555b8a5f52600887528b885f2055875198878a98895288015201868601375f85828601015201168101030190a3005b860101359250855f61033f565b601f198716908a5f52855f20915f5b81811061043f5750937f77618eca4f86caec086408921de3b6c44d2fcec4fd43297e63a9fa73ec944030999a9b89948594601f19989486601f9910610405575b505084811b01905561036f565b857fffffffffffffffffffffffffffffffffffffffffffffffffffffffffffffffff60f88960031b161c1991860101351690558e806103f8565b8583018701358455928401929187019187016103b8565b895f52845f20601f880160051c810191868910610492575b601f0160051c019082905b8281106104875750506102f9565b5f8155018290610479565b909150819061046e565b90505f8451917f73c6ac6e000000000000000000000000000000000000000000000000000000008352820152fd5b610501895f52600460205260405f207fffffffffffffffffffffffff00000000000000000000000000000000000000008154169055565b895f5260038552855f207fffffffffffffffffffffffffffffffffffffffffffffffffffffffffffffffff815401905561023b565b6006845260ff855f2054161561022557606489601c85878951937f08c379a00000000000000000000000000000000000000000000000000000000085528401528201527f417278576f726b657249443a20736f756c626f756e6420746f6b656e000000006044820152fd5b60648860198460208851937f08c379a00000000000000000000000000000000000000000000000000000000085528401528201527f417278576f726b657249443a207a65726f2061646472657373000000000000006044820152fd5b606488601a8460208851937f08c379a00000000000000000000000000000000000000000000000000000000085528401528201527f417278576f726b657249443a206f6e6c792072656769737472790000000000006044820152fd5b9050346101135760209081600319360112610113573561067881611458565b505f5260078152815f2091805180935f90805461069481610f5a565b91828552600191876001821691825f146107185750506001146106d8575b5050506106d492916106c5910385610eee565b51928284938452830190610e28565b0390f35b8693505f92919252825f20915f925b82841061070057505050820101816106c56106d46106b2565b8054848a0186015288955087949093019281016106e7565b7fffffffffffffffffffffffffffffffffffffffffffffffffffffffffffffff00168782015293151560051b860190930193508492506106c591506106d490506106b2565b823461011357608060031936011261011357610777610e66565b61077f610e89565b6064359367ffffffffffffffff85116101135736602386011215610113578401356107b56107ac82610f3e565b94519485610eee565b8084523660248287010111610113576020815f9260246107e19801838801378501015260443591611289565b005b82346101135780600319360112610113576107fc610e66565b90602435918215158093036101135773ffffffffffffffffffffffffffffffffffffffff169283156108945750335f526005602052805f20835f52602052805f207fffffffffffffffffffffffffffffffffffffffffffffffffffffffffffffff0081541660ff8416179055519081527f17307eab39ab6107e8899845ad3d59bd9653f200f220920489ca2b5937696c3160203392a3005b8360249251917f5b08ba18000000000000000000000000000000000000000000000000000000008352820152fd5b8234610113575f600319360112610113578051905f9082600192600154936108e985610f5a565b90818452602095866001821691825f14610974575050600114610919575b50506106d492916106c5910385610eee565b9085925060015f527fb10e2d527612073b26eecdfd717e6a320cf44b4afac2b0732d9fcbe2b7fa0cf6915f925b82841061095c57505050820101816106c5610907565b8054848a018601528895508794909301928101610946565b7fffffffffffffffffffffffffffffffffffffffffffffffffffffffffffffff00168682015292151560051b850190920192508391506106c59050610907565b8234610113575f600319360112610113576020905173ffffffffffffffffffffffffffffffffffffffff7f0000000000000000000000000000000000000000000000000000000000000000168152f35b82346101135760206003193601126101135773ffffffffffffffffffffffffffffffffffffffff610a33610e66565b168015610a4f57602092505f5260038252805f20549051908152f35b6024835f8451917f89c62b64000000000000000000000000000000000000000000000000000000008352820152fd5b82346101135760206003193601126101135773ffffffffffffffffffffffffffffffffffffffff610ab160209335611458565b915191168152f35b823461011357610ac836610eac565b91835193602085019085821067ffffffffffffffff831117610af2576107e19650525f8452611289565b6041877f4e487b71000000000000000000000000000000000000000000000000000000005f525260245ffd5b34610113576107e1610b2f36610eac565b91610fab565b8234610113578060031936011261011357610b4e610e66565b91602435610b5b81611458565b33151580610c47575b80610c12575b610be357819073ffffffffffffffffffffffffffffffffffffffff809616958691167f8c5be1e5ebec7d5bd14f71427d1e84f3dd0314c0f7b2291e5b200ac8c7c3b9255f80a45f526020525f20907fffffffffffffffffffffffff00000000000000000000000000000000000000008254161790555f80f35b83517fa9fbf51f0000000000000000000000000000000000000000000000000000000081523381850152602490fd5b5073ffffffffffffffffffffffffffffffffffffffff81165f526005602052835f20335f5260205260ff845f20541615610b6a565b503373ffffffffffffffffffffffffffffffffffffffff82161415610b64565b8234610113576020600319360112610113578160209235610c8781611458565b505f52825273ffffffffffffffffffffffffffffffffffffffff815f2054169051908152f35b8234610113575f600319360112610113578051905f90825f5492610cd084610f5a565b808352602094600190866001821691825f14610974575050600114610d015750506106d492916106c5910385610eee565b5f80805286935091907f290decd9548b62a8d60345a988386fc84ba6bc95484008f6362f93160ef3e5635b828410610d4257505050820101816106c5610907565b8054848a018601528895508794909301928101610d2c565b90346101135760206003193601126101135735907fffffffff00000000000000000000000000000000000000000000000000000000821680920361011357817f80ac58cd0000000000000000000000000000000000000000000000000000000060209314908115610dfe575b8115610dd4575b5015158152f35b7f01ffc9a70000000000000000000000000000000000000000000000000000000091501483610dcd565b7f5b5e139f0000000000000000000000000000000000000000000000000000000081149150610dc6565b91908251928382525f5b848110610e52575050601f19601f845f6020809697860101520116010190565b602081830181015184830182015201610e32565b6004359073ffffffffffffffffffffffffffffffffffffffff8216820361011357565b6024359073ffffffffffffffffffffffffffffffffffffffff8216820361011357565b60031960609101126101135773ffffffffffffffffffffffffffffffffffffffff90600435828116810361011357916024359081168103610113579060443590565b90601f601f19910116810190811067ffffffffffffffff821117610f1157604052565b7f4e487b71000000000000000000000000000000000000000000000000000000005f52604160045260245ffd5b67ffffffffffffffff8111610f1157601f01601f191660200190565b90600182811c92168015610fa1575b6020831014610f7457565b7f4e487b71000000000000000000000000000000000000000000000000000000005f52602260045260245ffd5b91607f1691610f69565b909173ffffffffffffffffffffffffffffffffffffffff80931692831561125957815f52602092600284528260409583875f2054166111e4575b815f526002865283875f2054169533151580611120575b50600290876110b4575b825f5260038152885f2060018154019055835f5252865f20817fffffffffffffffffffffffff0000000000000000000000000000000000000000825416179055857fddf252ad1be2c89b69c2b068fc378daa952ba7f163c4a11628f55a4df523b3ef5f80a4169283830361107a5750505050565b6064945051927f64283d7b000000000000000000000000000000000000000000000000000000008452600484015260248301526044820152fd5b6110eb845f52600460205260405f207fffffffffffffffffffffffff00000000000000000000000000000000000000008154169055565b875f5260038152885f207fffffffffffffffffffffffffffffffffffffffffffffffffffffffffffffffff8154019055611006565b91925090806111a3575b15611138579084915f610ffc565b86858761116e5760249151907f7e2732890000000000000000000000000000000000000000000000000000000082526004820152fd5b60449151907f177e802f0000000000000000000000000000000000000000000000000000000082523360048301526024820152fd5b5033861480156111c8575b8061112a5750845f52600481523384885f2054161461112a565b50855f5260058152865f20335f52815260ff875f2054166111ae565b90506006855260ff865f2054166111fc578390610fe5565b6064858751907f08c379a00000000000000000000000000000000000000000000000000000000082526004820152601c60248201527f417278576f726b657249443a20736f756c626f756e6420746f6b656e000000006044820152fd5b60246040517f64a0ae920000000000000000000000000000000000000000000000000000000081525f6004820152fd5b9192611296848385610fab565b813b6112a3575b50505050565b9061131594929173ffffffffffffffffffffffffffffffffffffffff80921694604051927f150b7a020000000000000000000000000000000000000000000000000000000094858552336004860152166024840152604483015260806064830152818060209788936084830190610e28565b03815f885af15f9181611400575b5061139a575050503d5f14611392573d9161133d83610f3e565b9261134b6040519485610eee565b83523d5f8285013e5b8251928361138d57602483604051907f64a0ae920000000000000000000000000000000000000000000000000000000082526004820152fd5b019050fd5b606091611354565b7fffffffff000000000000000000000000000000000000000000000000000000009192945016036113cf57505f80808061129d565b602490604051907f64a0ae920000000000000000000000000000000000000000000000000000000082526004820152fd5b9091508581813d8311611451575b6114188183610eee565b8101031261011357517fffffffff000000000000000000000000000000000000000000000000000000008116810361011357905f611323565b503d61140e565b805f52600260205273ffffffffffffffffffffffffffffffffffffffff60405f205416908115611486575090565b602490604051907f7e2732890000000000000000000000000000000000000000000000000000000082526004820152fdfea2646970667358221220f04ce24b9a23c74bb36305ed54ccfdb141dcdc2b4a97cd3f977d820087a0022164736f6c63430008180033","linkReferences":{}},"methodIdentifiers":{"deactivateWorker(address)":"95597c3c","getBuildingWallet(string)":"ca0e4a7b","getWorkerWallet(uint256)":"08e16bcc","isBuildingRegistered(string)":"2329765b","isWorkerActive(address)":"c5689dbf","owner()":"8da5cb5b","registerBuilding(string,address)":"acddd7ea","registerWorker(address,string)":"6045da48","renounceOwnership()":"715018a6","transferOwnership(address)":"f2fde38b","updateBuildingWallet(string,address)":"6ca008b3","workerNFT()":"a17a76b9"},"id":50}