{"abi":[{"type":"constructor","inputs":[{"name":"_initialOwner","type":"address","internalType":"address"}],"stateMutability":"nonpayable"},{"type":"function","name":"deactivateWorker","inputs":[{"name":"wallet","type":"address","internalType":"address"}],"outputs":[],"stateMutability":"nonpayable"},{"type":"function","name":"getBuildingWallet","inputs":[{"name":"buildingId","type":"string","internalType":"string"}],"outputs":[{"name":"","type":"address","internalType":"address"}],"stateMutability":"view"},{"type":"function","name":"getWorkerWallet","inputs":[{"name":"tokenId","type":"uint256","internalType":"uint256"}],"outputs":[{"name":"","type":"address","internalType":"address"}],"stateMutability":"view"},{"type":"function","name":"isBuildingRegistered","inputs":[{"name":"buildingId","type":"string","internalType":"string"}],"outputs":[{"name":"","type":"bool","internalType":"bool"}],"stateMutability":"view"},{"type":"function","name":"isWorkerActive","inputs":[{"name":"wallet","type":"address","internalType":"address"}],"outputs":[{"name":"","type":"bool","internalType":"bool"}],"stateMutability":"view"},{"type":"function","name":"owner","inputs":[],"outputs":[{"name":"","type":"address","internalType":"address"}],"stateMutability":"view"},{"type":"function","name":"registerBuilding","inputs":[{"name":"buildingId","type":"string","internalType":"string"},{"name":"wallet","type":"address","internalType":"address"}],"outputs":[],"stateMutability":"nonpayable"},{"type":"function","name":"registerWorker","inputs":[{"name":"wallet","type":"address","internalType":"address"},{"name":"metadata","type":"string","internalType":"string"}],"outputs":[],"stateMutability":"nonpayable"},{"type":"function","name":"renounceOwnership","inputs":[],"outputs":[],"stateMutability":"nonpayable"},{"type":"function","name":"transferOwnership","inputs":[{"name":"newOwner","type":"address","internalType":"address"}],"outputs":[],"stateMutability":"nonpayable"},{"type":"function","name":"updateBuildingWallet","inputs":[{"name":"buildingId","type":"string","internalType":"string"},{"name":"newWallet","type":"address","internalType":"address"}],"outputs":[],"stateMutability":"nonpayable"},{"type":"function","name":"workerNFT","inputs":[],"outputs":[{"name":"","type":"address","internalType":"contract ArxWorkerID"}],"stateMutability":"view"},{"type":"event","name":"BuildingRegistered","inputs":[{"name":"buildingId","type":"string","indexed":true,"internalType":"string"},{"name":"wallet","type":"address","indexed":true,"internalType":"address"}],"anonymous":false},{"type":"event","name":"BuildingWalletUpdated","inputs":[{"name":"buildingId","type":"string","indexed":true,"internalType":"string"},{"name":"oldWallet","type":"address","indexed":true,"internalType":"address"},{"name":"newWallet","type":"address","indexed":true,"internalType":"address"}],"anonymous":false},{"type":"event","name":"OwnershipTransferred","inputs":[{"name":"previousOwner","type":"address","indexed":true,"internalType":"address"},{"name":"newOwner","type":"address","indexed":true,"internalType":"address"}],"anonymous":false},{"type":"event","name":"WorkerDeactivated","inputs":[{"name":"wallet","type":"address","indexed":true,"internalType":"address"},{"name":"tokenId","type":"uint256","indexed":true,"internalType":"uint256"}],"anonymous":false},{"type":"event","name":"WorkerRegistered","inputs":[{"name":"wallet","type":"address","indexed":true,"internalType":"address"},{"name":"tokenId","type":"uint256","indexed":true,"internalType":"uint256"},{"name":"metadata","type":"string","indexed":false,"internalType":"string"}],"anonymous":false},{"type":"error","name":"OwnableInvalidOwner","inputs":[{"name":"owner","type":"address","internalType":"address"}]},{"type":"error","name":"OwnableUnauthorizedAccount","inputs":[{"name":"account","type":"address","internalType":"address"}]},{"type":"error","name":"ReentrancyGuardReentrantCall","inputs":[]}],"bytecode":{"object":"0x60a060405234801561000f575f80fd5b5060405161231b38038061231b83398101604081905261002e91610130565b806001600160a01b03811661005c57604051631e4fbdf760e01b81525f600482015260240160405180910390fd5b610065816100d4565b5060017f9b779b17422d0df92223018b32b4d1fa46e071723d6817e2486d003becc55f0055604051309061009890610123565b6001600160a01b039091168152602001604051809103905ff0801580156100c1573d5f803e3d5ffd5b506001600160a01b03166080525061015d565b5f80546001600160a01b038381166001600160a01b0319831681178455604051919092169283917f8be0079c531659141344cd1fd0a4f28419497f9722a3daafe3b4186f6b6457e09190a35050565b61142980610ef283390190565b5f60208284031215610140575f80fd5b81516001600160a01b0381168114610156575f80fd5b9392505050565b608051610d6861018a5f395f8181610160015281816101fe0152818161038701526106630152610d685ff3fe608060405234801561000f575f80fd5b50600436106100b1575f3560e01c806395597c3c1161006e57806395597c3c14610148578063a17a76b91461015b578063acddd7ea14610182578063c5689dbf14610195578063ca0e4a7b146101c0578063f2fde38b146101d3575f80fd5b806308e16bcc146100b55780632329765b146100e55780636045da48146101085780636ca008b31461011d578063715018a6146101305780638da5cb5b14610138575b5f80fd5b6100c86100c3366004610a69565b6101e6565b6040516001600160a01b0390911681526020015b60405180910390f35b6100f86100f3366004610ac5565b610275565b60405190151581526020016100dc565b61011b610116366004610b18565b6102a3565b005b61011b61012b366004610b69565b61047c565b61011b61059f565b5f546001600160a01b03166100c8565b61011b610156366004610bbc565b6105b2565b6100c87f000000000000000000000000000000000000000000000000000000000000000081565b61011b610190366004610b69565b610709565b6100f86101a3366004610bbc565b6001600160a01b03165f9081526003602052604090205460ff1690565b6100c86101ce366004610ac5565b6108cc565b61011b6101e1366004610bbc565b610941565b6040516331a9108f60e11b8152600481018290525f907f00000000000000000000000000000000000000000000000000000000000000006001600160a01b031690636352211e90602401602060405180830381865afa15801561024b573d5f803e3d5ffd5b505050506040513d601f19601f8201168201806040525081019061026f9190610bde565b92915050565b5f60028383604051610288929190610bf9565b9081526040519081900360200190205460ff16905092915050565b6102ab61097e565b6102b36109aa565b6001600160a01b0383166102e25760405162461bcd60e51b81526004016102d990610c08565b60405180910390fd5b6001600160a01b0383165f9081526003602052604090205460ff16156103595760405162461bcd60e51b815260206004820152602660248201527f41727852656769737472793a20776f726b657220616c726561647920726567696044820152651cdd195c995960d21b60648201526084016102d9565b600480545f918261036983610c3f565b909155506040516334ff261960e21b81529091506001600160a01b037f0000000000000000000000000000000000000000000000000000000000000000169063d3fc9864906103c2908790859088908890600401610c8b565b5f604051808303815f87803b1580156103d9575f80fd5b505af11580156103eb573d5f803e3d5ffd5b5050506001600160a01b0385165f8181526003602052604090819020805460ff19166001179055518392507ff897548086f6ac7c95c8db9bcf434a9fe71cebb258844338f535d78a8b7c9b84906104459087908790610cbc565b60405180910390a35061047760017f9b779b17422d0df92223018b32b4d1fa46e071723d6817e2486d003becc55f0055565b505050565b61048461097e565b6001600160a01b0381166104aa5760405162461bcd60e51b81526004016102d990610c08565b600283836040516104bc929190610bf9565b9081526040519081900360200190205460ff166104eb5760405162461bcd60e51b81526004016102d990610cd7565b5f600184846040516104fe929190610bf9565b908152604051908190036020018120546001600160a01b03169150829060019061052b9087908790610bf9565b90815260405190819003602001812080546001600160a01b039384166001600160a01b03199091161790558382169183169061056a9087908790610bf9565b604051908190038120907fdab82fc8790af971e693ac9f430d117330c774a6d2ea2d29e29847320daab1d5905f90a450505050565b6105a761097e565b6105b05f6109d8565b565b6105ba61097e565b6001600160a01b0381165f9081526003602052604090205460ff1661062c5760405162461bcd60e51b815260206004820152602260248201527f41727852656769737472793a20776f726b6572206e6f74207265676973746572604482015261195960f21b60648201526084016102d9565b6001600160a01b038181165f81815260036020526040808220805460ff19169055516378a9bb4360e11b81526004810192909252917f0000000000000000000000000000000000000000000000000000000000000000169063f153768690602401602060405180830381865afa1580156106a8573d5f803e3d5ffd5b505050506040513d601f19601f820116820180604052508101906106cc9190610d1b565b905080826001600160a01b03167f52f103b7600137d8fc13fa0fe992bbf0fe18bbc6fe6e66424a8e0efc34b2c2f460405160405180910390a35050565b61071161097e565b6001600160a01b0381166107375760405162461bcd60e51b81526004016102d990610c08565b816107845760405162461bcd60e51b815260206004820152601e60248201527f41727852656769737472793a20656d707479206275696c64696e67204944000060448201526064016102d9565b60028383604051610796929190610bf9565b9081526040519081900360200190205460ff16156108075760405162461bcd60e51b815260206004820152602860248201527f41727852656769737472793a206275696c64696e6720616c726561647920726560448201526719da5cdd195c995960c21b60648201526084016102d9565b806001848460405161081a929190610bf9565b90815260200160405180910390205f6101000a8154816001600160a01b0302191690836001600160a01b0316021790555060016002848460405161085f929190610bf9565b908152604051908190036020018120805492151560ff19909316929092179091556001600160a01b038216906108989085908590610bf9565b604051908190038120907f0620a1c3decd4cab5958577b84e23e9bc9f81207d2d2ef7c795f4545da6a9d21905f90a3505050565b5f600283836040516108df929190610bf9565b9081526040519081900360200190205460ff1661090e5760405162461bcd60e51b81526004016102d990610cd7565b60018383604051610920929190610bf9565b908152604051908190036020019020546001600160a01b0316905092915050565b61094961097e565b6001600160a01b03811661097257604051631e4fbdf760e01b81525f60048201526024016102d9565b61097b816109d8565b50565b5f546001600160a01b031633146105b05760405163118cdaa760e01b81523360048201526024016102d9565b6109b2610a27565b60027f9b779b17422d0df92223018b32b4d1fa46e071723d6817e2486d003becc55f0055565b5f80546001600160a01b038381166001600160a01b0319831681178455604051919092169283917f8be0079c531659141344cd1fd0a4f28419497f9722a3daafe3b4186f6b6457e09190a35050565b7f9b779b17422d0df92223018b32b4d1fa46e071723d6817e2486d003becc55f00546002036105b057604051633ee5aeb560e01b815260040160405180910390fd5b5f60208284031215610a79575f80fd5b5035919050565b5f8083601f840112610a90575f80fd5b50813567ffffffffffffffff811115610aa7575f80fd5b602083019150836020828501011115610abe575f80fd5b9250929050565b5f8060208385031215610ad6575f80fd5b823567ffffffffffffffff811115610aec575f80fd5b610af885828601610a80565b90969095509350505050565b6001600160a01b038116811461097b575f80fd5b5f805f60408486031215610b2a575f80fd5b8335610b3581610b04565b9250602084013567ffffffffffffffff811115610b50575f80fd5b610b5c86828701610a80565b9497909650939450505050565b5f805f60408486031215610b7b575f80fd5b833567ffffffffffffffff811115610b91575f80fd5b610b9d86828701610a80565b9094509250506020840135610bb181610b04565b809150509250925092565b5f60208284031215610bcc575f80fd5b8135610bd781610b04565b9392505050565b5f60208284031215610bee575f80fd5b8151610bd781610b04565b818382375f9101908152919050565b60208082526019908201527f41727852656769737472793a207a65726f206164647265737300000000000000604082015260600190565b5f60018201610c5c57634e487b7160e01b5f52601160045260245ffd5b5060010190565b81835281816020850137505f828201602090810191909152601f909101601f19169091010190565b60018060a01b0385168152836020820152606060408201525f610cb2606083018486610c63565b9695505050505050565b602081525f610ccf602083018486610c63565b949350505050565b60208082526024908201527f41727852656769737472793a206275696c64696e67206e6f7420726567697374604082015263195c995960e21b606082015260800190565b5f60208284031215610d2b575f80fd5b505191905056fea2646970667358221220ace0387d093b28f67985a3d9b3de14ddba55c6b1dcc0b82aefcdb5ce6106cdb564736f6c6343000818003360a060405234801562000010575f80fd5b5060405162001429380380620014298339810160408190526200003391620000b1565b6040518060400160405280600f81526020016e105c9e13d4c815dbdc9ad95c881251608a1b8152506040518060400160405280600981526020016820a92c2ba7a925a2a960b91b815250815f90816200008d91906200017e565b5060016200009c82826200017e565b5050506001600160a01b03166080526200024a565b5f60208284031215620000c2575f80fd5b81516001600160a01b0381168114620000d9575f80fd5b9392505050565b634e487b7160e01b5f52604160045260245ffd5b600181811c908216806200010957607f821691505b6020821081036200012857634e487b7160e01b5f52602260045260245ffd5b50919050565b601f8211156200017957805f5260205f20601f840160051c81016020851015620001555750805b601f840160051c820191505b8181101562000176575f815560010162000161565b50505b505050565b81516001600160401b038111156200019a576200019a620000e0565b620001b281620001ab8454620000f4565b846200012e565b602080601f831160018114620001e8575f8415620001d05750858301515b5f19600386901b1c1916600185901b17855562000242565b5f85815260208120601f198616915b828110156200021857888601518255948401946001909101908401620001f7565b50858210156200023657878501515f19600388901b60f8161c191681555b505060018460011b0185555b505050505050565b6080516111bf6200026a5f395f81816101db015261058201526111bf5ff3fe608060405234801561000f575f80fd5b50600436106100fb575f3560e01c80637b10399911610093578063c87b56dd11610063578063c87b56dd1461022b578063d3fc98641461023e578063e985e9c514610251578063f153768614610264575f80fd5b80637b103999146101d657806395d89b41146101fd578063a22cb46514610205578063b88d4fde14610218575f80fd5b806323b872dd116100ce57806323b872dd1461017c57806342842e0e1461018f5780636352211e146101a257806370a08231146101b5575f80fd5b806301ffc9a7146100ff57806306fdde0314610127578063081812fc1461013c578063095ea7b314610167575b5f80fd5b61011261010d366004610cd8565b61028c565b60405190151581526020015b60405180910390f35b61012f6102dd565b60405161011e9190610d3d565b61014f61014a366004610d4f565b61036c565b6040516001600160a01b03909116815260200161011e565b61017a610175366004610d81565b610393565b005b61017a61018a366004610da9565b6103a2565b61017a61019d366004610da9565b610430565b61014f6101b0366004610d4f565b61044f565b6101c86101c3366004610de2565b610459565b60405190815260200161011e565b61014f7f000000000000000000000000000000000000000000000000000000000000000081565b61012f61049e565b61017a610213366004610dfb565b6104ad565b61017a610226366004610e48565b6104b8565b61012f610239366004610d4f565b6104d0565b61017a61024c366004610f1d565b610577565b61011261025f366004610f9d565b6106da565b6101c8610272366004610de2565b6001600160a01b03165f9081526008602052604090205490565b5f6001600160e01b031982166380ac58cd60e01b14806102bc57506001600160e01b03198216635b5e139f60e01b145b806102d757506301ffc9a760e01b6001600160e01b03198316145b92915050565b60605f80546102eb90610fce565b80601f016020809104026020016040519081016040528092919081815260200182805461031790610fce565b80156103625780601f1061033957610100808354040283529160200191610362565b820191905f5260205f20905b81548152906001019060200180831161034557829003601f168201915b5050505050905090565b5f61037682610707565b505f828152600460205260409020546001600160a01b03166102d7565b61039e82823361073f565b5050565b6001600160a01b0382166103d057604051633250574960e11b81525f60048201526024015b60405180910390fd5b5f6103dc83833361074c565b9050836001600160a01b0316816001600160a01b03161461042a576040516364283d7b60e01b81526001600160a01b03808616600483015260248201849052821660448201526064016103c7565b50505050565b61044a83838360405180602001604052805f8152506104b8565b505050565b5f6102d782610707565b5f6001600160a01b038216610483576040516322718ad960e21b81525f60048201526024016103c7565b506001600160a01b03165f9081526003602052604090205490565b6060600180546102eb90610fce565b61039e3383836107db565b6104c38484846103a2565b61042a3385858585610879565b60606104db82610707565b505f82815260076020526040902080546104f490610fce565b80601f016020809104026020016040519081016040528092919081815260200182805461052090610fce565b801561056b5780601f106105425761010080835404028352916020019161056b565b820191905f5260205f20905b81548152906001019060200180831161054e57829003601f168201915b50505050509050919050565b336001600160a01b037f000000000000000000000000000000000000000000000000000000000000000016146105ef5760405162461bcd60e51b815260206004820152601a60248201527f417278576f726b657249443a206f6e6c7920726567697374727900000000000060448201526064016103c7565b6001600160a01b0384166106455760405162461bcd60e51b815260206004820152601960248201527f417278576f726b657249443a207a65726f20616464726573730000000000000060448201526064016103c7565b61064f84846109a1565b5f838152600660209081526040808320805460ff191660011790556007909152902061067c82848361104a565b506001600160a01b0384165f8181526008602052604090819020859055518491907f77618eca4f86caec086408921de3b6c44d2fcec4fd43297e63a9fa73ec944030906106cc9086908690611104565b60405180910390a350505050565b6001600160a01b039182165f90815260056020908152604080832093909416825291909152205460ff1690565b5f818152600260205260408120546001600160a01b0316806102d757604051637e27328960e01b8152600481018490526024016103c7565b61044a8383836001610a02565b5f828152600260205260408120546001600160a01b031680156107c7575f8481526006602052604090205460ff16156107c75760405162461bcd60e51b815260206004820152601c60248201527f417278576f726b657249443a20736f756c626f756e6420746f6b656e0000000060448201526064016103c7565b6107d2858585610b06565b95945050505050565b6001600160a01b03821661080d57604051630b61174360e31b81526001600160a01b03831660048201526024016103c7565b6001600160a01b038381165f81815260056020908152604080832094871680845294825291829020805460ff191686151590811790915591519182527f17307eab39ab6107e8899845ad3d59bd9653f200f220920489ca2b5937696c31910160405180910390a3505050565b6001600160a01b0383163b1561099a57604051630a85bd0160e11b81526001600160a01b0384169063150b7a02906108bb908890889087908790600401611132565b6020604051808303815f875af19250505080156108f5575060408051601f3d908101601f191682019092526108f29181019061116e565b60015b61095c573d808015610922576040519150601f19603f3d011682016040523d82523d5f602084013e610927565b606091505b5080515f0361095457604051633250574960e11b81526001600160a01b03851660048201526024016103c7565b805160208201fd5b6001600160e01b03198116630a85bd0160e11b1461099857604051633250574960e11b81526001600160a01b03851660048201526024016103c7565b505b5050505050565b6001600160a01b0382166109ca57604051633250574960e11b81525f60048201526024016103c7565b5f6109d683835f61074c565b90506001600160a01b0381161561044a576040516339e3563760e11b81525f60048201526024016103c7565b8080610a1657506001600160a01b03821615155b15610ad7575f610a2584610707565b90506001600160a01b03831615801590610a515750826001600160a01b0316816001600160a01b031614155b8015610a645750610a6281846106da565b155b15610a8d5760405163a9fbf51f60e01b81526001600160a01b03841660048201526024016103c7565b8115610ad55783856001600160a01b0316826001600160a01b03167f8c5be1e5ebec7d5bd14f71427d1e84f3dd0314c0f7b2291e5b200ac8c7c3b92560405160405180910390a45b505b50505f90815260046020526040902080546001600160a01b0319166001600160a01b0392909216919091179055565b5f828152600260205260408120546001600160a01b0390811690831615610b3257610b32818486610bf8565b6001600160a01b03811615610b6c57610b4d5f855f80610a02565b6001600160a01b0381165f90815260036020526040902080545f190190555b6001600160a01b03851615610b9a576001600160a01b0385165f908152600360205260409020805460010190555b5f8481526002602052604080822080546001600160a01b0319166001600160a01b0389811691821790925591518793918516917fddf252ad1be2c89b69c2b068fc378daa952ba7f163c4a11628f55a4df523b3ef91a4949350505050565b610c03838383610c5c565b61044a576001600160a01b038316610c3157604051637e27328960e01b8152600481018290526024016103c7565b60405163177e802f60e01b81526001600160a01b0383166004820152602481018290526044016103c7565b5f6001600160a01b03831615801590610cb85750826001600160a01b0316846001600160a01b03161480610c955750610c9584846106da565b80610cb857505f828152600460205260409020546001600160a01b038481169116145b949350505050565b6001600160e01b031981168114610cd5575f80fd5b50565b5f60208284031215610ce8575f80fd5b8135610cf381610cc0565b9392505050565b5f81518084525f5b81811015610d1e57602081850181015186830182015201610d02565b505f602082860101526020601f19601f83011685010191505092915050565b602081525f610cf36020830184610cfa565b5f60208284031215610d5f575f80fd5b5035919050565b80356001600160a01b0381168114610d7c575f80fd5b919050565b5f8060408385031215610d92575f80fd5b610d9b83610d66565b946020939093013593505050565b5f805f60608486031215610dbb575f80fd5b610dc484610d66565b9250610dd260208501610d66565b9150604084013590509250925092565b5f60208284031215610df2575f80fd5b610cf382610d66565b5f8060408385031215610e0c575f80fd5b610e1583610d66565b915060208301358015158114610e29575f80fd5b809150509250929050565b634e487b7160e01b5f52604160045260245ffd5b5f805f8060808587031215610e5b575f80fd5b610e6485610d66565b9350610e7260208601610d66565b925060408501359150606085013567ffffffffffffffff80821115610e95575f80fd5b818701915087601f830112610ea8575f80fd5b813581811115610eba57610eba610e34565b604051601f8201601f19908116603f01168101908382118183101715610ee257610ee2610e34565b816040528281528a6020848701011115610efa575f80fd5b826020860160208301375f60208483010152809550505050505092959194509250565b5f805f8060608587031215610f30575f80fd5b610f3985610d66565b935060208501359250604085013567ffffffffffffffff80821115610f5c575f80fd5b818701915087601f830112610f6f575f80fd5b813581811115610f7d575f80fd5b886020828501011115610f8e575f80fd5b95989497505060200194505050565b5f8060408385031215610fae575f80fd5b610fb783610d66565b9150610fc560208401610d66565b90509250929050565b600181811c90821680610fe257607f821691505b60208210810361100057634e487b7160e01b5f52602260045260245ffd5b50919050565b601f82111561044a57805f5260205f20601f840160051c8101602085101561102b5750805b601f840160051c820191505b8181101561099a575f8155600101611037565b67ffffffffffffffff83111561106257611062610e34565b611076836110708354610fce565b83611006565b5f601f8411600181146110a7575f85156110905750838201355b5f19600387901b1c1916600186901b17835561099a565b5f83815260208120601f198716915b828110156110d657868501358255602094850194600190920191016110b6565b50868210156110f2575f1960f88860031b161c19848701351681555b505060018560011b0183555050505050565b60208152816020820152818360408301375f818301604090810191909152601f909201601f19160101919050565b6001600160a01b03858116825284166020820152604081018390526080606082018190525f9061116490830184610cfa565b9695505050505050565b5f6020828403121561117e575f80fd5b8151610cf381610cc056fea26469706673582212204e4b4d79e8bf764e9c3ad6d74cdc025245fafa5623c442f8a6cdee8f59934bc764736f6c63430008180033","linkReferences":{}},"methodIdentifiers":{"deactivateWorker(address)":"95597c3c","getBuildingWallet(string)":"ca0e4a7b","getWorkerWallet(uint256)":"08e16bcc","isBuildingRegistered(string)":"2329765b","isWorkerActive(address)":"c5689dbf","owner()":"8da5cb5b","registerBuilding(string,address)":"acddd7ea","registerWorker(address,string)":"6045da48","renounceOwnership()":"715018a6","transferOwnership(address)":"f2fde38b","updateBuildingWallet(string,address)":"6ca008b3","workerNFT()":"a17a76b9"},"id":52}