{"abi":[{"type":"constructor","inputs":[{"name":"_registry","type":"address","internalType":"address"}],"stateMutability":"nonpayable"},{"type":"function","name":"approve","inputs":[{"name":"to","type":"address","internalType":"address"},{"name":"tokenId","type":"uint256","internalType":"uint256"}],"outputs":[],"stateMutability":"nonpayable"},{"type":"function","name":"balanceOf","inputs":[{"name":"owner","type":"address","internalType":"address"}],"outputs":[{"name":"","type":"uint256","internalType":"uint256"}],"stateMutability":"view"},{"type":"function","name":"getApproved","inputs":[{"name":"tokenId","type":"uint256","internalType":"uint256"}],"outputs":[{"name":"","type":"address","internalType":"address"}],"stateMutability":"view"},{"type":"function","name":"getTokenId","inputs":[{"name":"wallet","type":"address","internalType":"address"}],"outputs":[{"name":"","type":"uint256","internalType":"uint256"}],"stateMutability":"view"},{"type":"function","name":"isApprovedForAll","inputs":[{"name":"owner","type":"address","internalType":"address"},{"name":"operator","type":"address","internalType":"address"}],"outputs":[{"name":"","type":"bool","internalType":"bool"}],"stateMutability":"view"},{"type":"function","name":"mint","inputs":[{"name":"to","type":"address","internalType":"address"},{"name":"tokenId","type":"uint256","internalType":"uint256"},{"name":"metadata","type":"string","internalType":"string"}],"outputs":[],"stateMutability":"nonpayable"},{"type":"function","name":"name","inputs":[],"outputs":[{"name":"","type":"string","internalType":"string"}],"stateMutability":"view"},{"type":"function","name":"ownerOf","inputs":[{"name":"tokenId","type":"uint256","internalType":"uint256"}],"outputs":[{"name":"","type":"address","internalType":"address"}],"stateMutability":"view"},{"type":"function","name":"registry","inputs":[],"outputs":[{"name":"","type":"address","internalType":"address"}],"stateMutability":"view"},{"type":"function","name":"safeTransferFrom","inputs":[{"name":"from","type":"address","internalType":"address"},{"name":"to","type":"address","internalType":"address"},{"name":"tokenId","type":"uint256","internalType":"uint256"}],"outputs":[],"stateMutability":"nonpayable"},{"type":"function","name":"safeTransferFrom","inputs":[{"name":"from","type":"address","internalType":"address"},{"name":"to","type":"address","internalType":"address"},{"name":"tokenId","type":"uint256","internalType":"uint256"},{"name":"data","type":"bytes","internalType":"bytes"}],"outputs":[],"stateMutability":"nonpayable"},{"type":"function","name":"setApprovalForAll","inputs":[{"name":"operator","type":"address","internalType":"address"},{"name":"approved","type":"bool","internalType":"bool"}],"outputs":[],"stateMutability":"nonpayable"},{"type":"function","name":"supportsInterface","inputs":[{"name":"interfaceId","type":"bytes4","internalType":"bytes4"}],"outputs":[{"name":"","type":"bool","internalType":"bool"}],"stateMutability":"view"},{"type":"function","name":"symbol","inputs":[],"outputs":[{"name":"","type":"string","internalType":"string"}],"stateMutability":"view"},{"type":"function","name":"tokenURI","inputs":[{"name":"tokenId","type":"uint256","internalType":"uint256"}],"outputs":[{"name":"","type":"string","internalType":"string"}],"stateMutability":"view"},{"type":"function","name":"transferFrom","inputs":[{"name":"from","type":"address","internalType":"address"},{"name":"to","type":"address","internalType":"address"},{"name":"tokenId","type":"uint256","internalType":"uint256"}],"outputs":[],"stateMutability":"nonpayable"},{"type":"event","name":"Approval","inputs":[{"name":"owner","type":"address","indexed":true,"internalType":"address"},{"name":"approved","type":"address","indexed":true,"internalType":"address"},{"name":"tokenId","type":"uint256","indexed":true,"internalType":"uint256"}],"anonymous":false},{"type":"event","name":"ApprovalForAll","inputs":[{"name":"owner","type":"address","indexed":true,"internalType":"address"},{"name":"operator","type":"address","indexed":true,"internalType":"address"},{"name":"approved","type":"bool","indexed":false,"internalType":"bool"}],"anonymous":false},{"type":"event","name":"Transfer","inputs":[{"name":"from","type":"address","indexed":true,"internalType":"address"},{"name":"to","type":"address","indexed":true,"internalType":"address"},{"name":"tokenId","type":"uint256","indexed":true,"internalType":"uint256"}],"anonymous":false},{"type":"event","name":"WorkerNFTMinted","inputs":[{"name":"to","type":"address","indexed":true,"internalType":"address"},{"name":"tokenId","type":"uint256","indexed":true,"internalType":"uint256"},{"name":"metadata","type":"string","indexed":false,"internalType":"string"}],"anonymous":false},{"type":"error","name":"ERC721IncorrectOwner","inputs":[{"name":"sender","type":"address","internalType":"address"},{"name":"tokenId","type":"uint256","internalType":"uint256"},{"name":"owner","type":"address","internalType":"address"}]},{"type":"error","name":"ERC721InsufficientApproval","inputs":[{"name":"operator","type":"address","internalType":"address"},{"name":"tokenId","type":"uint256","internalType":"uint256"}]},{"type":"error","name":"ERC721InvalidApprover","inputs":[{"name":"approver","type":"address","internalType":"address"}]},{"type":"error","name":"ERC721InvalidOperator","inputs":[{"name":"operator","type":"address","internalType":"address"}]},{"type":"error","name":"ERC721InvalidOwner","inputs":[{"name":"owner","type":"address","internalType":"address"}]},{"type":"error","name":"ERC721InvalidReceiver","inputs":[{"name":"receiver","type":"address","internalType":"address"}]},{"type":"error","name":"ERC721InvalidSender","inputs":[{"name":"sender","type":"address","internalType":"address"}]},{"type":"error","name":"ERC721NonexistentToken","inputs":[{"name":"tokenId","type":"uint256","internalType":"uint256"}]}],"bytecode":{"object":"0x60a0346200032c57601f1990601f906001600160401b036200183e3881900384810186168401838111858210176200024e578492829160405283396020938491810103126200032c5751926001600160a01b03841684036200032c576200006562000330565b92600f84526e105c9e13d4c815dbdc9ad95c881251608a1b818501526200008b62000330565b95600987526820a92c2ba7a925a2a960b91b8288015284518481116200024e575f546001968782811c9216801562000321575b858310146200022f578186849311620002ce575b5084908683116001146200026e575f9262000262575b50505f19600383901b1c191690861b175f555b86519384116200024e5784548581811c9116801562000243575b838210146200022f57838111620001e7575b508192841160011462000184575050819293945f9262000178575b50505f19600383901b1c191690821b1790555b6080526040516114ed90816200035182396080518181816101e101526109e00152f35b015190505f8062000142565b5f858152828120918516979193925b888210620001cf5750508385969710620001b6575b505050811b01905562000155565b01515f1960f88460031b161c191690555f8080620001a8565b80878596829496860151815501950193019062000193565b855f52825f208480870160051c82019285881062000225575b0160051c019086905b8281106200021957505062000127565b5f815501869062000209565b9250819262000200565b634e487b7160e01b5f52602260045260245ffd5b90607f169062000115565b634e487b7160e01b5f52604160045260245ffd5b015190505f80620000e8565b9084899416915f8052865f20925f5b88828210620002b757505084116200029e575b505050811b015f55620000fb565b01515f1960f88460031b161c191690555f808062000290565b8385015186558c979095019493840193016200027d565b9091505f8052845f208680850160051c82019287861062000317575b918a91869594930160051c01915b82811062000308575050620000d2565b5f81558594508a9101620002f8565b92508192620002ea565b91607f1691620000be565b5f80fd5b60408051919082016001600160401b038111838210176200024e5760405256fe6080604090808252600480361015610015575f80fd5b5f3560e01c91826301ffc9a714610d5a5750816306fdde0314610cad578163081812fc14610c67578163095ea7b314610b3557816323b872dd14610b1e57816342842e0e14610ab95781636352211e14610a7e57816370a0823114610a045781637b103999146109b457816395d89b41146108c2578163a22cb465146107e3578163b88d4fde1461075d578163c87b56dd14610659578163d3fc98641461017357508063e985e9c5146101175763f1537686146100d0575f80fd5b346101135760206003193601126101135760209073ffffffffffffffffffffffffffffffffffffffff610101610e66565b165f5260088252805f20549051908152f35b5f80fd5b5034610113578060031936011261011357602090610133610e66565b61013b610e89565b9073ffffffffffffffffffffffffffffffffffffffff8091165f5260058452825f2091165f52825260ff815f20541690519015158152f35b82346101135760606003193601126101135761018d610e66565b60248035926044359267ffffffffffffffff928385116101135736602386011215610113578487013593841161011357368185870101116101135773ffffffffffffffffffffffffffffffffffffffff91827f00000000000000000000000000000000000000000000000000000000000000001633036105fd5782169485156105a157865f526020926002845280855f205416610536575b875f5260028452845f20541697881515806104ca575b875f52600385528888875f209b60019c8d8154019055825f5260028852885f20827fffffffffffffffffffffffff00000000000000000000000000000000000000008254161790557fddf252ad1be2c89b69c2b068fc378daa952ba7f163c4a11628f55a4df523b3ef5f80a461049c5750865f5260068352835f20887fffffffffffffffffffffffffffffffffffffffffffffffffffffffffffffff0082541617905560078352835f20976102f08954610f5a565b601f8111610456575b505f601f87116001146103a95783601f937f77618eca4f86caec086408921de3b6c44d2fcec4fd43297e63a9fa73ec944030999a9b89808096601f199982975f9461039c575b50501b907fffffffffffffffffffffffffffffffffffffffffffffffffffffffffffffffff8660031b1c19161790555b8a5f52600887528b885f2055875198878a98895288015201868601375f85828601015201168101030190a3005b860101359250855f61033f565b601f198716908a5f52855f20915f5b81811061043f5750937f77618eca4f86caec086408921de3b6c44d2fcec4fd43297e63a9fa73ec944030999a9b89948594601f19989486601f9910610405575b505084811b01905561036f565b857fffffffffffffffffffffffffffffffffffffffffffffffffffffffffffffffff60f88960031b161c1991860101351690558e806103f8565b8583018701358455928401929187019187016103b8565b895f52845f20601f880160051c810191868910610492575b601f0160051c019082905b8281106104875750506102f9565b5f8155018290610479565b909150819061046e565b90505f8451917f73c6ac6e000000000000000000000000000000000000000000000000000000008352820152fd5b610501895f52600460205260405f207fffffffffffffffffffffffff00000000000000000000000000000000000000008154169055565b895f5260038552855f207fffffffffffffffffffffffffffffffffffffffffffffffffffffffffffffffff815401905561023b565b6006845260ff855f2054161561022557606489601c85878951937f08c379a00000000000000000000000000000000000000000000000000000000085528401528201527f417278576f726b657249443a20736f756c626f756e6420746f6b656e000000006044820152fd5b60648860198460208851937f08c379a00000000000000000000000000000000000000000000000000000000085528401528201527f417278576f726b657249443a207a65726f2061646472657373000000000000006044820152fd5b606488601a8460208851937f08c379a00000000000000000000000000000000000000000000000000000000085528401528201527f417278576f726b657249443a206f6e6c792072656769737472790000000000006044820152fd5b9050346101135760209081600319360112610113573561067881611458565b505f5260078152815f2091805180935f90805461069481610f5a565b91828552600191876001821691825f146107185750506001146106d8575b5050506106d492916106c5910385610eee565b51928284938452830190610e28565b0390f35b8693505f92919252825f20915f925b82841061070057505050820101816106c56106d46106b2565b8054848a0186015288955087949093019281016106e7565b7fffffffffffffffffffffffffffffffffffffffffffffffffffffffffffffff00168782015293151560051b860190930193508492506106c591506106d490506106b2565b823461011357608060031936011261011357610777610e66565b61077f610e89565b6064359367ffffffffffffffff85116101135736602386011215610113578401356107b56107ac82610f3e565b94519485610eee565b8084523660248287010111610113576020815f9260246107e19801838801378501015260443591611289565b005b82346101135780600319360112610113576107fc610e66565b90602435918215158093036101135773ffffffffffffffffffffffffffffffffffffffff169283156108945750335f526005602052805f20835f52602052805f207fffffffffffffffffffffffffffffffffffffffffffffffffffffffffffffff0081541660ff8416179055519081527f17307eab39ab6107e8899845ad3d59bd9653f200f220920489ca2b5937696c3160203392a3005b8360249251917f5b08ba18000000000000000000000000000000000000000000000000000000008352820152fd5b8234610113575f600319360112610113578051905f9082600192600154936108e985610f5a565b90818452602095866001821691825f14610974575050600114610919575b50506106d492916106c5910385610eee565b9085925060015f527fb10e2d527612073b26eecdfd717e6a320cf44b4afac2b0732d9fcbe2b7fa0cf6915f925b82841061095c57505050820101816106c5610907565b8054848a018601528895508794909301928101610946565b7fffffffffffffffffffffffffffffffffffffffffffffffffffffffffffffff00168682015292151560051b850190920192508391506106c59050610907565b8234610113575f600319360112610113576020905173ffffffffffffffffffffffffffffffffffffffff7f0000000000000000000000000000000000000000000000000000000000000000168152f35b82346101135760206003193601126101135773ffffffffffffffffffffffffffffffffffffffff610a33610e66565b168015610a4f57602092505f5260038252805f20549051908152f35b6024835f8451917f89c62b64000000000000000000000000000000000000000000000000000000008352820152fd5b82346101135760206003193601126101135773ffffffffffffffffffffffffffffffffffffffff610ab160209335611458565b915191168152f35b823461011357610ac836610eac565b91835193602085019085821067ffffffffffffffff831117610af2576107e19650525f8452611289565b6041877f4e487b71000000000000000000000000000000000000000000000000000000005f525260245ffd5b34610113576107e1610b2f36610eac565b91610fab565b8234610113578060031936011261011357610b4e610e66565b91602435610b5b81611458565b33151580610c47575b80610c12575b610be357819073ffffffffffffffffffffffffffffffffffffffff809616958691167f8c5be1e5ebec7d5bd14f71427d1e84f3dd0314c0f7b2291e5b200ac8c7c3b9255f80a45f526020525f20907fffffffffffffffffffffffff00000000000000000000000000000000000000008254161790555f80f35b83517fa9fbf51f0000000000000000000000000000000000000000000000000000000081523381850152602490fd5b5073ffffffffffffffffffffffffffffffffffffffff81165f526005602052835f20335f5260205260ff845f20541615610b6a565b503373ffffffffffffffffffffffffffffffffffffffff82161415610b64565b8234610113576020600319360112610113578160209235610c8781611458565b505f52825273ffffffffffffffffffffffffffffffffffffffff815f2054169051908152f35b8234610113575f600319360112610113578051905f90825f5492610cd084610f5a565b808352602094600190866001821691825f14610974575050600114610d015750506106d492916106c5910385610eee565b5f80805286935091907f290decd9548b62a8d60345a988386fc84ba6bc95484008f6362f93160ef3e5635b828410610d4257505050820101816106c5610907565b8054848a018601528895508794909301928101610d2c565b90346101135760206003193601126101135735907fffffffff00000000000000000000000000000000000000000000000000000000821680920361011357817f80ac58cd0000000000000000000000000000000000000000000000000000000060209314908115610dfe575b8115610dd4575b5015158152f35b7f01ffc9a70000000000000000000000000000000000000000000000000000000091501483610dcd565b7f5b5e139f0000000000000000000000000000000000000000000000000000000081149150610dc6565b91908251928382525f5b848110610e52575050601f19601f845f6020809697860101520116010190565b602081830181015184830182015201610e32565b6004359073ffffffffffffffffffffffffffffffffffffffff8216820361011357565b6024359073ffffffffffffffffffffffffffffffffffffffff8216820361011357565b60031960609101126101135773ffffffffffffffffffffffffffffffffffffffff90600435828116810361011357916024359081168103610113579060443590565b90601f601f19910116810190811067ffffffffffffffff821117610f1157604052565b7f4e487b71000000000000000000000000000000000000000000000000000000005f52604160045260245ffd5b67ffffffffffffffff8111610f1157601f01601f191660200190565b90600182811c92168015610fa1575b6020831014610f7457565b7f4e487b71000000000000000000000000000000000000000000000000000000005f52602260045260245ffd5b91607f1691610f69565b909173ffffffffffffffffffffffffffffffffffffffff80931692831561125957815f52602092600284528260409583875f2054166111e4575b815f526002865283875f2054169533151580611120575b50600290876110b4575b825f5260038152885f2060018154019055835f5252865f20817fffffffffffffffffffffffff0000000000000000000000000000000000000000825416179055857fddf252ad1be2c89b69c2b068fc378daa952ba7f163c4a11628f55a4df523b3ef5f80a4169283830361107a5750505050565b6064945051927f64283d7b000000000000000000000000000000000000000000000000000000008452600484015260248301526044820152fd5b6110eb845f52600460205260405f207fffffffffffffffffffffffff00000000000000000000000000000000000000008154169055565b875f5260038152885f207fffffffffffffffffffffffffffffffffffffffffffffffffffffffffffffffff8154019055611006565b91925090806111a3575b15611138579084915f610ffc565b86858761116e5760249151907f7e2732890000000000000000000000000000000000000000000000000000000082526004820152fd5b60449151907f177e802f0000000000000000000000000000000000000000000000000000000082523360048301526024820152fd5b5033861480156111c8575b8061112a5750845f52600481523384885f2054161461112a565b50855f5260058152865f20335f52815260ff875f2054166111ae565b90506006855260ff865f2054166111fc578390610fe5565b6064858751907f08c379a00000000000000000000000000000000000000000000000000000000082526004820152601c60248201527f417278576f726b657249443a20736f756c626f756e6420746f6b656e000000006044820152fd5b60246040517f64a0ae920000000000000000000000000000000000000000000000000000000081525f6004820152fd5b9192611296848385610fab565b813b6112a3575b50505050565b9061131594929173ffffffffffffffffffffffffffffffffffffffff80921694604051927f150b7a020000000000000000000000000000000000000000000000000000000094858552336004860152166024840152604483015260806064830152818060209788936084830190610e28565b03815f885af15f9181611400575b5061139a575050503d5f14611392573d9161133d83610f3e565b9261134b6040519485610eee565b83523d5f8285013e5b8251928361138d57602483604051907f64a0ae920000000000000000000000000000000000000000000000000000000082526004820152fd5b019050fd5b606091611354565b7fffffffff000000000000000000000000000000000000000000000000000000009192945016036113cf57505f80808061129d565b602490604051907f64a0ae920000000000000000000000000000000000000000000000000000000082526004820152fd5b9091508581813d8311611451575b6114188183610eee565b8101031261011357517fffffffff000000000000000000000000000000000000000000000000000000008116810361011357905f611323565b503d61140e565b805f52600260205273ffffffffffffffffffffffffffffffffffffffff60405f205416908115611486575090565b602490604051907f7e2732890000000000000000000000000000000000000000000000000000000082526004820152fdfea2646970667358221220f04ce24b9a23c74bb36305ed54ccfdb141dcdc2b4a97cd3f977d820087a0022164736f6c63430008180033","linkReferences":{}},"methodIdentifiers":{"approve(address,uint256)":"095ea7b3","balanceOf(address)":"70a08231","getApproved(uint256)":"081812fc","getTokenId(address)":"f1537686","isApprovedForAll(address,address)":"e985e9c5","mint(address,uint256,string)":"d3fc9864","name()":"06fdde03","ownerOf(uint256)":"6352211e","registry()":"7b103999","safeTransferFrom(address,address,uint256)":"42842e0e","safeTransferFrom(address,address,uint256,bytes)":"b88d4fde","setApprovalForAll(address,bool)":"a22cb465","supportsInterface(bytes4)":"01ffc9a7","symbol()":"95d89b41","tokenURI(uint256)":"c87b56dd","transferFrom(address,address,uint256)":"23b872dd"},"id":50}