{"abi":[{"type":"function","name":"arithmeticError","inputs":[],"outputs":[{"name":"","type":"bytes","internalType":"bytes"}],"stateMutability":"view"},{"type":"function","name":"assertionError","inputs":[],"outputs":[{"name":"","type":"bytes","internalType":"bytes"}],"stateMutability":"view"},{"type":"function","name":"divisionError","inputs":[],"outputs":[{"name":"","type":"bytes","internalType":"bytes"}],"stateMutability":"view"},{"type":"function","name":"encodeStorageError","inputs":[],"outputs":[{"name":"","type":"bytes","internalType":"bytes"}],"stateMutability":"view"},{"type":"function","name":"enumConversionError","inputs":[],"outputs":[{"name":"","type":"bytes","internalType":"bytes"}],"stateMutability":"view"},{"type":"function","name":"indexOOBError","inputs":[],"outputs":[{"name":"","type":"bytes","internalType":"bytes"}],"stateMutability":"view"},{"type":"function","name":"memOverflowError","inputs":[],"outputs":[{"name":"","type":"bytes","internalType":"bytes"}],"stateMutability":"view"},{"type":"function","name":"popError","inputs":[],"outputs":[{"name":"","type":"bytes","internalType":"bytes"}],"stateMutability":"view"},{"type":"function","name":"zeroVarError","inputs":[],"outputs":[{"name":"","type":"bytes","internalType":"bytes"}],"stateMutability":"view"}],"bytecode":{"object":"0x6080806040523461001a57610424908161001f823930815050f35b5f80fdfe60806040908082526004361015610014575f80fd5b5f3560e01c90816305ee8612146102fa5750806310332977146102ad5780631de45560146102605780638995290f14610213578063986c5f68146101c6578063b22dc54d14610179578063b67689da1461012c578063d160e4de146100df5763fa784a4414610081575f80fd5b5f6003193601126100db57806100d79151907f4e487b7100000000000000000000000000000000000000000000000000000000602083015260126024830152602482526100cd82610341565b519182918261038a565b0390f35b5f80fd5b505f6003193601126100db57806100d79151907f4e487b7100000000000000000000000000000000000000000000000000000000602083015260226024830152602482526100cd82610341565b505f6003193601126100db57806100d79151907f4e487b7100000000000000000000000000000000000000000000000000000000602083015260516024830152602482526100cd82610341565b505f6003193601126100db57806100d79151907f4e487b7100000000000000000000000000000000000000000000000000000000602083015260316024830152602482526100cd82610341565b505f6003193601126100db57806100d79151907f4e487b7100000000000000000000000000000000000000000000000000000000602083015260416024830152602482526100cd82610341565b505f6003193601126100db57806100d79151907f4e487b7100000000000000000000000000000000000000000000000000000000602083015260116024830152602482526100cd82610341565b505f6003193601126100db57806100d79151907f4e487b7100000000000000000000000000000000000000000000000000000000602083015260216024830152602482526100cd82610341565b505f6003193601126100db57806100d79151907f4e487b7100000000000000000000000000000000000000000000000000000000602083015260016024830152602482526100cd82610341565b90505f6003193601126100db576100d7917f4e487b7100000000000000000000000000000000000000000000000000000000602083015260326024830152602482526100cd825b6060810190811067ffffffffffffffff82111761035d57604052565b7f4e487b71000000000000000000000000000000000000000000000000000000005f52604160045260245ffd5b6020808252825181830181905293925f5b8581106103da575050507fffffffffffffffffffffffffffffffffffffffffffffffffffffffffffffffe0601f845f6040809697860101520116010190565b81810183015184820160400152820161039b56fea2646970667358221220f7090d9ea8b569e53cc8f6572255c7c7abeacd3498cf0eeb2913de953be003ce64736f6c63430008180033","linkReferences":{}},"methodIdentifiers":{"arithmeticError()":"8995290f","assertionError()":"10332977","divisionError()":"fa784a44","encodeStorageError()":"d160e4de","enumConversionError()":"1de45560","indexOOBError()":"05ee8612","memOverflowError()":"986c5f68","popError()":"b22dc54d","zeroVarError()":"b67689da"},"id":5}