{"abi":[{"type":"constructor","inputs":[{"name":"admin","type":"address","internalType":"address"}],"stateMutability":"nonpayable"},{"type":"function","name":"DEFAULT_ADMIN_ROLE","inputs":[],"outputs":[{"name":"","type":"bytes32","internalType":"bytes32"}],"stateMutability":"view"},{"type":"function","name":"MINTER_ROLE","inputs":[],"outputs":[{"name":"","type":"bytes32","internalType":"bytes32"}],"stateMutability":"view"},{"type":"function","name":"allowance","inputs":[{"name":"owner","type":"address","internalType":"address"},{"name":"spender","type":"address","internalType":"address"}],"outputs":[{"name":"","type":"uint256","internalType":"uint256"}],"stateMutability":"view"},{"type":"function","name":"approve","inputs":[{"name":"spender","type":"address","internalType":"address"},{"name":"value","type":"uint256","internalType":"uint256"}],"outputs":[{"name":"","type":"bool","internalType":"bool"}],"stateMutability":"nonpayable"},{"type":"function","name":"balanceOf","inputs":[{"name":"account","type":"address","internalType":"address"}],"outputs":[{"name":"","type":"uint256","internalType":"uint256"}],"stateMutability":"view"},{"type":"function","name":"burn","inputs":[{"name":"amount","type":"uint256","internalType":"uint256"}],"outputs":[],"stateMutability":"nonpayable"},{"type":"function","name":"burnFrom","inputs":[{"name":"from","type":"address","internalType":"address"},{"name":"amount","type":"uint256","internalType":"uint256"}],"outputs":[],"stateMutability":"nonpayable"},{"type":"function","name":"decimals","inputs":[],"outputs":[{"name":"","type":"uint8","internalType":"uint8"}],"stateMutability":"pure"},{"type":"function","name":"getRoleAdmin","inputs":[{"name":"role","type":"bytes32","internalType":"bytes32"}],"outputs":[{"name":"","type":"bytes32","internalType":"bytes32"}],"stateMutability":"view"},{"type":"function","name":"grantRole","inputs":[{"name":"role","type":"bytes32","internalType":"bytes32"},{"name":"account","type":"address","internalType":"address"}],"outputs":[],"stateMutability":"nonpayable"},{"type":"function","name":"hasRole","inputs":[{"name":"role","type":"bytes32","internalType":"bytes32"},{"name":"account","type":"address","internalType":"address"}],"outputs":[{"name":"","type":"bool","internalType":"bool"}],"stateMutability":"view"},{"type":"function","name":"mint","inputs":[{"name":"to","type":"address","internalType":"address"},{"name":"amount","type":"uint256","internalType":"uint256"}],"outputs":[],"stateMutability":"nonpayable"},{"type":"function","name":"mintBatch","inputs":[{"name":"recipients","type":"address[]","internalType":"address[]"},{"name":"amounts","type":"uint256[]","internalType":"uint256[]"}],"outputs":[],"stateMutability":"nonpayable"},{"type":"function","name":"mintContribution","inputs":[{"name":"worker","type":"address","internalType":"address"},{"name":"building","type":"address","internalType":"address"},{"name":"maintainer","type":"address","internalType":"address"},{"name":"treasury","type":"address","internalType":"address"},{"name":"totalAmount","type":"uint256","internalType":"uint256"}],"outputs":[],"stateMutability":"nonpayable"},{"type":"function","name":"name","inputs":[],"outputs":[{"name":"","type":"string","internalType":"string"}],"stateMutability":"view"},{"type":"function","name":"renounceRole","inputs":[{"name":"role","type":"bytes32","internalType":"bytes32"},{"name":"callerConfirmation","type":"address","internalType":"address"}],"outputs":[],"stateMutability":"nonpayable"},{"type":"function","name":"revokeRole","inputs":[{"name":"role","type":"bytes32","internalType":"bytes32"},{"name":"account","type":"address","internalType":"address"}],"outputs":[],"stateMutability":"nonpayable"},{"type":"function","name":"supportsInterface","inputs":[{"name":"interfaceId","type":"bytes4","internalType":"bytes4"}],"outputs":[{"name":"","type":"bool","internalType":"bool"}],"stateMutability":"view"},{"type":"function","name":"symbol","inputs":[],"outputs":[{"name":"","type":"string","internalType":"string"}],"stateMutability":"view"},{"type":"function","name":"totalContributedValue","inputs":[],"outputs":[{"name":"","type":"uint256","internalType":"uint256"}],"stateMutability":"view"},{"type":"function","name":"totalSupply","inputs":[],"outputs":[{"name":"","type":"uint256","internalType":"uint256"}],"stateMutability":"view"},{"type":"function","name":"transfer","inputs":[{"name":"to","type":"address","internalType":"address"},{"name":"value","type":"uint256","internalType":"uint256"}],"outputs":[{"name":"","type":"bool","internalType":"bool"}],"stateMutability":"nonpayable"},{"type":"function","name":"transferFrom","inputs":[{"name":"from","type":"address","internalType":"address"},{"name":"to","type":"address","internalType":"address"},{"name":"value","type":"uint256","internalType":"uint256"}],"outputs":[{"name":"","type":"bool","internalType":"bool"}],"stateMutability":"nonpayable"},{"type":"event","name":"Approval","inputs":[{"name":"owner","type":"address","indexed":true,"internalType":"address"},{"name":"spender","type":"address","indexed":true,"internalType":"address"},{"name":"value","type":"uint256","indexed":false,"internalType":"uint256"}],"anonymous":false},{"type":"event","name":"BatchMinted","inputs":[{"name":"minter","type":"address","indexed":true,"internalType":"address"},{"name":"totalAmount","type":"uint256","indexed":false,"internalType":"uint256"},{"name":"recipientCount","type":"uint256","indexed":false,"internalType":"uint256"}],"anonymous":false},{"type":"event","name":"ContributionMinted","inputs":[{"name":"worker","type":"address","indexed":true,"internalType":"address"},{"name":"building","type":"address","indexed":true,"internalType":"address"},{"name":"maintainer","type":"address","indexed":true,"internalType":"address"},{"name":"treasury","type":"address","indexed":false,"internalType":"address"},{"name":"totalAmount","type":"uint256","indexed":false,"internalType":"uint256"}],"anonymous":false},{"type":"event","name":"RoleAdminChanged","inputs":[{"name":"role","type":"bytes32","indexed":true,"internalType":"bytes32"},{"name":"previousAdminRole","type":"bytes32","indexed":true,"internalType":"bytes32"},{"name":"newAdminRole","type":"bytes32","indexed":true,"internalType":"bytes32"}],"anonymous":false},{"type":"event","name":"RoleGranted","inputs":[{"name":"role","type":"bytes32","indexed":true,"internalType":"bytes32"},{"name":"account","type":"address","indexed":true,"internalType":"address"},{"name":"sender","type":"address","indexed":true,"internalType":"address"}],"anonymous":false},{"type":"event","name":"RoleRevoked","inputs":[{"name":"role","type":"bytes32","indexed":true,"internalType":"bytes32"},{"name":"account","type":"address","indexed":true,"internalType":"address"},{"name":"sender","type":"address","indexed":true,"internalType":"address"}],"anonymous":false},{"type":"event","name":"TokensBurned","inputs":[{"name":"burner","type":"address","indexed":true,"internalType":"address"},{"name":"amount","type":"uint256","indexed":false,"internalType":"uint256"}],"anonymous":false},{"type":"event","name":"Transfer","inputs":[{"name":"from","type":"address","indexed":true,"internalType":"address"},{"name":"to","type":"address","indexed":true,"internalType":"address"},{"name":"value","type":"uint256","indexed":false,"internalType":"uint256"}],"anonymous":false},{"type":"error","name":"AccessControlBadConfirmation","inputs":[]},{"type":"error","name":"AccessControlUnauthorizedAccount","inputs":[{"name":"account","type":"address","internalType":"address"},{"name":"neededRole","type":"bytes32","internalType":"bytes32"}]},{"type":"error","name":"ERC20InsufficientAllowance","inputs":[{"name":"spender","type":"address","internalType":"address"},{"name":"allowance","type":"uint256","internalType":"uint256"},{"name":"needed","type":"uint256","internalType":"uint256"}]},{"type":"error","name":"ERC20InsufficientBalance","inputs":[{"name":"sender","type":"address","internalType":"address"},{"name":"balance","type":"uint256","internalType":"uint256"},{"name":"needed","type":"uint256","internalType":"uint256"}]},{"type":"error","name":"ERC20InvalidApprover","inputs":[{"name":"approver","type":"address","internalType":"address"}]},{"type":"error","name":"ERC20InvalidReceiver","inputs":[{"name":"receiver","type":"address","internalType":"address"}]},{"type":"error","name":"ERC20InvalidSender","inputs":[{"name":"sender","type":"address","internalType":"address"}]},{"type":"error","name":"ERC20InvalidSpender","inputs":[{"name":"spender","type":"address","internalType":"address"}]}],"bytecode":{"object":"0x608060405234801562000010575f80fd5b50604051620016e7380380620016e78339810160408190526200003391620001b6565b6040518060400160405280600b81526020016a20b93c27a9902a37b5b2b760a91b815250604051806040016040528060048152602001634152584f60e01b815250816003908162000085919062000283565b50600462000094828262000283565b5050506001600160a01b038116620000f25760405162461bcd60e51b815260206004820152601660248201527f4172786f73546f6b656e3a207a65726f2061646d696e00000000000000000000604482015260640160405180910390fd5b620000fe5f8262000106565b50506200034f565b5f8281526005602090815260408083206001600160a01b038516845290915281205460ff16620001ad575f8381526005602090815260408083206001600160a01b03861684529091529020805460ff19166001179055620001643390565b6001600160a01b0316826001600160a01b0316847f2f8788117e7eff1d82e926ec794901d17c78024a50270940304540a733656f0d60405160405180910390a4506001620001b0565b505f5b92915050565b5f60208284031215620001c7575f80fd5b81516001600160a01b0381168114620001de575f80fd5b9392505050565b634e487b7160e01b5f52604160045260245ffd5b600181811c908216806200020e57607f821691505b6020821081036200022d57634e487b7160e01b5f52602260045260245ffd5b50919050565b601f8211156200027e57805f5260205f20601f840160051c810160208510156200025a5750805b601f840160051c820191505b818110156200027b575f815560010162000266565b50505b505050565b81516001600160401b038111156200029f576200029f620001e5565b620002b781620002b08454620001f9565b8462000233565b602080601f831160018114620002ed575f8415620002d55750858301515b5f19600386901b1c1916600185901b17855562000347565b5f85815260208120601f198616915b828110156200031d57888601518255948401946001909101908401620002fc565b50858210156200033b57878501515f19600388901b60f8161c191681555b505060018460011b0185555b505050505050565b61138a806200035d5f395ff3fe608060405234801561000f575f80fd5b5060043610610148575f3560e01c806340c10f19116100bf57806395d89b411161007957806395d89b41146102bd578063a217fddf146102c5578063a9059cbb146102cc578063d5391393146102df578063d547741f146102f3578063dd62ed3e14610306575f80fd5b806340c10f191461023657806342966c681461024957806370a082311461025c57806379cc6790146102845780637c88e3d91461029757806391d14854146102aa575f80fd5b806323b872dd1161011057806323b872dd146101b7578063248a9ca3146101ca5780632e620e7b146101ec5780632f2ff15d14610201578063313ce5671461021457806336568abe14610223575f80fd5b806301ffc9a71461014c57806306fdde0314610174578063095ea7b31461018957806318160ddd1461019c5780631cbdb6a1146101ae575b5f80fd5b61015f61015a366004610fc2565b61033e565b60405190151581526020015b60405180910390f35b61017c610374565b60405161016b9190610ff0565b61015f610197366004611057565b610404565b6002545b60405190815260200161016b565b6101a060065481565b61015f6101c536600461107f565b61041b565b6101a06101d83660046110b8565b5f9081526005602052604090206001015490565b6101ff6101fa3660046110cf565b61043e565b005b6101ff61020f366004611127565b6106db565b6040516012815260200161016b565b6101ff610231366004611127565b610705565b6101ff610244366004611057565b61073d565b6101ff6102573660046110b8565b6107ce565b6101a061026a366004611151565b6001600160a01b03165f9081526020819052604090205490565b6101ff610292366004611057565b61082f565b6101ff6102a53660046111b2565b6108aa565b61015f6102b8366004611127565b610ad2565b61017c610afc565b6101a05f81565b61015f6102da366004611057565b610b0b565b6101a05f8051602061133583398151915281565b6101ff610301366004611127565b610b18565b6101a0610314366004611219565b6001600160a01b039182165f90815260016020908152604080832093909416825291909152205490565b5f6001600160e01b03198216637965db0b60e01b148061036e57506301ffc9a760e01b6001600160e01b03198316145b92915050565b60606003805461038390611241565b80601f01602080910402602001604051908101604052809291908181526020018280546103af90611241565b80156103fa5780601f106103d1576101008083540402835291602001916103fa565b820191905f5260205f20905b8154815290600101906020018083116103dd57829003601f168201915b5050505050905090565b5f33610411818585610b3c565b5060019392505050565b5f33610428858285610b49565b610433858585610bbf565b506001949350505050565b5f8051602061133583398151915261045581610c1c565b6001600160a01b0386166104b05760405162461bcd60e51b815260206004820152601760248201527f4172786f73546f6b656e3a207a65726f20776f726b657200000000000000000060448201526064015b60405180910390fd5b6001600160a01b0385166105065760405162461bcd60e51b815260206004820152601960248201527f4172786f73546f6b656e3a207a65726f206275696c64696e670000000000000060448201526064016104a7565b6001600160a01b03841661055c5760405162461bcd60e51b815260206004820152601b60248201527f4172786f73546f6b656e3a207a65726f206d61696e7461696e6572000000000060448201526064016104a7565b6001600160a01b0383166105b25760405162461bcd60e51b815260206004820152601960248201527f4172786f73546f6b656e3a207a65726f2074726561737572790000000000000060448201526064016104a7565b5f82116105d15760405162461bcd60e51b81526004016104a790611279565b5f60646105df8460466112c4565b6105e991906112db565b90505f60646105f985600a6112c4565b61060391906112db565b90505f606461061386600a6112c4565b61061d91906112db565b90505f818361062c86896112fa565b61063691906112fa565b61064091906112fa565b905061064c8a85610c29565b6106568984610c29565b6106608883610c29565b61066a8782610c29565b8560065f82825461067b919061130d565b9091555050604080516001600160a01b03898116825260208201899052808b16928c821692918e16917ff0da0cd6e11bf406c6033030c6328cd43dda610fdb8800f17bf547fb58b969db910160405180910390a450505050505050505050565b5f828152600560205260409020600101546106f581610c1c565b6106ff8383610c61565b50505050565b6001600160a01b038116331461072e5760405163334bd91960e11b815260040160405180910390fd5b6107388282610cf2565b505050565b5f8051602061133583398151915261075481610c1c565b6001600160a01b0383166107a55760405162461bcd60e51b81526020600482015260186024820152774172786f73546f6b656e3a207a65726f206164647265737360401b60448201526064016104a7565b5f82116107c45760405162461bcd60e51b81526004016104a790611279565b6107388383610c29565b5f81116107ed5760405162461bcd60e51b81526004016104a790611279565b6107f73382610d5d565b60405181815233907ffd38818f5291bf0bb3a2a48aadc06ba8757865d1dabd804585338aab3009dcb69060200160405180910390a250565b5f811161084e5760405162461bcd60e51b81526004016104a790611279565b610859823383610b49565b6108638282610d5d565b816001600160a01b03167ffd38818f5291bf0bb3a2a48aadc06ba8757865d1dabd804585338aab3009dcb68260405161089e91815260200190565b60405180910390a25050565b5f805160206113358339815191526108c181610c1c565b8382146109105760405162461bcd60e51b815260206004820152601b60248201527f4172786f73546f6b656e3a206c656e677468206d69736d61746368000000000060448201526064016104a7565b8361095d5760405162461bcd60e51b815260206004820152601860248201527f4172786f73546f6b656e3a20656d70747920617272617973000000000000000060448201526064016104a7565b5f805b85811015610a8e575f87878381811061097b5761097b611320565b90506020020160208101906109909190611151565b6001600160a01b0316036109e15760405162461bcd60e51b81526020600482015260186024820152774172786f73546f6b656e3a207a65726f206164647265737360401b60448201526064016104a7565b5f8585838181106109f4576109f4611320565b9050602002013511610a185760405162461bcd60e51b81526004016104a790611279565b610a60878783818110610a2d57610a2d611320565b9050602002016020810190610a429190611151565b868684818110610a5457610a54611320565b90506020020135610c29565b848482818110610a7257610a72611320565b9050602002013582610a84919061130d565b9150600101610960565b50604080518281526020810187905233917f59f9fb6d992d2aee0ed338bb4c504a17fd3f67ae91a3135bc2ef947e308c41b2910160405180910390a2505050505050565b5f9182526005602090815260408084206001600160a01b0393909316845291905290205460ff1690565b60606004805461038390611241565b5f33610411818585610bbf565b5f82815260056020526040902060010154610b3281610c1c565b6106ff8383610cf2565b6107388383836001610d91565b6001600160a01b038381165f908152600160209081526040808320938616835292905220545f198110156106ff5781811015610bb157604051637dc7a0d960e11b81526001600160a01b038416600482015260248101829052604481018390526064016104a7565b6106ff84848484035f610d91565b6001600160a01b038316610be857604051634b637e8f60e11b81525f60048201526024016104a7565b6001600160a01b038216610c115760405163ec442f0560e01b81525f60048201526024016104a7565b610738838383610e63565b610c268133610f89565b50565b6001600160a01b038216610c525760405163ec442f0560e01b81525f60048201526024016104a7565b610c5d5f8383610e63565b5050565b5f610c6c8383610ad2565b610ceb575f8381526005602090815260408083206001600160a01b03861684529091529020805460ff19166001179055610ca33390565b6001600160a01b0316826001600160a01b0316847f2f8788117e7eff1d82e926ec794901d17c78024a50270940304540a733656f0d60405160405180910390a450600161036e565b505f61036e565b5f610cfd8383610ad2565b15610ceb575f8381526005602090815260408083206001600160a01b0386168085529252808320805460ff1916905551339286917ff6391f5c32d9c69d2a47ea670b442974b53935d1edc7fd64eb21e047a839171b9190a450600161036e565b6001600160a01b038216610d8657604051634b637e8f60e11b81525f60048201526024016104a7565b610c5d825f83610e63565b6001600160a01b038416610dba5760405163e602df0560e01b81525f60048201526024016104a7565b6001600160a01b038316610de357604051634a1406b160e11b81525f60048201526024016104a7565b6001600160a01b038085165f90815260016020908152604080832093871683529290522082905580156106ff57826001600160a01b0316846001600160a01b03167f8c5be1e5ebec7d5bd14f71427d1e84f3dd0314c0f7b2291e5b200ac8c7c3b92584604051610e5591815260200190565b60405180910390a350505050565b6001600160a01b038316610e8d578060025f828254610e82919061130d565b90915550610efd9050565b6001600160a01b0383165f9081526020819052604090205481811015610edf5760405163391434e360e21b81526001600160a01b038516600482015260248101829052604481018390526064016104a7565b6001600160a01b0384165f9081526020819052604090209082900390555b6001600160a01b038216610f1957600280548290039055610f37565b6001600160a01b0382165f9081526020819052604090208054820190555b816001600160a01b0316836001600160a01b03167fddf252ad1be2c89b69c2b068fc378daa952ba7f163c4a11628f55a4df523b3ef83604051610f7c91815260200190565b60405180910390a3505050565b610f938282610ad2565b610c5d5760405163e2517d3f60e01b81526001600160a01b0382166004820152602481018390526044016104a7565b5f60208284031215610fd2575f80fd5b81356001600160e01b031981168114610fe9575f80fd5b9392505050565b5f602080835283518060208501525f5b8181101561101c57858101830151858201604001528201611000565b505f604082860101526040601f19601f8301168501019250505092915050565b80356001600160a01b0381168114611052575f80fd5b919050565b5f8060408385031215611068575f80fd5b6110718361103c565b946020939093013593505050565b5f805f60608486031215611091575f80fd5b61109a8461103c565b92506110a86020850161103c565b9150604084013590509250925092565b5f602082840312156110c8575f80fd5b5035919050565b5f805f805f60a086880312156110e3575f80fd5b6110ec8661103c565b94506110fa6020870161103c565b93506111086040870161103c565b92506111166060870161103c565b949793965091946080013592915050565b5f8060408385031215611138575f80fd5b823591506111486020840161103c565b90509250929050565b5f60208284031215611161575f80fd5b610fe98261103c565b5f8083601f84011261117a575f80fd5b50813567ffffffffffffffff811115611191575f80fd5b6020830191508360208260051b85010111156111ab575f80fd5b9250929050565b5f805f80604085870312156111c5575f80fd5b843567ffffffffffffffff808211156111dc575f80fd5b6111e88883890161116a565b90965094506020870135915080821115611200575f80fd5b5061120d8782880161116a565b95989497509550505050565b5f806040838503121561122a575f80fd5b6112338361103c565b91506111486020840161103c565b600181811c9082168061125557607f821691505b60208210810361127357634e487b7160e01b5f52602260045260245ffd5b50919050565b60208082526017908201527f4172786f73546f6b656e3a207a65726f20616d6f756e74000000000000000000604082015260600190565b634e487b7160e01b5f52601160045260245ffd5b808202811582820484141761036e5761036e6112b0565b5f826112f557634e487b7160e01b5f52601260045260245ffd5b500490565b8181038181111561036e5761036e6112b0565b8082018082111561036e5761036e6112b0565b634e487b7160e01b5f52603260045260245ffdfe9f2df0fed2c77648de5860a4cc508cd0818c85b8b8a1ab4ceeef8d981c8956a6a26469706673582212206c7717783ea92e702f4b6913b897eb08b441cde2cb663c7fcdf374fd171d985864736f6c63430008180033","linkReferences":{}},"methodIdentifiers":{"DEFAULT_ADMIN_ROLE()":"a217fddf","MINTER_ROLE()":"d5391393","allowance(address,address)":"dd62ed3e","approve(address,uint256)":"095ea7b3","balanceOf(address)":"70a08231","burn(uint256)":"42966c68","burnFrom(address,uint256)":"79cc6790","decimals()":"313ce567","getRoleAdmin(bytes32)":"248a9ca3","grantRole(bytes32,address)":"2f2ff15d","hasRole(bytes32,address)":"91d14854","mint(address,uint256)":"40c10f19","mintBatch(address[],uint256[])":"7c88e3d9","mintContribution(address,address,address,address,uint256)":"2e620e7b","name()":"06fdde03","renounceRole(bytes32,address)":"36568abe","revokeRole(bytes32,address)":"d547741f","supportsInterface(bytes4)":"01ffc9a7","symbol()":"95d89b41","totalContributedValue()":"1cbdb6a1","totalSupply()":"18160ddd","transfer(address,uint256)":"a9059cbb","transferFrom(address,address,uint256)":"23b872dd"},"id":53}