{"abi":[{"type":"constructor","inputs":[{"name":"admin","type":"address","internalType":"address"}],"stateMutability":"nonpayable"},{"type":"function","name":"CANCEL_AUTHORIZATION_TYPEHASH","inputs":[],"outputs":[{"name":"","type":"bytes32","internalType":"bytes32"}],"stateMutability":"view"},{"type":"function","name":"DEFAULT_ADMIN_ROLE","inputs":[],"outputs":[{"name":"","type":"bytes32","internalType":"bytes32"}],"stateMutability":"view"},{"type":"function","name":"MINTER_ROLE","inputs":[],"outputs":[{"name":"","type":"bytes32","internalType":"bytes32"}],"stateMutability":"view"},{"type":"function","name":"RECEIVE_WITH_AUTHORIZATION_TYPEHASH","inputs":[],"outputs":[{"name":"","type":"bytes32","internalType":"bytes32"}],"stateMutability":"view"},{"type":"function","name":"TRANSFER_WITH_AUTHORIZATION_TYPEHASH","inputs":[],"outputs":[{"name":"","type":"bytes32","internalType":"bytes32"}],"stateMutability":"view"},{"type":"function","name":"allowance","inputs":[{"name":"owner","type":"address","internalType":"address"},{"name":"spender","type":"address","internalType":"address"}],"outputs":[{"name":"","type":"uint256","internalType":"uint256"}],"stateMutability":"view"},{"type":"function","name":"approve","inputs":[{"name":"spender","type":"address","internalType":"address"},{"name":"value","type":"uint256","internalType":"uint256"}],"outputs":[{"name":"","type":"bool","internalType":"bool"}],"stateMutability":"nonpayable"},{"type":"function","name":"balanceOf","inputs":[{"name":"account","type":"address","internalType":"address"}],"outputs":[{"name":"","type":"uint256","internalType":"uint256"}],"stateMutability":"view"},{"type":"function","name":"buildingDailyCap","inputs":[],"outputs":[{"name":"","type":"uint256","internalType":"uint256"}],"stateMutability":"view"},{"type":"function","name":"burn","inputs":[{"name":"amount","type":"uint256","internalType":"uint256"}],"outputs":[],"stateMutability":"nonpayable"},{"type":"function","name":"burnFrom","inputs":[{"name":"from","type":"address","internalType":"address"},{"name":"amount","type":"uint256","internalType":"uint256"}],"outputs":[],"stateMutability":"nonpayable"},{"type":"function","name":"cancelAuthorization","inputs":[{"name":"authorizer","type":"address","internalType":"address"},{"name":"nonce","type":"bytes32","internalType":"bytes32"},{"name":"v","type":"uint8","internalType":"uint8"},{"name":"r","type":"bytes32","internalType":"bytes32"},{"name":"s","type":"bytes32","internalType":"bytes32"}],"outputs":[],"stateMutability":"nonpayable"},{"type":"function","name":"decimals","inputs":[],"outputs":[{"name":"","type":"uint8","internalType":"uint8"}],"stateMutability":"pure"},{"type":"function","name":"eip712Domain","inputs":[],"outputs":[{"name":"fields","type":"bytes1","internalType":"bytes1"},{"name":"name","type":"string","internalType":"string"},{"name":"version","type":"string","internalType":"string"},{"name":"chainId","type":"uint256","internalType":"uint256"},{"name":"verifyingContract","type":"address","internalType":"address"},{"name":"salt","type":"bytes32","internalType":"bytes32"},{"name":"extensions","type":"uint256[]","internalType":"uint256[]"}],"stateMutability":"view"},{"type":"function","name":"emergencyPause","inputs":[],"outputs":[{"name":"","type":"bool","internalType":"bool"}],"stateMutability":"view"},{"type":"function","name":"getRoleAdmin","inputs":[{"name":"role","type":"bytes32","internalType":"bytes32"}],"outputs":[{"name":"","type":"bytes32","internalType":"bytes32"}],"stateMutability":"view"},{"type":"function","name":"grantRole","inputs":[{"name":"role","type":"bytes32","internalType":"bytes32"},{"name":"account","type":"address","internalType":"address"}],"outputs":[],"stateMutability":"nonpayable"},{"type":"function","name":"hasRole","inputs":[{"name":"role","type":"bytes32","internalType":"bytes32"},{"name":"account","type":"address","internalType":"address"}],"outputs":[{"name":"","type":"bool","internalType":"bool"}],"stateMutability":"view"},{"type":"function","name":"mint","inputs":[{"name":"to","type":"address","internalType":"address"},{"name":"amount","type":"uint256","internalType":"uint256"}],"outputs":[],"stateMutability":"nonpayable"},{"type":"function","name":"mintBatch","inputs":[{"name":"recipients","type":"address[]","internalType":"address[]"},{"name":"amounts","type":"uint256[]","internalType":"uint256[]"}],"outputs":[],"stateMutability":"nonpayable"},{"type":"function","name":"mintContribution","inputs":[{"name":"worker","type":"address","internalType":"address"},{"name":"building","type":"address","internalType":"address"},{"name":"maintainer","type":"address","internalType":"address"},{"name":"treasury","type":"address","internalType":"address"},{"name":"totalAmount","type":"uint256","internalType":"uint256"}],"outputs":[],"stateMutability":"nonpayable"},{"type":"function","name":"name","inputs":[],"outputs":[{"name":"","type":"string","internalType":"string"}],"stateMutability":"view"},{"type":"function","name":"receiveWithAuthorization","inputs":[{"name":"from","type":"address","internalType":"address"},{"name":"to","type":"address","internalType":"address"},{"name":"value","type":"uint256","internalType":"uint256"},{"name":"validAfter","type":"uint256","internalType":"uint256"},{"name":"validBefore","type":"uint256","internalType":"uint256"},{"name":"nonce","type":"bytes32","internalType":"bytes32"},{"name":"v","type":"uint8","internalType":"uint8"},{"name":"r","type":"bytes32","internalType":"bytes32"},{"name":"s","type":"bytes32","internalType":"bytes32"}],"outputs":[],"stateMutability":"nonpayable"},{"type":"function","name":"renounceRole","inputs":[{"name":"role","type":"bytes32","internalType":"bytes32"},{"name":"callerConfirmation","type":"address","internalType":"address"}],"outputs":[],"stateMutability":"nonpayable"},{"type":"function","name":"revokeRole","inputs":[{"name":"role","type":"bytes32","internalType":"bytes32"},{"name":"account","type":"address","internalType":"address"}],"outputs":[],"stateMutability":"nonpayable"},{"type":"function","name":"setDailyCaps","inputs":[{"name":"newBuildingCap","type":"uint256","internalType":"uint256"},{"name":"newWorkerCap","type":"uint256","internalType":"uint256"}],"outputs":[],"stateMutability":"nonpayable"},{"type":"function","name":"setEmergencyPause","inputs":[{"name":"paused","type":"bool","internalType":"bool"}],"outputs":[],"stateMutability":"nonpayable"},{"type":"function","name":"supportsInterface","inputs":[{"name":"interfaceId","type":"bytes4","internalType":"bytes4"}],"outputs":[{"name":"","type":"bool","internalType":"bool"}],"stateMutability":"view"},{"type":"function","name":"symbol","inputs":[],"outputs":[{"name":"","type":"string","internalType":"string"}],"stateMutability":"view"},{"type":"function","name":"totalContributedValue","inputs":[],"outputs":[{"name":"","type":"uint256","internalType":"uint256"}],"stateMutability":"view"},{"type":"function","name":"totalSupply","inputs":[],"outputs":[{"name":"","type":"uint256","internalType":"uint256"}],"stateMutability":"view"},{"type":"function","name":"transfer","inputs":[{"name":"to","type":"address","internalType":"address"},{"name":"value","type":"uint256","internalType":"uint256"}],"outputs":[{"name":"","type":"bool","internalType":"bool"}],"stateMutability":"nonpayable"},{"type":"function","name":"transferFrom","inputs":[{"name":"from","type":"address","internalType":"address"},{"name":"to","type":"address","internalType":"address"},{"name":"value","type":"uint256","internalType":"uint256"}],"outputs":[{"name":"","type":"bool","internalType":"bool"}],"stateMutability":"nonpayable"},{"type":"function","name":"transferWithAuthorization","inputs":[{"name":"from","type":"address","internalType":"address"},{"name":"to","type":"address","internalType":"address"},{"name":"value","type":"uint256","internalType":"uint256"},{"name":"validAfter","type":"uint256","internalType":"uint256"},{"name":"validBefore","type":"uint256","internalType":"uint256"},{"name":"nonce","type":"bytes32","internalType":"bytes32"},{"name":"v","type":"uint8","internalType":"uint8"},{"name":"r","type":"bytes32","internalType":"bytes32"},{"name":"s","type":"bytes32","internalType":"bytes32"}],"outputs":[],"stateMutability":"nonpayable"},{"type":"function","name":"workerDailyCap","inputs":[],"outputs":[{"name":"","type":"uint256","internalType":"uint256"}],"stateMutability":"view"},{"type":"event","name":"Approval","inputs":[{"name":"owner","type":"address","indexed":true,"internalType":"address"},{"name":"spender","type":"address","indexed":true,"internalType":"address"},{"name":"value","type":"uint256","indexed":false,"internalType":"uint256"}],"anonymous":false},{"type":"event","name":"AuthorizationCanceled","inputs":[{"name":"authorizer","type":"address","indexed":true,"internalType":"address"},{"name":"nonce","type":"bytes32","indexed":true,"internalType":"bytes32"}],"anonymous":false},{"type":"event","name":"AuthorizationUsed","inputs":[{"name":"authorizer","type":"address","indexed":true,"internalType":"address"},{"name":"nonce","type":"bytes32","indexed":true,"internalType":"bytes32"}],"anonymous":false},{"type":"event","name":"BatchMinted","inputs":[{"name":"minter","type":"address","indexed":true,"internalType":"address"},{"name":"totalAmount","type":"uint256","indexed":false,"internalType":"uint256"},{"name":"recipientCount","type":"uint256","indexed":false,"internalType":"uint256"}],"anonymous":false},{"type":"event","name":"ContributionMinted","inputs":[{"name":"worker","type":"address","indexed":true,"internalType":"address"},{"name":"building","type":"address","indexed":true,"internalType":"address"},{"name":"maintainer","type":"address","indexed":true,"internalType":"address"},{"name":"treasury","type":"address","indexed":false,"internalType":"address"},{"name":"totalAmount","type":"uint256","indexed":false,"internalType":"uint256"}],"anonymous":false},{"type":"event","name":"DailyCapsUpdated","inputs":[{"name":"buildingCap","type":"uint256","indexed":false,"internalType":"uint256"},{"name":"workerCap","type":"uint256","indexed":false,"internalType":"uint256"}],"anonymous":false},{"type":"event","name":"EIP712DomainChanged","inputs":[],"anonymous":false},{"type":"event","name":"EmergencyPauseSet","inputs":[{"name":"caller","type":"address","indexed":true,"internalType":"address"},{"name":"paused","type":"bool","indexed":false,"internalType":"bool"}],"anonymous":false},{"type":"event","name":"RoleAdminChanged","inputs":[{"name":"role","type":"bytes32","indexed":true,"internalType":"bytes32"},{"name":"previousAdminRole","type":"bytes32","indexed":true,"internalType":"bytes32"},{"name":"newAdminRole","type":"bytes32","indexed":true,"internalType":"bytes32"}],"anonymous":false},{"type":"event","name":"RoleGranted","inputs":[{"name":"role","type":"bytes32","indexed":true,"internalType":"bytes32"},{"name":"account","type":"address","indexed":true,"internalType":"address"},{"name":"sender","type":"address","indexed":true,"internalType":"address"}],"anonymous":false},{"type":"event","name":"RoleRevoked","inputs":[{"name":"role","type":"bytes32","indexed":true,"internalType":"bytes32"},{"name":"account","type":"address","indexed":true,"internalType":"address"},{"name":"sender","type":"address","indexed":true,"internalType":"address"}],"anonymous":false},{"type":"event","name":"TokensBurned","inputs":[{"name":"burner","type":"address","indexed":true,"internalType":"address"},{"name":"amount","type":"uint256","indexed":false,"internalType":"uint256"}],"anonymous":false},{"type":"event","name":"Transfer","inputs":[{"name":"from","type":"address","indexed":true,"internalType":"address"},{"name":"to","type":"address","indexed":true,"internalType":"address"},{"name":"value","type":"uint256","indexed":false,"internalType":"uint256"}],"anonymous":false},{"type":"error","name":"AccessControlBadConfirmation","inputs":[]},{"type":"error","name":"AccessControlUnauthorizedAccount","inputs":[{"name":"account","type":"address","internalType":"address"},{"name":"neededRole","type":"bytes32","internalType":"bytes32"}]},{"type":"error","name":"ECDSAInvalidSignature","inputs":[]},{"type":"error","name":"ECDSAInvalidSignatureLength","inputs":[{"name":"length","type":"uint256","internalType":"uint256"}]},{"type":"error","name":"ECDSAInvalidSignatureS","inputs":[{"name":"s","type":"bytes32","internalType":"bytes32"}]},{"type":"error","name":"ERC20InsufficientAllowance","inputs":[{"name":"spender","type":"address","internalType":"address"},{"name":"allowance","type":"uint256","internalType":"uint256"},{"name":"needed","type":"uint256","internalType":"uint256"}]},{"type":"error","name":"ERC20InsufficientBalance","inputs":[{"name":"sender","type":"address","internalType":"address"},{"name":"balance","type":"uint256","internalType":"uint256"},{"name":"needed","type":"uint256","internalType":"uint256"}]},{"type":"error","name":"ERC20InvalidApprover","inputs":[{"name":"approver","type":"address","internalType":"address"}]},{"type":"error","name":"ERC20InvalidReceiver","inputs":[{"name":"receiver","type":"address","internalType":"address"}]},{"type":"error","name":"ERC20InvalidSender","inputs":[{"name":"sender","type":"address","internalType":"address"}]},{"type":"error","name":"ERC20InvalidSpender","inputs":[{"name":"spender","type":"address","internalType":"address"}]},{"type":"error","name":"InvalidShortString","inputs":[]},{"type":"error","name":"StringTooLong","inputs":[{"name":"str","type":"string","internalType":"string"}]}],"bytecode":{"object":"0x610160346200052957601f620030e638819003918201601f19168301916001600160401b038311848410176200030a578084926020946040528339810103126200052957516001600160a01b0381168103620005295760405162000063816200052d565b600b81526a20b93c27a9902a37b5b2b760a91b91826020830152604051916200008c836200052d565b60018352603160f81b602084015260405193620000a9856200052d565b600b8552602085015260405193620000c1856200052d565b60048552634152584f60e01b60208601528051906001600160401b0382116200030a5760035490600182811c921680156200051e575b6020831014620003f75781601f849311620004ab575b50602090601f831160011462000422575f9262000416575b50508160011b915f199060031b1c1916176003555b83516001600160401b0381116200030a57600454600181811c911680156200040b575b6020821014620003f757601f811162000393575b50602094601f82116001146200032a579481929394955f926200031e575b50508160011b915f199060031b1c1916176004555b620001af81620005cb565b91610120928352620001c18462000786565b9161014092835260208151910120938460e0526020815191012093610100948086524660a0526040519060208201927f8b73c3c69bb8fe3d512ecc4cf759cc79239f7b179b0ffacaa9a75d522b39400f8452604083015260608201524660808201523060a082015260a0815260c081019181831060018060401b038411176200030a576040839052815190206080523060c0525f196009819055600a556001600160a01b03831615620002c65750506200027b9062000549565b5060405191612792938462000934853960805184612314015260a051846123e0015260c051846122e5015260e0518461236301525183612389015251826108aa015251816108d30152f35b62461bcd60e51b8252602060c4820152601660e48201527f4172786f73546f6b656e3a207a65726f2061646d696e0000000000000000000061010490910152606490fd5b634e487b7160e01b5f52604160045260245ffd5b015190505f806200018f565b601f1982169560045f5260205f20915f5b8881106200037a5750836001959697981062000361575b505050811b01600455620001a4565b01515f1960f88460031b161c191690555f808062000352565b919260206001819286850151815501940192016200033b565b60045f527f8a35acfbc15ff81a39ae7d344fd709f28e8600b4aa8c65c6b64bfe7fe36bd19b601f830160051c810160208410620003ef575b601f830160051c82018110620003e357505062000171565b5f8155600101620003cb565b5080620003cb565b634e487b7160e01b5f52602260045260245ffd5b90607f16906200015d565b015190505f8062000125565b60035f9081527fc2575a0e9e593c00f959f8c92f12db2869c3395a3b0502d05e2516446f71f85b9350601f198516905b81811062000492575090846001959493921062000479575b505050811b016003556200013a565b01515f1960f88460031b161c191690555f80806200046a565b9293602060018192878601518155019501930162000452565b60035f529091507fc2575a0e9e593c00f959f8c92f12db2869c3395a3b0502d05e2516446f71f85b601f840160051c8101916020851062000513575b90601f859493920160051c01905b8181106200050457506200010d565b5f8155849350600101620004f5565b9091508190620004e7565b91607f1691620000f7565b5f80fd5b604081019081106001600160401b038211176200030a57604052565b6001600160a01b03165f8181525f80516020620030c6833981519152602052604090205460ff16620005c6575f8181525f80516020620030c683398151915260205260408120805460ff191660011790553391907f2f8788117e7eff1d82e926ec794901d17c78024a50270940304540a733656f0d8180a4600190565b505f90565b805160209081811015620006655750601f825111620006065780825192015190808310620005f857501790565b825f19910360031b1b161790565b90604051809263305a27a960e01b82528060048301528251908160248401525f935b8285106200064b575050604492505f838284010152601f80199101168101030190fd5b848101820151868601604401529381019385935062000628565b906001600160401b0382116200030a57600654926001938481811c911680156200077b575b83821014620003f757601f811162000744575b5081601f8411600114620006dc57509282939183925f94620006d0575b50501b915f199060031b1c19161760065560ff90565b015192505f80620006ba565b919083601f19811660065f52845f20945f905b8883831062000729575050501062000710575b505050811b0160065560ff90565b01515f1960f88460031b161c191690555f808062000702565b858701518855909601959485019487935090810190620006ef565b60065f5284601f845f20920160051c820191601f860160051c015b8281106200076f5750506200069d565b5f81550185906200075f565b90607f16906200068a565b805160209081811015620008125750601f825111620007b35780825192015190808310620005f857501790565b90604051809263305a27a960e01b82528060048301528251908160248401525f935b828510620007f8575050604492505f838284010152601f80199101168101030190fd5b8481018201518686016044015293810193859350620007d5565b906001600160401b0382116200030a57600754926001938481811c9116801562000928575b83821014620003f757601f8111620008f1575b5081601f84116001146200088957509282939183925f946200087d575b50501b915f199060031b1c19161760075560ff90565b015192505f8062000867565b919083601f19811660075f52845f20945f905b88838310620008d65750505010620008bd575b505050811b0160075560ff90565b01515f1960f88460031b161c191690555f8080620008af565b8587015188559096019594850194879350908101906200089c565b60075f5284601f845f20920160051c820191601f860160051c015b8281106200091c5750506200084a565b5f81550185906200090c565b90607f16906200083756fe608060409080825260049182361015610016575f80fd5b60e0915f35831c90816301ffc9a7146115815750806306fdde03146114af578063095ea7b3146113c757806318160ddd146113a95780631cbdb6a11461138b57806323b872dd1461134f578063248a9ca3146113245780632e620e7b14610ff35780632f2ff15d14610fca578063313ce56714610faf57806336568abe14610f4457806340c10f1914610edd57806342966c6814610e8757806351858e2714610e645780635a049a7014610ca857806370a0823114610c6557806379cc679014610be75780637c88e3d914610a1e5780637f2eecc3146109e457806384b0196e1461089257806391d148541461083f57806395d89b4114610753578063a0cc6a6814610719578063a217fddf146106ff578063a9059cbb146106cf578063cac57fc8146106b1578063d539139314610677578063d547741f1461063c578063d8d1a657146105da578063d9169487146105a0578063dd62ed3e14610549578063e3ee160e1461043e578063e3ee8ad014610389578063e7f59b811461036b5763ef55bec6146101a3575f80fd5b34610367576101b1366116f9565b91929698949599939a73ffffffffffffffffffffffffffffffffffffffff94858b16913383036102ff57508b908d4211156101eb90611a73565b884210156101f890611ae4565b868b169d8e998a5f52600d602052895f208c5f52602052895f205460ff16156102209061197f565b89519360208501957fd099cc98ef71107a616c4f0f941f04c322d8e254fe26b3c6668db87aae413de887528c8c8701526060860152608085015260a084015260c083015289818301528152610274816117f9565b5190206102809061228d565b9261028a93612406565b610293916124a0565b168015156102f3986102ac92826102f5575b50506119ca565b815f52600d602052805f20835f526020525f20600160ff198254161790557f98de503528ee59b575ef0c0a2576a82497bfc029a5685b209e9ec333479b10a55f80a3611ca9565b005b149050835f6102a5565b608490602089519162461bcd60e51b83528201526024808201527f4172786f73546f6b656e3a2063616c6c6572206d75737420626520746865207060448201527f61796565000000000000000000000000000000000000000000000000000000006064820152fd5b5f80fd5b5034610367575f600319360112610367576020906009549051908152f35b8382346103675780600319360112610367577f7a085c31898a2c988c8b57b2d7fc25136eb65a6d6bf605c0a17237d0922606009135602435906103ca611e78565b8061043857507fffffffffffffffffffffffffffffffffffffffffffffffffffffffffffffffff905b8160095580155f1461043357507fffffffffffffffffffffffffffffffffffffffffffffffffffffffffffffffff5b80600a5582519182526020820152a1005b610422565b906103f3565b5090346103675761044e366116f9565b90849a949993969998979842111561046590611a73565b8542101561047290611ae4565b888a73ffffffffffffffffffffffffffffffffffffffff95868b169d8e998a5f52600d602052895f208c5f52602052895f205460ff16156104b29061197f565b8951938960208601967f7c7c6cdb67a18743f49ec6fa9b35f50d52ed05cbed4cc592e13b44501c1a226788528d8d880152166060860152608085015260a084015260c083015289818301528152610508816117f9565b5190206105149061228d565b9261051e93612406565b610527916124a0565b168015156102f3986102ac928261053f5750506119ca565b149050838a6102a5565b5034610367578060031936011261036757602090610565611682565b61056d6116a5565b9073ffffffffffffffffffffffffffffffffffffffff8091165f5260018452825f2091165f528252805f20549051908152f35b5034610367575f60031936011261036757602090517f158b0a9edf7a828aad02f63cd515c68ef2f50ba807396f6d12842833a15974298152f35b50823461036757602060031936011261036757359081151580920361036757610601611e78565b60ff196008541660ff831617600855519081527f923b7fb61d18691694612114493d5fecfaeb65f0efd3ea28714013eadcf6a9aa60203392a2005b8382346103675780600319360112610367576102f3913561067260016106606116a5565b93835f5260056020525f200154611ee6565b612139565b5034610367575f60031936011261036757602090517f9f2df0fed2c77648de5860a4cc508cd0818c85b8b8a1ab4ceeef8d981c8956a68152f35b5034610367575f60031936011261036757602090600a549051908152f35b50346103675780600319360112610367576020906106f86106ee611682565b6024359033611ca9565b5160018152f35b5034610367575f60031936011261036757602090515f8152f35b5034610367575f60031936011261036757602090517f7c7c6cdb67a18743f49ec6fa9b35f50d52ed05cbed4cc592e13b44501c1a22678152f35b508234610367575f60031936011261036757815191825f83546107758161175f565b90818452602095600191876001821691825f146108185750506001146107bc575b5050506107b892916107a9910385611816565b5192828493845283019061163f565b0390f35b5f90815286935091907f8a35acfbc15ff81a39ae7d344fd709f28e8600b4aa8c65c6b64bfe7fe36bd19b5b82841061080057505050820101816107a96107b8610796565b8054848a0186015288955087949093019281016107e7565b60ff19168782015293151560051b860190930193508492506107a991506107b89050610796565b83823461036757806003193601126103675760209161085c6116a5565b90355f526005835273ffffffffffffffffffffffffffffffffffffffff825f2091165f52825260ff815f20541690519015158152f35b50829034610367575f600319360112610367576108ce7f0000000000000000000000000000000000000000000000000000000000000000612585565b6108f77f000000000000000000000000000000000000000000000000000000000000000061269f565b91805192602092602085019585871067ffffffffffffffff8811176109b8575095949391806020928661096d93525f85526109608251998a997f0f000000000000000000000000000000000000000000000000000000000000008b5280878c01528a019061163f565b918883039089015261163f565b914660608701523060808701525f60a087015285830360c087015251918281520192915f5b8281106109a157505050500390f35b835185528695509381019392810192600101610992565b6041907f4e487b71000000000000000000000000000000000000000000000000000000005f525260245ffd5b5034610367575f60031936011261036757602090517fd099cc98ef71107a616c4f0f941f04c322d8e254fe26b3c6668db87aae413de88152f35b83823461036757806003193601126103675767ffffffffffffffff823581811161036757610a4f90369085016116c8565b9160243590811161036757610a6790369086016116c8565b9094610a71611de6565b610a8060ff6008541615611857565b818403610ba4578315610b61575093905f945f925b848410610acf57867f59f9fb6d992d2aee0ed338bb4c504a17fd3f67ae91a3135bc2ef947e308c41b28787815193845260208401523392a2005b90919295610b57600191610b0c73ffffffffffffffffffffffffffffffffffffffff610b04610aff8c8b8b611a15565b611a52565b161515611934565b610b22610b1a8a8787611a15565b3515156118a2565b610b45610b33610aff8b8a8a611a15565b610b3e8b8888611a15565b3590612043565b610b50898686611a15565b3590611927565b9601929190610a95565b606490602086519162461bcd60e51b8352820152601860248201527f4172786f73546f6b656e3a20656d7074792061727261797300000000000000006044820152fd5b606490602086519162461bcd60e51b8352820152601b60248201527f4172786f73546f6b656e3a206c656e677468206d69736d6174636800000000006044820152fd5b50346103675780600319360112610367577ffd38818f5291bf0bb3a2a48aadc06ba8757865d1dabd804585338aab3009dcb6602073ffffffffffffffffffffffffffffffffffffffff610c38611682565b60243594610c478615156118a2565b610c52863384611b55565b610c5c86836121bb565b519485521692a2005b50346103675760206003193601126103675760209073ffffffffffffffffffffffffffffffffffffffff610c97611682565b165f525f8252805f20549051908152f35b5082346103675760a060031936011261036757610cc3611682565b91602435926044359260ff841684036103675773ffffffffffffffffffffffffffffffffffffffff80921693338503610dfb57845f52600d602052835f20865f52602052610d1760ff855f2054161561197f565b83519060208201927f158b0a9edf7a828aad02f63cd515c68ef2f50ba807396f6d12842833a15974298452868684015287606084015260608352608083019083821067ffffffffffffffff8311176109b8575092610d9b92610d9292610dad96958852610d8d608435936064359351902061228d565b612406565b909291926124a0565b16838115159182610df15750506119ca565b815f52600d602052805f20835f526020525f20600160ff198254161790557f1cdd46ff242716cdaa72d159d339a485b3438398348d68f09d7c8c0a59353d815f80a3005b14905083866102a5565b608482602086519162461bcd60e51b8352820152602960248201527f4172786f73546f6b656e3a2063616c6c6572206d75737420626520746865206160448201527f7574686f72697a657200000000000000000000000000000000000000000000006064820152fd5b5034610367575f6003193601126103675760209060ff6008541690519015158152f35b508234610367576020600319360112610367573590610ea78215156118a2565b610eb182336121bb565b519081527ffd38818f5291bf0bb3a2a48aadc06ba8757865d1dabd804585338aab3009dcb660203392a2005b503461036757600319360112610367576102f3610ef8611682565b60243590610f04611de6565b610f1360ff6008541615611857565b610f3473ffffffffffffffffffffffffffffffffffffffff82161515611934565b610f3f8215156118a2565b612043565b838234610367578060031936011261036757610f5e6116a5565b903373ffffffffffffffffffffffffffffffffffffffff831603610f8757506102f39135612139565b9050517f6697b232000000000000000000000000000000000000000000000000000000008152fd5b5034610367575f600319360112610367576020905160128152f35b8382346103675780600319360112610367576102f39135610fee60016106606116a5565b6120ad565b8382346103675760a06003193601126103675761100e611682565b906110176116a5565b926044359173ffffffffffffffffffffffffffffffffffffffff91828416948585036103675760649485359085821693848303610367576084359361105a611de6565b61106960ff6008541615611857565b8781169788156112e2578b169889156112a2578a1561126257861561122257851561109481156118a2565b604687028781046046148217156111f65782900493600a880291888304600a1417156111ca575093610f3f848c9d9e610f3f6111ae99978e9f977ff0da0cd6e11bf406c6033030c6328cd43dda610fdb8800f17bf547fb58b969db9f9a8f610f3f9a8f611117906111126111129d610f3f9604809e819c82946118ed565b6118ed565b9d5f52600c602052611164825f2086600a54855192611135846117b0565b600684527f776f726b657200000000000000000000000000000000000000000000000000006020850152611f08565b5f52600b60205286815f209160095490519261117f846117b0565b600884527f6275696c64696e670000000000000000000000000000000000000000000000006020850152611f08565b6111ba81600e54611927565b600e5582519182526020820152a4005b6011907f4e487b71000000000000000000000000000000000000000000000000000000005f525260245ffd5b6011857f4e487b71000000000000000000000000000000000000000000000000000000005f525260245ffd5b875162461bcd60e51b8152602081850152601960248201527f4172786f73546f6b656e3a207a65726f207472656173757279000000000000006044820152fd5b875162461bcd60e51b8152602081850152601b60248201527f4172786f73546f6b656e3a207a65726f206d61696e7461696e657200000000006044820152fd5b875162461bcd60e51b8152602081850152601960248201527f4172786f73546f6b656e3a207a65726f206275696c64696e67000000000000006044820152fd5b898360208a519162461bcd60e51b8352820152601760248201527f4172786f73546f6b656e3a207a65726f20776f726b65720000000000000000006044820152fd5b83823461036757602060031936011261036757602091355f52600582526001815f2001549051908152f35b5034610367576060600319360112610367576020906106f861136f611682565b6113776116a5565b60443591611386833383611b55565b611ca9565b5034610367575f60031936011261036757602090600e549051908152f35b5034610367575f600319360112610367576020906002549051908152f35b8382346103675780600319360112610367576113e1611682565b6024359033156114805773ffffffffffffffffffffffffffffffffffffffff169081156114515760209350335f5260018452825f20825f52845280835f205582519081527f8c5be1e5ebec7d5bd14f71427d1e84f3dd0314c0f7b2291e5b200ac8c7c3b925843392a35160018152f35b6024845f8551917f94280d62000000000000000000000000000000000000000000000000000000008352820152fd5b6024845f8551917fe602df05000000000000000000000000000000000000000000000000000000008352820152fd5b5034610367575f6003193601126103675780516003549091825f6114d28461175f565b808352602094600190866001821691825f1461155f575050600114611504575b50506107b892916107a9910385611816565b9085925060035f527fc2575a0e9e593c00f959f8c92f12db2869c3395a3b0502d05e2516446f71f85b915f925b82841061154757505050820101816107a96114f2565b8054848a018601528895508794909301928101611531565b60ff19168682015292151560051b850190920192508391506107a990506114f2565b84346103675760206003193601126103675735907fffffffff00000000000000000000000000000000000000000000000000000000821680920361036757817f7965db0b00000000000000000000000000000000000000000000000000000000602093149081156115f4575b5015158152f35b7f01ffc9a700000000000000000000000000000000000000000000000000000000915014836115ed565b5f5b83811061162f5750505f910152565b8181015183820152602001611620565b907fffffffffffffffffffffffffffffffffffffffffffffffffffffffffffffffe0601f60209361167b8151809281875287808801910161161e565b0116010190565b6004359073ffffffffffffffffffffffffffffffffffffffff8216820361036757565b6024359073ffffffffffffffffffffffffffffffffffffffff8216820361036757565b9181601f840112156103675782359167ffffffffffffffff8311610367576020808501948460051b01011161036757565b6003196101209101126103675773ffffffffffffffffffffffffffffffffffffffff90600435828116810361036757916024359081168103610367579060443590606435906084359060a4359060c43560ff81168103610367579060e435906101043590565b90600182811c921680156117a6575b602083101461177957565b7f4e487b71000000000000000000000000000000000000000000000000000000005f52602260045260245ffd5b91607f169161176e565b6040810190811067ffffffffffffffff8211176117cc57604052565b7f4e487b71000000000000000000000000000000000000000000000000000000005f52604160045260245ffd5b610100810190811067ffffffffffffffff8211176117cc57604052565b90601f7fffffffffffffffffffffffffffffffffffffffffffffffffffffffffffffffe0910116810190811067ffffffffffffffff8211176117cc57604052565b1561185e57565b606460405162461bcd60e51b815260206004820152601260248201527f4172786f73546f6b656e3a2070617573656400000000000000000000000000006044820152fd5b156118a957565b606460405162461bcd60e51b815260206004820152601760248201527f4172786f73546f6b656e3a207a65726f20616d6f756e740000000000000000006044820152fd5b919082039182116118fa57565b7f4e487b71000000000000000000000000000000000000000000000000000000005f52601160045260245ffd5b919082018092116118fa57565b1561193b57565b606460405162461bcd60e51b815260206004820152601860248201527f4172786f73546f6b656e3a207a65726f206164647265737300000000000000006044820152fd5b1561198657565b606460405162461bcd60e51b815260206004820152601e60248201527f4172786f73546f6b656e3a20617574686f72697a6174696f6e207573656400006044820152fd5b156119d157565b606460405162461bcd60e51b815260206004820152601d60248201527f4172786f73546f6b656e3a20696e76616c6964207369676e61747572650000006044820152fd5b9190811015611a255760051b0190565b7f4e487b71000000000000000000000000000000000000000000000000000000005f52603260045260245ffd5b3573ffffffffffffffffffffffffffffffffffffffff811681036103675790565b15611a7a57565b608460405162461bcd60e51b815260206004820152602160248201527f4172786f73546f6b656e3a20617574686f72697a6174696f6e2065787069726560448201527f64000000000000000000000000000000000000000000000000000000000000006064820152fd5b15611aeb57565b608460405162461bcd60e51b815260206004820152602760248201527f4172786f73546f6b656e3a20617574686f72697a6174696f6e206e6f7420796560448201527f742076616c6964000000000000000000000000000000000000000000000000006064820152fd5b919073ffffffffffffffffffffffffffffffffffffffff80931692835f526001602052604093845f2091831691825f52602052845f2054927fffffffffffffffffffffffffffffffffffffffffffffffffffffffffffffffff8410611bbd575b505050505050565b848410611c4f57508015611c20578115611bf1575f526001602052835f20905f5260205203905f20555f8080808080611bb5565b602485517f94280d620000000000000000000000000000000000000000000000000000000081525f6004820152fd5b602485517fe602df050000000000000000000000000000000000000000000000000000000081525f6004820152fd5b85517ffb8f41b200000000000000000000000000000000000000000000000000000000815273ffffffffffffffffffffffffffffffffffffffff9190911660048201526024810184905260448101859052606490fd5b0390fd5b9173ffffffffffffffffffffffffffffffffffffffff808416928315611db65716928315611d8657825f525f60205260405f205490828210611d2e5750817fddf252ad1be2c89b69c2b068fc378daa952ba7f163c4a11628f55a4df523b3ef92602092855f525f84520360405f2055845f5260405f20818154019055604051908152a3565b6040517fe450d38c00000000000000000000000000000000000000000000000000000000815273ffffffffffffffffffffffffffffffffffffffff919091166004820152602481019190915260448101829052606490fd5b60246040517fec442f050000000000000000000000000000000000000000000000000000000081525f6004820152fd5b60246040517f96c6fd1e0000000000000000000000000000000000000000000000000000000081525f6004820152fd5b335f9081527f15a28d26fa1bf736cf7edc9922607171ccb09c3c73b808e7772a3013e068a52260205260409020547f9f2df0fed2c77648de5860a4cc508cd0818c85b8b8a1ab4ceeef8d981c8956a69060ff1615611e415750565b604490604051907fe2517d3f0000000000000000000000000000000000000000000000000000000082523360048301526024820152fd5b335f9081527f05b8ccbb9d4d8fb16ea74ce3c29a41f1b461fbdaff4714a0d9a8eb05499746bc602052604090205460ff1615611eb057565b60446040517fe2517d3f0000000000000000000000000000000000000000000000000000000081523360048201525f6024820152fd5b805f52600560205260405f20335f5260205260ff60405f20541615611e415750565b919290927fffffffffffffffffffffffffffffffffffffffffffffffffffffffffffffffff841461203d57611f639067ffffffffffffffff806201518042041660018601918183549182161061200c575b5050508354611927565b92611fde603660405180947f4172786f73546f6b656e3a2000000000000000000000000000000000000000006020830152611fa8815180926020602c8601910161161e565b81017f206461696c792063617000000000000000000000000000000000000000000000602c820152036016810185520183611816565b8311611fe8575055565b611ca59060405191829162461bcd60e51b835260206004840152602483019061163f565b7fffffffffffffffffffffffffffffffffffffffffffffffff0000000000000000905f8855161790555f8080611f59565b50505050565b73ffffffffffffffffffffffffffffffffffffffff16908115611d86577fddf252ad1be2c89b69c2b068fc378daa952ba7f163c4a11628f55a4df523b3ef6020826120915f94600254611927565b60025584845283825260408420818154019055604051908152a3565b90815f52600560205273ffffffffffffffffffffffffffffffffffffffff60405f20911690815f5260205260ff60405f205416155f1461213357815f52600560205260405f20815f5260205260405f20600160ff1982541617905533917f2f8788117e7eff1d82e926ec794901d17c78024a50270940304540a733656f0d5f80a4600190565b50505f90565b90815f52600560205273ffffffffffffffffffffffffffffffffffffffff60405f20911690815f5260205260ff60405f2054165f1461213357815f52600560205260405f20815f5260205260405f2060ff19815416905533917ff6391f5c32d9c69d2a47ea670b442974b53935d1edc7fd64eb21e047a839171b5f80a4600190565b919073ffffffffffffffffffffffffffffffffffffffff8316908115611db657815f525f60205260405f20549381851061223557506020817fddf252ad1be2c89b69c2b068fc378daa952ba7f163c4a11628f55a4df523b3ef925f95968587528684520360408620558060025403600255604051908152a3565b6040517fe450d38c00000000000000000000000000000000000000000000000000000000815273ffffffffffffffffffffffffffffffffffffffff919091166004820152602481018590526044810191909152606490fd5b6042906122986122ce565b90604051917f19010000000000000000000000000000000000000000000000000000000000008352600283015260228201522090565b73ffffffffffffffffffffffffffffffffffffffff7f0000000000000000000000000000000000000000000000000000000000000000163014806123dd575b15612336577f000000000000000000000000000000000000000000000000000000000000000090565b60405160208101907f8b73c3c69bb8fe3d512ecc4cf759cc79239f7b179b0ffacaa9a75d522b39400f82527f000000000000000000000000000000000000000000000000000000000000000060408201527f000000000000000000000000000000000000000000000000000000000000000060608201524660808201523060a082015260a0815260c0810181811067ffffffffffffffff8211176117cc5760405251902090565b507f0000000000000000000000000000000000000000000000000000000000000000461461230d565b91907f7fffffffffffffffffffffffffffffff5d576e7357a4501ddfe92f46681b20a08411612495579160209360809260ff5f9560405194855216868401526040830152606082015282805260015afa1561248a575f5173ffffffffffffffffffffffffffffffffffffffff81161561248057905f905f90565b505f906001905f90565b6040513d5f823e3d90fd5b5050505f9160039190565b600481101561255857806124b2575050565b600181036124e45760046040517ff645eedf000000000000000000000000000000000000000000000000000000008152fd5b6002810361251d57602482604051907ffce698f70000000000000000000000000000000000000000000000000000000082526004820152fd5b6003146125275750565b602490604051907fd78bce0c0000000000000000000000000000000000000000000000000000000082526004820152fd5b7f4e487b71000000000000000000000000000000000000000000000000000000005f52602160045260245ffd5b60ff81146125db5760ff811690601f82116125b157604051916125a7836117b0565b8252602082015290565b60046040517fb3512b0c000000000000000000000000000000000000000000000000000000008152fd5b50604051600654815f6125ed8361175f565b8083529260209060019081811690811561267a575060011461261b575b505061261892500382611816565b90565b91509260065f527ff652222313e28459528d920b65115c16c04f3efc82aaedc97be59f3f377c0d3f935f925b82841061266257506126189450505081016020015f8061260a565b85548785018301529485019486945092810192612647565b90506020935061261895925060ff1991501682840152151560051b8201015f8061260a565b60ff81146126c15760ff811690601f82116125b157604051916125a7836117b0565b50604051600754815f6126d38361175f565b8083529260209060019081811690811561267a57506001146126fd57505061261892500382611816565b91509260075f527fa66cc928b5edb82af9bd49922954155ab7b0942694bea4ce44661d9a8736c688935f925b82841061274457506126189450505081016020015f8061260a565b8554878501830152948501948694509281019261272956fea264697066735822122000b101807317661c60589d3d8051c020f15172e4a457744c57a715711db403d764736f6c6343000818003305b8ccbb9d4d8fb16ea74ce3c29a41f1b461fbdaff4714a0d9a8eb05499746bc","linkReferences":{}},"methodIdentifiers":{"CANCEL_AUTHORIZATION_TYPEHASH()":"d9169487","DEFAULT_ADMIN_ROLE()":"a217fddf","MINTER_ROLE()":"d5391393","RECEIVE_WITH_AUTHORIZATION_TYPEHASH()":"7f2eecc3","TRANSFER_WITH_AUTHORIZATION_TYPEHASH()":"a0cc6a68","allowance(address,address)":"dd62ed3e","approve(address,uint256)":"095ea7b3","balanceOf(address)":"70a08231","buildingDailyCap()":"e7f59b81","burn(uint256)":"42966c68","burnFrom(address,uint256)":"79cc6790","cancelAuthorization(address,bytes32,uint8,bytes32,bytes32)":"5a049a70","decimals()":"313ce567","eip712Domain()":"84b0196e","emergencyPause()":"51858e27","getRoleAdmin(bytes32)":"248a9ca3","grantRole(bytes32,address)":"2f2ff15d","hasRole(bytes32,address)":"91d14854","mint(address,uint256)":"40c10f19","mintBatch(address[],uint256[])":"7c88e3d9","mintContribution(address,address,address,address,uint256)":"2e620e7b","name()":"06fdde03","receiveWithAuthorization(address,address,uint256,uint256,uint256,bytes32,uint8,bytes32,bytes32)":"ef55bec6","renounceRole(bytes32,address)":"36568abe","revokeRole(bytes32,address)":"d547741f","setDailyCaps(uint256,uint256)":"e3ee8ad0","setEmergencyPause(bool)":"d8d1a657","supportsInterface(bytes4)":"01ffc9a7","symbol()":"95d89b41","totalContributedValue()":"1cbdb6a1","totalSupply()":"18160ddd","transfer(address,uint256)":"a9059cbb","transferFrom(address,address,uint256)":"23b872dd","transferWithAuthorization(address,address,uint256,uint256,uint256,bytes32,uint8,bytes32,bytes32)":"e3ee160e","workerDailyCap()":"cac57fc8"},"id":52}