{"abi":[{"type":"constructor","inputs":[{"name":"admin","type":"address","internalType":"address"},{"name":"_arxoToken","type":"address","internalType":"address"},{"name":"_oracle","type":"address","internalType":"address"},{"name":"_staking","type":"address","internalType":"address"}],"stateMutability":"nonpayable"},{"type":"function","name":"DEFAULT_ADMIN_ROLE","inputs":[],"outputs":[{"name":"","type":"bytes32","internalType":"bytes32"}],"stateMutability":"view"},{"type":"function","name":"DISPUTER_ROLE","inputs":[],"outputs":[{"name":"","type":"bytes32","internalType":"bytes32"}],"stateMutability":"view"},{"type":"function","name":"MIN_JURORS","inputs":[],"outputs":[{"name":"","type":"uint256","internalType":"uint256"}],"stateMutability":"view"},{"type":"function","name":"VOTING_WINDOW","inputs":[],"outputs":[{"name":"","type":"uint256","internalType":"uint256"}],"stateMutability":"view"},{"type":"function","name":"arxoToken","inputs":[],"outputs":[{"name":"","type":"address","internalType":"contract IERC20"}],"stateMutability":"view"},{"type":"function","name":"commitVote","inputs":[{"name":"contributionId","type":"bytes32","internalType":"bytes32"},{"name":"commitHash","type":"bytes32","internalType":"bytes32"}],"outputs":[],"stateMutability":"nonpayable"},{"type":"function","name":"disputeBondAmount","inputs":[],"outputs":[{"name":"","type":"uint256","internalType":"uint256"}],"stateMutability":"view"},{"type":"function","name":"disputes","inputs":[{"name":"","type":"bytes32","internalType":"bytes32"}],"outputs":[{"name":"contributionId","type":"bytes32","internalType":"bytes32"},{"name":"disputer","type":"address","internalType":"address"},{"name":"reason","type":"string","internalType":"string"},{"name":"createdAt","type":"uint256","internalType":"uint256"},{"name":"status","type":"uint8","internalType":"enum ArxDisputeResolver.DisputeStatus"},{"name":"ruling","type":"uint8","internalType":"enum ArxDisputeResolver.Ruling"},{"name":"invalidVotes","type":"uint256","internalType":"uint256"},{"name":"validVotes","type":"uint256","internalType":"uint256"},{"name":"totalWeight","type":"uint256","internalType":"uint256"}],"stateMutability":"view"},{"type":"function","name":"getRoleAdmin","inputs":[{"name":"role","type":"bytes32","internalType":"bytes32"}],"outputs":[{"name":"","type":"bytes32","internalType":"bytes32"}],"stateMutability":"view"},{"type":"function","name":"grantRole","inputs":[{"name":"role","type":"bytes32","internalType":"bytes32"},{"name":"account","type":"address","internalType":"address"}],"outputs":[],"stateMutability":"nonpayable"},{"type":"function","name":"hasRole","inputs":[{"name":"role","type":"bytes32","internalType":"bytes32"},{"name":"account","type":"address","internalType":"address"}],"outputs":[{"name":"","type":"bool","internalType":"bool"}],"stateMutability":"view"},{"type":"function","name":"oracle","inputs":[],"outputs":[{"name":"","type":"address","internalType":"contract ArxContributionOracle"}],"stateMutability":"view"},{"type":"function","name":"raiseDispute","inputs":[{"name":"contributionId","type":"bytes32","internalType":"bytes32"},{"name":"reason","type":"string","internalType":"string"}],"outputs":[],"stateMutability":"nonpayable"},{"type":"function","name":"renounceRole","inputs":[{"name":"role","type":"bytes32","internalType":"bytes32"},{"name":"callerConfirmation","type":"address","internalType":"address"}],"outputs":[],"stateMutability":"nonpayable"},{"type":"function","name":"resolveDispute","inputs":[{"name":"contributionId","type":"bytes32","internalType":"bytes32"}],"outputs":[],"stateMutability":"nonpayable"},{"type":"function","name":"revealVote","inputs":[{"name":"contributionId","type":"bytes32","internalType":"bytes32"},{"name":"vote","type":"bool","internalType":"bool"},{"name":"salt","type":"uint256","internalType":"uint256"}],"outputs":[],"stateMutability":"nonpayable"},{"type":"function","name":"revokeRole","inputs":[{"name":"role","type":"bytes32","internalType":"bytes32"},{"name":"account","type":"address","internalType":"address"}],"outputs":[],"stateMutability":"nonpayable"},{"type":"function","name":"setBondAmount","inputs":[{"name":"amount","type":"uint256","internalType":"uint256"}],"outputs":[],"stateMutability":"nonpayable"},{"type":"function","name":"staking","inputs":[],"outputs":[{"name":"","type":"address","internalType":"contract ArxOracleStaking"}],"stateMutability":"view"},{"type":"function","name":"submitEvidence","inputs":[{"name":"contributionId","type":"bytes32","internalType":"bytes32"},{"name":"ipfsCid","type":"string","internalType":"string"}],"outputs":[],"stateMutability":"nonpayable"},{"type":"function","name":"supportsInterface","inputs":[{"name":"interfaceId","type":"bytes4","internalType":"bytes4"}],"outputs":[{"name":"","type":"bool","internalType":"bool"}],"stateMutability":"view"},{"type":"function","name":"votes","inputs":[{"name":"","type":"bytes32","internalType":"bytes32"},{"name":"","type":"address","internalType":"address"}],"outputs":[{"name":"commitHash","type":"bytes32","internalType":"bytes32"},{"name":"revealed","type":"bool","internalType":"bool"},{"name":"vote","type":"bool","internalType":"bool"}],"stateMutability":"view"},{"type":"event","name":"DisputeRaised","inputs":[{"name":"contributionId","type":"bytes32","indexed":true,"internalType":"bytes32"},{"name":"disputer","type":"address","indexed":true,"internalType":"address"},{"name":"reason","type":"string","indexed":false,"internalType":"string"}],"anonymous":false},{"type":"event","name":"DisputeResolved","inputs":[{"name":"contributionId","type":"bytes32","indexed":true,"internalType":"bytes32"},{"name":"ruling","type":"uint8","indexed":false,"internalType":"enum ArxDisputeResolver.Ruling"}],"anonymous":false},{"type":"event","name":"EvidenceSubmitted","inputs":[{"name":"contributionId","type":"bytes32","indexed":true,"internalType":"bytes32"},{"name":"submitter","type":"address","indexed":true,"internalType":"address"},{"name":"ipfsCid","type":"string","indexed":false,"internalType":"string"}],"anonymous":false},{"type":"event","name":"RoleAdminChanged","inputs":[{"name":"role","type":"bytes32","indexed":true,"internalType":"bytes32"},{"name":"previousAdminRole","type":"bytes32","indexed":true,"internalType":"bytes32"},{"name":"newAdminRole","type":"bytes32","indexed":true,"internalType":"bytes32"}],"anonymous":false},{"type":"event","name":"RoleGranted","inputs":[{"name":"role","type":"bytes32","indexed":true,"internalType":"bytes32"},{"name":"account","type":"address","indexed":true,"internalType":"address"},{"name":"sender","type":"address","indexed":true,"internalType":"address"}],"anonymous":false},{"type":"event","name":"RoleRevoked","inputs":[{"name":"role","type":"bytes32","indexed":true,"internalType":"bytes32"},{"name":"account","type":"address","indexed":true,"internalType":"address"},{"name":"sender","type":"address","indexed":true,"internalType":"address"}],"anonymous":false},{"type":"event","name":"VoteCommitted","inputs":[{"name":"contributionId","type":"bytes32","indexed":true,"internalType":"bytes32"},{"name":"juror","type":"address","indexed":true,"internalType":"address"}],"anonymous":false},{"type":"event","name":"VoteRevealed","inputs":[{"name":"contributionId","type":"bytes32","indexed":true,"internalType":"bytes32"},{"name":"juror","type":"address","indexed":true,"internalType":"address"},{"name":"vote","type":"bool","indexed":false,"internalType":"bool"},{"name":"weight","type":"uint256","indexed":false,"internalType":"uint256"}],"anonymous":false},{"type":"error","name":"AccessControlBadConfirmation","inputs":[]},{"type":"error","name":"AccessControlUnauthorizedAccount","inputs":[{"name":"account","type":"address","internalType":"address"},{"name":"neededRole","type":"bytes32","internalType":"bytes32"}]},{"type":"error","name":"ReentrancyGuardReentrantCall","inputs":[]}],"bytecode":{"object":"0x60e034620001d657601f62001f2738819003918201601f1916830191906001600160401b03831184841017620001da578160809285926040958652833981010312620001d6576200005082620001ee565b6200005e60208401620001ee565b62000079606062000071858701620001ee565b9501620001ee565b9060017f9b779b17422d0df92223018b32b4d1fa46e071723d6817e2486d003becc55f0055681b1ae4d6e2ef50000060015560018060a01b03809116948515620001a55781169182156200017357169081156200014057620000e5939460805260a05260c05262000203565b5051611c8190816200028682396080518181816102540152818161037e0152818161053601526107fd015260a0518181816103ae01528181610566015281816107010152610f53015260c051818181610fdd01526110880152f35b835162461bcd60e51b815260206004820152600c60248201526b5a65726f207374616b696e6760a01b6044820152606490fd5b845162461bcd60e51b815260206004820152600b60248201526a5a65726f206f7261636c6560a81b6044820152606490fd5b845162461bcd60e51b815260206004820152600a6024820152692d32b937903a37b5b2b760b11b6044820152606490fd5b5f80fd5b634e487b7160e01b5f52604160045260245ffd5b51906001600160a01b0382168203620001d657565b6001600160a01b03165f8181525f8051602062001f07833981519152602052604090205460ff1662000280575f8181525f8051602062001f0783398151915260205260408120805460ff191660011790553391907f2f8788117e7eff1d82e926ec794901d17c78024a50270940304540a733656f0d8180a4600190565b505f9056fe6080806040526004361015610012575f80fd5b5f905f3560e01c90816301ffc9a7146118195750806311be199714611687578063248a9ca31461165b578063249a44b7146113a957806328f9f3e6146113245780632f2ff15d146112f65780633173cd26146112d957806336568abe146112795780633bbd2235146110015780634cf088d914610fb15780637540821914610f775780637dc0d1d014610f2757806391d1485414610ede5780639386775a14610e7c57806397f03f1c14610e5f578063a217fddf14610e45578063be7b8a77146106d0578063c8218e3e14610278578063cf9bc12e14610227578063d547741f146101f4578063eaff425a146101d85763f48a0b3114610110575f80fd5b346101d55761011e36611966565b828493929352600260205260ff60046040862001541660048110156101c15760010361017d576101777f1e6474820c020bb520fb11114c39535d390708f81e19f7661698a4686193447a91604051918291339683611a68565b0390a380f35b606460405162461bcd60e51b815260206004820152601460248201527f4e6f7420696e20766f74696e6720706572696f640000000000000000000000006044820152fd5b602485634e487b7160e01b81526021600452fd5b80fd5b50346101d557806003193601126101d557602060405160028152f35b50346101d55761022361020636611933565b908084528360205261021e6001604086200154611a8f565b611b71565b5080f35b50346101d557806003193601126101d557602060405173ffffffffffffffffffffffffffffffffffffffff7f0000000000000000000000000000000000000000000000000000000000000000168152f35b50346101d55760208060031936011261049857600435610296611bf1565b808352600282526040832091600483019060ff825416936004851015610646576102c360018096146119b3565b60038101546202a30081018091116106bc5742106106785760026007820154105f1461065a5784925b6102f68482611a2c565b600260ff198254161790556003831015610646578486918185145f146104df57505073ffffffffffffffffffffffffffffffffffffffff8554604051907fa9059cbb00000000000000000000000000000000000000000000000000000000825273610178da211fef7d417bc0e6fed39f05609ad78860048301526024820152838160448186867f0000000000000000000000000000000000000000000000000000000000000000165af180156104d45761049c575b507f000000000000000000000000000000000000000000000000000000000000000016803b15610498578180916044604051809481937f43a0e3e60000000000000000000000000000000000000000000000000000000083528a60048401528b60248401525af1801561048d57610475575b50507f0a168b993fc74606982b54f62facd64a9642fc31797b78c5b503b4116f3c8388915b61044f6040518092611926565ba27f9b779b17422d0df92223018b32b4d1fa46e071723d6817e2486d003becc55f005580f35b61047e906118ef565b61048957845f61041d565b8480fd5b6040513d84823e3d90fd5b5080fd5b8381813d83116104cd575b6104b18183611903565b810103126104c9576104c2906119fe565b505f6103ab565b8280fd5b503d6104a7565b6040513d85823e3d90fd5b73ffffffffffffffffffffffffffffffffffffffff9182910154168654604051917fa9059cbb00000000000000000000000000000000000000000000000000000000835260048301526024820152838160448186867f0000000000000000000000000000000000000000000000000000000000000000165af180156104d457610612575b507f000000000000000000000000000000000000000000000000000000000000000016803b15610498578180916044604051809481937f43a0e3e60000000000000000000000000000000000000000000000000000000083528a60048401528160248401525af1801561048d576105fe575b50507f0a168b993fc74606982b54f62facd64a9642fc31797b78c5b503b4116f3c838891610442565b610607906118ef565b61048957845f6105d5565b8381813d831161063f575b6106278183611903565b810103126104c957610638906119fe565b505f610563565b503d61061d565b602486634e487b7160e01b81526021600452fd5b60068101546005820154116106705784926102ec565b6002926102ec565b6064826040519062461bcd60e51b82526004820152601260248201527f566f74652077696e646f772061637469766500000000000000000000000000006044820152fd5b602487634e487b7160e01b81526011600452fd5b5034610c39576106df36611966565b6106ea929192611bf1565b73ffffffffffffffffffffffffffffffffffffffff7f0000000000000000000000000000000000000000000000000000000000000000166040517fb0fa0db900000000000000000000000000000000000000000000000000000000815283600482015260c081602481855afa908115610cbb575f905f92610dea575b5015610da657610d6257825f52600260205260ff600460405f200154166004811015610d4e57610d0a57825f526002602052600360405f200154610cc657600154604051907f23b872dd00000000000000000000000000000000000000000000000000000000825233600483015230602483015260448201526020816064815f73ffffffffffffffffffffffffffffffffffffffff7f0000000000000000000000000000000000000000000000000000000000000000165af1908115610cbb575f91610c81575b5015610c3d57803b15610c39575f80916044604051809481937fd21c71120000000000000000000000000000000000000000000000000000000083528860048401523360248401525af19081610c26575b506108c757606460405162461bcd60e51b815260206004820152601460248201527f4f7261636c6520757064617465206661696c65640000000000000000000000006044820152fd5b604051610120810181811067ffffffffffffffff821117610c125760405282815233602082015267ffffffffffffffff8211610bfe576040516109146020601f19601f8601160182611903565b8281523683860111610bfa578285602083013785602084830101526040820152426060820152600160808201528460a08201528460c08201528460e08201528461010082015282855260026020526040852090805182556001820173ffffffffffffffffffffffffffffffffffffffff6020830151167fffffffffffffffffffffffff0000000000000000000000000000000000000000825416179055604081015180519067ffffffffffffffff8211610be65781906109d760028601546118b7565b601f8111610b96575b50602090601f8311600114610b09578992610afe575b50507fffffffffffffffffffffffffffffffffffffffffffffffffffffffffffffffff8260011b9260031b1c19161760028301555b606081015160038301556004820160808201516004811015610aea5760ff60ff19835416911617815560a0820151906003821015610aea576101007f49e53fd224357020766ce272815e8a15c300aace14a011cfcded9335798fbd0e9593610a99610ac09694600794611a2c565b60c0810151600585015560e081015160068501550151910155604051918291339683611a68565b0390a360017f9b779b17422d0df92223018b32b4d1fa46e071723d6817e2486d003becc55f005580f35b602488634e487b7160e01b81526021600452fd5b015190505f806109f6565b9250600285018952602089209089935b601f1984168510610b7b576001945083601f19811610610b44575b505050811b016002830155610a2b565b01517fffffffffffffffffffffffffffffffffffffffffffffffffffffffffffffffff60f88460031b161c191690555f8080610b34565b81810151835560209485019460019093019290910190610b19565b90915060028501895260208920601f840160051c810160208510610bdf575b90849392915b601f830160051c82018110610bd15750506109e0565b8b8155859450600101610bbb565b5080610bb5565b602488634e487b7160e01b81526041600452fd5b8580fd5b602485634e487b7160e01b81526041600452fd5b634e487b7160e01b5f52604160045260245ffd5b610c319195506118ef565b5f935f61087e565b5f80fd5b606460405162461bcd60e51b815260206004820152601460248201527f426f6e64207472616e73666572206661696c65640000000000000000000000006044820152fd5b90506020813d602011610cb3575b81610c9c60209383611903565b81010312610c3957610cad906119fe565b5f61082d565b3d9150610c8f565b6040513d5f823e3d90fd5b606460405162461bcd60e51b815260206004820152601660248201527f4469737075746520616c726561647920616374697665000000000000000000006044820152fd5b606460405162461bcd60e51b815260206004820152601660248201527f4469737075746520616c726561647920657869737473000000000000000000006044820152fd5b634e487b7160e01b5f52602160045260245ffd5b606460405162461bcd60e51b815260206004820152601160248201527f416c72656164792066696e616c697a65640000000000000000000000000000006044820152fd5b606460405162461bcd60e51b815260206004820152601660248201527f436f6e747269627574696f6e206e6f7420666f756e64000000000000000000006044820152fd5b91505060c0813d60c011610e3d575b81610e0660c09383611903565b81010312610c3957610e1781611a0b565b50610e2460208201611a0b565b50610e3660a0608083015192016119fe565b905f610766565b3d9150610df9565b34610c39575f600319360112610c395760206040515f8152f35b34610c39575f600319360112610c39576020600154604051908152f35b34610c3957610e8a36611933565b905f52600360205273ffffffffffffffffffffffffffffffffffffffff60405f2091165f52602052606060405f2060ff600182549201546040519283528181161515602084015260081c1615156040820152f35b34610c3957610eec36611933565b905f525f60205273ffffffffffffffffffffffffffffffffffffffff60405f2091165f52602052602060ff60405f2054166040519015158152f35b34610c39575f600319360112610c3957602060405173ffffffffffffffffffffffffffffffffffffffff7f0000000000000000000000000000000000000000000000000000000000000000168152f35b34610c39575f600319360112610c395760206040517fba291b016b54325d4ba91b6b61c37a98438bf460915c4e6dec8badd647f524438152f35b34610c39575f600319360112610c3957602060405173ffffffffffffffffffffffffffffffffffffffff7f0000000000000000000000000000000000000000000000000000000000000000168152f35b34610c39576040600319360112610c3957600435602490805f5260206002815260ff600460405f20015416600481101561126657600161104191146119b3565b6040517f0f373afd0000000000000000000000000000000000000000000000000000000081523360048201528181858173ffffffffffffffffffffffffffffffffffffffff7f0000000000000000000000000000000000000000000000000000000000000000165afa908115610cbb575f91611231575b50156111ee57815f526003815260405f20335f52815260405f20546111ab57604051906060820182811067ffffffffffffffff821117611198579361117093946040523582526001818301925f845260408101925f8452865f526003815260405f2090335f525260405f2090518155019151151560ff60ff1984541691161782555115157fffffffffffffffffffffffffffffffffffffffffffffffffffffffffffff00ff61ff00835492151560081b169116179055565b33907f9cd4aacbdbc254c07a57c349c331b572681203cd9a05fa9526df11f60921b9b45f80a3005b84634e487b7160e01b5f5260416004525ffd5b606490600d846040519262461bcd60e51b845260048401528201527f416c726561647920766f746564000000000000000000000000000000000000006044820152fd5b6064906015846040519262461bcd60e51b845260048401528201527f4d757374206265207374616b6564206f7261636c6500000000000000000000006044820152fd5b90508181813d831161125f575b6112488183611903565b81010312610c3957611259906119fe565b846110b8565b503d61123e565b83634e487b7160e01b5f5260216004525ffd5b34610c395761128736611933565b3373ffffffffffffffffffffffffffffffffffffffff8216036112af576112ad91611b71565b005b60046040517f6697b232000000000000000000000000000000000000000000000000000000008152fd5b34610c39575f600319360112610c395760206040516202a3008152f35b34610c39576112ad61130736611933565b90805f525f60205261131f600160405f200154611a8f565b611ae7565b34610c39576020600319360112610c3957335f9081527fad3228b676f7d3cd4284a5443f17f1962b36e491b30a40b2405849e597ba5fb5602052604090205460ff161561137357600435600155005b60446040517fe2517d3f0000000000000000000000000000000000000000000000000000000081523360048201525f6024820152fd5b34610c39576060600319360112610c3957600435602490813580151592838203610c3957825f526020906002825260ff600460405f20015416926004841015611648576113f960018095146119b3565b845f526003835260405f20335f52835260405f2080549081156116055785019081549060ff82166115c257604051868101918a60f81b8352604435602183015260218252606082019282841067ffffffffffffffff8511176115af5783604052825190200361156f5750507fffffffffffffffffffffffffffffffffffffffffffffffffffffffffffff00ff86167fffffffffffffffffffffffffffffffffffffffffffffffffffffffffffff00009091161782151560081b61ff00161790551561154e57835f5260028252600660405f200180549084820180921161153b57555b835f5260028252600760405f20018054918483018093116115295750556040519384528301527f5babe416f4a4a6cab9473fd08b163caa77a065b11966ede9a3feeb0e06f88be660403393a3005b634e487b7160e01b5f5260116004525ffd5b82634e487b7160e01b5f5260116004525ffd5b835f5260028252600560405f200180549084820180921161153b57556114db565b907f48617368206d69736d617463680000000000000000000000000000000000000060a46064938962461bcd60e51b855285820152600d60848201520152fd5b87634e487b7160e01b5f5260416004525ffd5b6064866010876040519262461bcd60e51b845260048401528201527f416c72656164792072657665616c6564000000000000000000000000000000006044820152fd5b6064856011866040519262461bcd60e51b845260048401528201527f4e6f20766f746520636f6d6d69747465640000000000000000000000000000006044820152fd5b50634e487b7160e01b5f5260216004525ffd5b34610c39576020600319360112610c39576004355f525f6020526020600160405f200154604051908152f35b34610c3957602080600319360112610c39576004355f526002815260405f209081549060019273ffffffffffffffffffffffffffffffffffffffff600182015416936002820160405180925f908354936116e0856118b7565b94858552886001821691825f146117f65750506001146117ba575b505061170992500382611903565b60038201549360048301549160ff831693600581015495600760068301549201549260405199610120958b52828b01528460408b0152805180958b01525f5b8581106117a557505050610140965f88858b01015260608901526004851015610d4e57879561178c601f95601f199760808a015260ff60a08a019160081c16611926565b60c087015260e086015261010085015201168101030190f35b8181018301518b820161014001528201611748565b8792505f52815f20905f915b8583106117de575050611709935082010188806116fb565b805483880185015286945088939092019181016117c6565b9150935061170995925060ff1991501682840152151560051b82010188806116fb565b34610c39576020600319360112610c3957600435907fffffffff000000000000000000000000000000000000000000000000000000008216809203610c3957817f7965db0b000000000000000000000000000000000000000000000000000000006020931490811561188d575b5015158152f35b7f01ffc9a70000000000000000000000000000000000000000000000000000000091501483611886565b90600182811c921680156118e5575b60208310146118d157565b634e487b7160e01b5f52602260045260245ffd5b91607f16916118c6565b67ffffffffffffffff8111610c1257604052565b90601f601f19910116810190811067ffffffffffffffff821117610c1257604052565b906003821015610d4e5752565b6003196040910112610c39576004359060243573ffffffffffffffffffffffffffffffffffffffff81168103610c395790565b6040600319820112610c39576004359160243567ffffffffffffffff92838211610c395780602383011215610c39578160040135938411610c395760248483010111610c39576024019190565b156119ba57565b606460405162461bcd60e51b815260206004820152600a60248201527f4e6f7420766f74696e67000000000000000000000000000000000000000000006044820152fd5b51908115158203610c3957565b519073ffffffffffffffffffffffffffffffffffffffff82168203610c3957565b906003811015610d4e577fffffffffffffffffffffffffffffffffffffffffffffffffffffffffffff00ff61ff0083549260081b169116179055565b90601f83604094601f199360208652816020870152868601375f8582860101520116010190565b805f525f60205260405f20335f5260205260ff60405f20541615611ab05750565b604490604051907fe2517d3f0000000000000000000000000000000000000000000000000000000082523360048301526024820152fd5b90815f525f60205273ffffffffffffffffffffffffffffffffffffffff60405f20911690815f5260205260ff60405f205416155f14611b6b57815f525f60205260405f20815f5260205260405f20600160ff1982541617905533917f2f8788117e7eff1d82e926ec794901d17c78024a50270940304540a733656f0d5f80a4600190565b50505f90565b90815f525f60205273ffffffffffffffffffffffffffffffffffffffff60405f20911690815f5260205260ff60405f2054165f14611b6b57815f525f60205260405f20815f5260205260405f2060ff19815416905533917ff6391f5c32d9c69d2a47ea670b442974b53935d1edc7fd64eb21e047a839171b5f80a4600190565b7f9b779b17422d0df92223018b32b4d1fa46e071723d6817e2486d003becc55f006002815414611c215760029055565b60046040517f3ee5aeb5000000000000000000000000000000000000000000000000000000008152fdfea2646970667358221220e111048fbbc33f67205be541a65a40ab2e39bd2aa943f9ae0a57bf2a62e7950864736f6c63430008180033ad3228b676f7d3cd4284a5443f17f1962b36e491b30a40b2405849e597ba5fb5","linkReferences":{}},"methodIdentifiers":{"DEFAULT_ADMIN_ROLE()":"a217fddf","DISPUTER_ROLE()":"75408219","MIN_JURORS()":"eaff425a","VOTING_WINDOW()":"3173cd26","arxoToken()":"cf9bc12e","commitVote(bytes32,bytes32)":"3bbd2235","disputeBondAmount()":"97f03f1c","disputes(bytes32)":"11be1997","getRoleAdmin(bytes32)":"248a9ca3","grantRole(bytes32,address)":"2f2ff15d","hasRole(bytes32,address)":"91d14854","oracle()":"7dc0d1d0","raiseDispute(bytes32,string)":"be7b8a77","renounceRole(bytes32,address)":"36568abe","resolveDispute(bytes32)":"c8218e3e","revealVote(bytes32,bool,uint256)":"249a44b7","revokeRole(bytes32,address)":"d547741f","setBondAmount(uint256)":"28f9f3e6","staking()":"4cf088d9","submitEvidence(bytes32,string)":"f48a0b31","supportsInterface(bytes4)":"01ffc9a7","votes(bytes32,address)":"9386775a"},"id":49}