{"abi":[{"type":"constructor","inputs":[{"name":"_initialOwner","type":"address","internalType":"address"},{"name":"_maintainerVault","type":"address","internalType":"address"},{"name":"_treasury","type":"address","internalType":"address"}],"stateMutability":"nonpayable"},{"type":"function","name":"getAddresses","inputs":[],"outputs":[{"name":"_maintainerVault","type":"address","internalType":"address"},{"name":"_treasury","type":"address","internalType":"address"}],"stateMutability":"view"},{"type":"function","name":"maintainerVault","inputs":[],"outputs":[{"name":"","type":"address","internalType":"address"}],"stateMutability":"view"},{"type":"function","name":"owner","inputs":[],"outputs":[{"name":"","type":"address","internalType":"address"}],"stateMutability":"view"},{"type":"function","name":"renounceOwnership","inputs":[],"outputs":[],"stateMutability":"nonpayable"},{"type":"function","name":"setMaintainerVault","inputs":[{"name":"_newVault","type":"address","internalType":"address"}],"outputs":[],"stateMutability":"nonpayable"},{"type":"function","name":"setTreasury","inputs":[{"name":"_newTreasury","type":"address","internalType":"address"}],"outputs":[],"stateMutability":"nonpayable"},{"type":"function","name":"transferOwnership","inputs":[{"name":"newOwner","type":"address","internalType":"address"}],"outputs":[],"stateMutability":"nonpayable"},{"type":"function","name":"treasury","inputs":[],"outputs":[{"name":"","type":"address","internalType":"address"}],"stateMutability":"view"},{"type":"event","name":"MaintainerVaultUpdated","inputs":[{"name":"oldVault","type":"address","indexed":true,"internalType":"address"},{"name":"newVault","type":"address","indexed":true,"internalType":"address"}],"anonymous":false},{"type":"event","name":"OwnershipTransferred","inputs":[{"name":"previousOwner","type":"address","indexed":true,"internalType":"address"},{"name":"newOwner","type":"address","indexed":true,"internalType":"address"}],"anonymous":false},{"type":"event","name":"TreasuryUpdated","inputs":[{"name":"oldTreasury","type":"address","indexed":true,"internalType":"address"},{"name":"newTreasury","type":"address","indexed":true,"internalType":"address"}],"anonymous":false},{"type":"error","name":"OwnableInvalidOwner","inputs":[{"name":"owner","type":"address","internalType":"address"}]},{"type":"error","name":"OwnableUnauthorizedAccount","inputs":[{"name":"account","type":"address","internalType":"address"}]}],"bytecode":{"object":"0x608060405234801561000f575f80fd5b506040516105f23803806105f283398101604081905261002e916101bb565b826001600160a01b03811661005d57604051631e4fbdf760e01b81525f60048201526024015b60405180910390fd5b61006681610151565b506001600160a01b0382166100c95760405162461bcd60e51b815260206004820152602360248201527f4172784164647265737365733a207a65726f206d61696e7461696e65722076616044820152621d5b1d60ea1b6064820152608401610054565b6001600160a01b03811661011f5760405162461bcd60e51b815260206004820152601b60248201527f4172784164647265737365733a207a65726f20747265617375727900000000006044820152606401610054565b600180546001600160a01b039384166001600160a01b03199182161790915560028054929093169116179055506101fb565b5f80546001600160a01b038381166001600160a01b0319831681178455604051919092169283917f8be0079c531659141344cd1fd0a4f28419497f9722a3daafe3b4186f6b6457e09190a35050565b80516001600160a01b03811681146101b6575f80fd5b919050565b5f805f606084860312156101cd575f80fd5b6101d6846101a0565b92506101e4602085016101a0565b91506101f2604085016101a0565b90509250925092565b6103ea806102085f395ff3fe608060405234801561000f575f80fd5b5060043610610085575f3560e01c80638da5cb5b116100585780638da5cb5b146100e9578063a39fac12146100f9578063f0f442601461011f578063f2fde38b14610132575f80fd5b806304bc068e146100895780632ddc6062146100b957806361d027b3146100ce578063715018a6146100e1575b5f80fd5b60015461009c906001600160a01b031681565b6040516001600160a01b0390911681526020015b60405180910390f35b6100cc6100c7366004610387565b610145565b005b60025461009c906001600160a01b031681565b6100cc610203565b5f546001600160a01b031661009c565b600154600254604080516001600160a01b039384168152929091166020830152016100b0565b6100cc61012d366004610387565b610216565b6100cc610140366004610387565b6102cf565b61014d61030c565b6001600160a01b0381166101a85760405162461bcd60e51b815260206004820152601a60248201527f4172784164647265737365733a207a65726f206164647265737300000000000060448201526064015b60405180910390fd5b6001546040516001600160a01b038084169216907f24537979a9fe5361b2a413296a53f6d1f703b2eaec239548cd1a2dbca6a24ce3905f90a3600180546001600160a01b0319166001600160a01b0392909216919091179055565b61020b61030c565b6102145f610338565b565b61021e61030c565b6001600160a01b0381166102745760405162461bcd60e51b815260206004820152601a60248201527f4172784164647265737365733a207a65726f2061646472657373000000000000604482015260640161019f565b6002546040516001600160a01b038084169216907f4ab5be82436d353e61ca18726e984e561f5c1cc7c6d38b29d2553c790434705a905f90a3600280546001600160a01b0319166001600160a01b0392909216919091179055565b6102d761030c565b6001600160a01b03811661030057604051631e4fbdf760e01b81525f600482015260240161019f565b61030981610338565b50565b5f546001600160a01b031633146102145760405163118cdaa760e01b815233600482015260240161019f565b5f80546001600160a01b038381166001600160a01b0319831681178455604051919092169283917f8be0079c531659141344cd1fd0a4f28419497f9722a3daafe3b4186f6b6457e09190a35050565b5f60208284031215610397575f80fd5b81356001600160a01b03811681146103ad575f80fd5b939250505056fea2646970667358221220c8a02126af56b12fb3e3f6dd05fc99df551290e9c3069996c4785291938c009764736f6c63430008180033","linkReferences":{}},"methodIdentifiers":{"getAddresses()":"a39fac12","maintainerVault()":"04bc068e","owner()":"8da5cb5b","renounceOwnership()":"715018a6","setMaintainerVault(address)":"2ddc6062","setTreasury(address)":"f0f44260","transferOwnership(address)":"f2fde38b","treasury()":"61d027b3"},"id":49}