{"abi":[{"type":"constructor","inputs":[{"name":"_initialOwner","type":"address","internalType":"address"},{"name":"_maintainerVault","type":"address","internalType":"address"},{"name":"_treasury","type":"address","internalType":"address"}],"stateMutability":"nonpayable"},{"type":"function","name":"getAddresses","inputs":[],"outputs":[{"name":"_maintainerVault","type":"address","internalType":"address"},{"name":"_treasury","type":"address","internalType":"address"}],"stateMutability":"view"},{"type":"function","name":"maintainerVault","inputs":[],"outputs":[{"name":"","type":"address","internalType":"address"}],"stateMutability":"view"},{"type":"function","name":"owner","inputs":[],"outputs":[{"name":"","type":"address","internalType":"address"}],"stateMutability":"view"},{"type":"function","name":"renounceOwnership","inputs":[],"outputs":[],"stateMutability":"nonpayable"},{"type":"function","name":"setMaintainerVault","inputs":[{"name":"_newVault","type":"address","internalType":"address"}],"outputs":[],"stateMutability":"nonpayable"},{"type":"function","name":"setTreasury","inputs":[{"name":"_newTreasury","type":"address","internalType":"address"}],"outputs":[],"stateMutability":"nonpayable"},{"type":"function","name":"transferOwnership","inputs":[{"name":"newOwner","type":"address","internalType":"address"}],"outputs":[],"stateMutability":"nonpayable"},{"type":"function","name":"treasury","inputs":[],"outputs":[{"name":"","type":"address","internalType":"address"}],"stateMutability":"view"},{"type":"event","name":"MaintainerVaultUpdated","inputs":[{"name":"oldVault","type":"address","indexed":true,"internalType":"address"},{"name":"newVault","type":"address","indexed":true,"internalType":"address"}],"anonymous":false},{"type":"event","name":"OwnershipTransferred","inputs":[{"name":"previousOwner","type":"address","indexed":true,"internalType":"address"},{"name":"newOwner","type":"address","indexed":true,"internalType":"address"}],"anonymous":false},{"type":"event","name":"TreasuryUpdated","inputs":[{"name":"oldTreasury","type":"address","indexed":true,"internalType":"address"},{"name":"newTreasury","type":"address","indexed":true,"internalType":"address"}],"anonymous":false},{"type":"error","name":"OwnableInvalidOwner","inputs":[{"name":"owner","type":"address","internalType":"address"}]},{"type":"error","name":"OwnableUnauthorizedAccount","inputs":[{"name":"account","type":"address","internalType":"address"}]}],"bytecode":{"object":"0x60803461018a57601f61066238819003918201601f191683019291906001600160401b0384118385101761018e57816060928492604096875283398101031261018a5761004b816101a2565b6100628361005b602085016101a2565b93016101a2565b6001600160a01b039182169190821561017357815f549460018060a01b03199480868816175f5582885197167f8be0079c531659141344cd1fd0a4f28419497f9722a3daafe3b4186f6b6457e05f80a3169384156101255750169182156100e1578160015416176001556002541617600255516104ab90816101b78239f35b835162461bcd60e51b815260206004820152601b60248201527f4172784164647265737365733a207a65726f20747265617375727900000000006044820152606490fd5b62461bcd60e51b815260206004820152602360248201527f4172784164647265737365733a207a65726f206d61696e7461696e65722076616044820152621d5b1d60ea1b6064820152608490fd5b8451631e4fbdf760e01b81525f6004820152602490fd5b5f80fd5b634e487b7160e01b5f52604160045260245ffd5b51906001600160a01b038216820361018a5756fe60806040908082526004361015610014575f80fd5b5f3560e01c90816304bc068e14610390575080632ddc6062146102f657806361d027b3146102c2578063715018a6146102465780638da5cb5b14610213578063a39fac12146101d7578063f0f442601461013d5763f2fde38b14610076575f80fd5b34610139576020600319360112610139576004359073ffffffffffffffffffffffffffffffffffffffff90818316809303610139576100b3610425565b821561010a57505f54827fffffffffffffffffffffffff00000000000000000000000000000000000000008216175f55167f8be0079c531659141344cd1fd0a4f28419497f9722a3daafe3b4186f6b6457e05f80a3005b602490517f1e4fbdf70000000000000000000000000000000000000000000000000000000081525f6004820152fd5b5f80fd5b346101395760206003193601126101395760043573ffffffffffffffffffffffffffffffffffffffff808216809203610139577fffffffffffffffffffffffff00000000000000000000000000000000000000009061019a610425565b6101a58315156103c0565b826002549182167f4ab5be82436d353e61ca18726e984e561f5c1cc7c6d38b29d2553c790434705a5f80a31617600255005b5034610139575f6003193601126101395773ffffffffffffffffffffffffffffffffffffffff8060015416906002541682519182526020820152f35b5034610139575f6003193601126101395760209073ffffffffffffffffffffffffffffffffffffffff5f54169051908152f35b34610139575f6003193601126101395761025e610425565b5f73ffffffffffffffffffffffffffffffffffffffff81547fffffffffffffffffffffffff000000000000000000000000000000000000000081168355167f8be0079c531659141344cd1fd0a4f28419497f9722a3daafe3b4186f6b6457e08280a3005b5034610139575f6003193601126101395760209073ffffffffffffffffffffffffffffffffffffffff600254169051908152f35b346101395760206003193601126101395760043573ffffffffffffffffffffffffffffffffffffffff808216809203610139577fffffffffffffffffffffffff000000000000000000000000000000000000000090610353610425565b61035e8315156103c0565b826001549182167f24537979a9fe5361b2a413296a53f6d1f703b2eaec239548cd1a2dbca6a24ce35f80a31617600155005b34610139575f6003193601126101395760209073ffffffffffffffffffffffffffffffffffffffff600154168152f35b156103c757565b60646040517f08c379a000000000000000000000000000000000000000000000000000000000815260206004820152601a60248201527f4172784164647265737365733a207a65726f20616464726573730000000000006044820152fd5b73ffffffffffffffffffffffffffffffffffffffff5f5416330361044557565b60246040517f118cdaa7000000000000000000000000000000000000000000000000000000008152336004820152fdfea2646970667358221220e02da835bd6dac77f6ff8584fbdd6b59fdc7e7e2a4b4ed50d1a8d0d0e40f5c1864736f6c63430008180033","linkReferences":{}},"methodIdentifiers":{"getAddresses()":"a39fac12","maintainerVault()":"04bc068e","owner()":"8da5cb5b","renounceOwnership()":"715018a6","setMaintainerVault(address)":"2ddc6062","setTreasury(address)":"f0f44260","transferOwnership(address)":"f2fde38b","treasury()":"61d027b3"},"id":47}