{"abi":[{"type":"constructor","inputs":[{"name":"admin","type":"address","internalType":"address"},{"name":"_arxoToken","type":"address","internalType":"address"},{"name":"_registry","type":"address","internalType":"address"},{"name":"_addresses","type":"address","internalType":"address"},{"name":"_staking","type":"address","internalType":"address"}],"stateMutability":"nonpayable"},{"type":"function","name":"CONTRIBUTION_PROOF_TYPEHASH","inputs":[],"outputs":[{"name":"","type":"bytes32","internalType":"bytes32"}],"stateMutability":"view"},{"type":"function","name":"DEFAULT_ADMIN_ROLE","inputs":[],"outputs":[{"name":"","type":"bytes32","internalType":"bytes32"}],"stateMutability":"view"},{"type":"function","name":"DOMAIN_SEPARATOR","inputs":[],"outputs":[{"name":"","type":"bytes32","internalType":"bytes32"}],"stateMutability":"view"},{"type":"function","name":"FINALIZATION_DELAY","inputs":[],"outputs":[{"name":"","type":"uint256","internalType":"uint256"}],"stateMutability":"view"},{"type":"function","name":"MAX_PROOF_AGE","inputs":[],"outputs":[{"name":"","type":"uint256","internalType":"uint256"}],"stateMutability":"view"},{"type":"function","name":"MIN_CONFIRMATIONS","inputs":[],"outputs":[{"name":"","type":"uint256","internalType":"uint256"}],"stateMutability":"view"},{"type":"function","name":"ORACLE_ROLE","inputs":[],"outputs":[{"name":"","type":"bytes32","internalType":"bytes32"}],"stateMutability":"view"},{"type":"function","name":"QUALITY_METRICS_TYPEHASH","inputs":[],"outputs":[{"name":"","type":"bytes32","internalType":"bytes32"}],"stateMutability":"view"},{"type":"function","name":"addresses","inputs":[],"outputs":[{"name":"","type":"address","internalType":"contract ArxAddresses"}],"stateMutability":"view"},{"type":"function","name":"arxoToken","inputs":[],"outputs":[{"name":"","type":"address","internalType":"contract ArxosToken"}],"stateMutability":"view"},{"type":"function","name":"buildingTiers","inputs":[{"name":"","type":"string","internalType":"string"}],"outputs":[{"name":"","type":"uint8","internalType":"enum ArxContributionOracle.SplitTier"}],"stateMutability":"view"},{"type":"function","name":"contributionProofHashes","inputs":[{"name":"","type":"bytes32","internalType":"bytes32"}],"outputs":[{"name":"","type":"bytes32","internalType":"bytes32"}],"stateMutability":"view"},{"type":"function","name":"disputeContribution","inputs":[{"name":"contributionId","type":"bytes32","internalType":"bytes32"},{"name":"reason","type":"string","internalType":"string"}],"outputs":[],"stateMutability":"nonpayable"},{"type":"function","name":"disputeResolver","inputs":[],"outputs":[{"name":"","type":"address","internalType":"address"}],"stateMutability":"view"},{"type":"function","name":"eip712Domain","inputs":[],"outputs":[{"name":"fields","type":"bytes1","internalType":"bytes1"},{"name":"name","type":"string","internalType":"string"},{"name":"version","type":"string","internalType":"string"},{"name":"chainId","type":"uint256","internalType":"uint256"},{"name":"verifyingContract","type":"address","internalType":"address"},{"name":"salt","type":"bytes32","internalType":"bytes32"},{"name":"extensions","type":"uint256[]","internalType":"uint256[]"}],"stateMutability":"view"},{"type":"function","name":"finalizeContribution","inputs":[{"name":"contributionId","type":"bytes32","internalType":"bytes32"}],"outputs":[],"stateMutability":"nonpayable"},{"type":"function","name":"flagDisputed","inputs":[{"name":"contributionId","type":"bytes32","internalType":"bytes32"},{"name":"disputer","type":"address","internalType":"address"}],"outputs":[],"stateMutability":"nonpayable"},{"type":"function","name":"getContribution","inputs":[{"name":"contributionId","type":"bytes32","internalType":"bytes32"}],"outputs":[{"name":"worker","type":"address","internalType":"address"},{"name":"building","type":"address","internalType":"address"},{"name":"amount","type":"uint256","internalType":"uint256"},{"name":"confirmations","type":"uint256","internalType":"uint256"},{"name":"proposedAt","type":"uint256","internalType":"uint256"},{"name":"finalized","type":"bool","internalType":"bool"}],"stateMutability":"view"},{"type":"function","name":"getRoleAdmin","inputs":[{"name":"role","type":"bytes32","internalType":"bytes32"}],"outputs":[{"name":"","type":"bytes32","internalType":"bytes32"}],"stateMutability":"view"},{"type":"function","name":"grantRole","inputs":[{"name":"role","type":"bytes32","internalType":"bytes32"},{"name":"account","type":"address","internalType":"address"}],"outputs":[],"stateMutability":"nonpayable"},{"type":"function","name":"hasConfirmed","inputs":[{"name":"contributionId","type":"bytes32","internalType":"bytes32"},{"name":"oracle","type":"address","internalType":"address"}],"outputs":[{"name":"","type":"bool","internalType":"bool"}],"stateMutability":"view"},{"type":"function","name":"hasRole","inputs":[{"name":"role","type":"bytes32","internalType":"bytes32"},{"name":"account","type":"address","internalType":"address"}],"outputs":[{"name":"","type":"bool","internalType":"bool"}],"stateMutability":"view"},{"type":"function","name":"pendingContributions","inputs":[{"name":"","type":"bytes32","internalType":"bytes32"}],"outputs":[{"name":"worker","type":"address","internalType":"address"},{"name":"confirmations","type":"uint8","internalType":"uint8"},{"name":"building","type":"address","internalType":"address"},{"name":"proposedAt","type":"uint40","internalType":"uint40"},{"name":"buildingId","type":"string","internalType":"string"},{"name":"amount","type":"uint256","internalType":"uint256"},{"name":"accuracy","type":"uint8","internalType":"uint8"},{"name":"completeness","type":"uint8","internalType":"uint8"},{"name":"finalized","type":"bool","internalType":"bool"},{"name":"disputed","type":"bool","internalType":"bool"}],"stateMutability":"view"},{"type":"function","name":"proposeContribution","inputs":[{"name":"buildingId","type":"string","internalType":"string"},{"name":"worker","type":"address","internalType":"address"},{"name":"amount","type":"uint256","internalType":"uint256"},{"name":"proof","type":"tuple","internalType":"struct ArxContributionOracle.ContributionProof","components":[{"name":"merkleRoot","type":"bytes32","internalType":"bytes32"},{"name":"locationHash","type":"bytes32","internalType":"bytes32"},{"name":"buildingHash","type":"bytes32","internalType":"bytes32"},{"name":"timestamp","type":"uint256","internalType":"uint256"},{"name":"dataSize","type":"uint256","internalType":"uint256"},{"name":"quality","type":"tuple","internalType":"struct ArxContributionOracle.QualityMetrics","components":[{"name":"accuracy","type":"uint8","internalType":"uint8"},{"name":"completeness","type":"uint8","internalType":"uint8"}]}]},{"name":"signature","type":"bytes","internalType":"bytes"}],"outputs":[],"stateMutability":"nonpayable"},{"type":"function","name":"registry","inputs":[],"outputs":[{"name":"","type":"address","internalType":"contract ArxRegistry"}],"stateMutability":"view"},{"type":"function","name":"renounceRole","inputs":[{"name":"role","type":"bytes32","internalType":"bytes32"},{"name":"callerConfirmation","type":"address","internalType":"address"}],"outputs":[],"stateMutability":"nonpayable"},{"type":"function","name":"resolveDispute","inputs":[{"name":"contributionId","type":"bytes32","internalType":"bytes32"},{"name":"valid","type":"bool","internalType":"bool"}],"outputs":[],"stateMutability":"nonpayable"},{"type":"function","name":"revokeRole","inputs":[{"name":"role","type":"bytes32","internalType":"bytes32"},{"name":"account","type":"address","internalType":"address"}],"outputs":[],"stateMutability":"nonpayable"},{"type":"function","name":"setBuildingTier","inputs":[{"name":"buildingId","type":"string","internalType":"string"},{"name":"tier","type":"uint8","internalType":"enum ArxContributionOracle.SplitTier"}],"outputs":[],"stateMutability":"nonpayable"},{"type":"function","name":"setResolver","inputs":[{"name":"_resolver","type":"address","internalType":"address"}],"outputs":[],"stateMutability":"nonpayable"},{"type":"function","name":"staking","inputs":[],"outputs":[{"name":"","type":"address","internalType":"contract ArxOracleStaking"}],"stateMutability":"view"},{"type":"function","name":"supportsInterface","inputs":[{"name":"interfaceId","type":"bytes4","internalType":"bytes4"}],"outputs":[{"name":"","type":"bool","internalType":"bool"}],"stateMutability":"view"},{"type":"function","name":"tierConfigs","inputs":[{"name":"","type":"uint8","internalType":"enum ArxContributionOracle.SplitTier"}],"outputs":[{"name":"workerBps","type":"uint256","internalType":"uint256"},{"name":"buildingBps","type":"uint256","internalType":"uint256"},{"name":"maintainerBps","type":"uint256","internalType":"uint256"},{"name":"treasuryBps","type":"uint256","internalType":"uint256"}],"stateMutability":"view"},{"type":"function","name":"updateTierConfig","inputs":[{"name":"tier","type":"uint8","internalType":"enum ArxContributionOracle.SplitTier"},{"name":"workerBps","type":"uint256","internalType":"uint256"},{"name":"buildingBps","type":"uint256","internalType":"uint256"},{"name":"maintainerBps","type":"uint256","internalType":"uint256"},{"name":"treasuryBps","type":"uint256","internalType":"uint256"}],"outputs":[],"stateMutability":"nonpayable"},{"type":"function","name":"usedProofs","inputs":[{"name":"","type":"bytes32","internalType":"bytes32"}],"outputs":[{"name":"","type":"bool","internalType":"bool"}],"stateMutability":"view"},{"type":"function","name":"workerStats","inputs":[{"name":"","type":"address","internalType":"address"}],"outputs":[{"name":"totalContributions","type":"uint256","internalType":"uint256"},{"name":"totalEarned","type":"uint256","internalType":"uint256"},{"name":"totalScore","type":"uint256","internalType":"uint256"}],"stateMutability":"view"},{"type":"event","name":"BuildingTierUpdated","inputs":[{"name":"buildingId","type":"string","indexed":true,"internalType":"string"},{"name":"tier","type":"uint8","indexed":false,"internalType":"enum ArxContributionOracle.SplitTier"}],"anonymous":false},{"type":"event","name":"ContributionConfirmed","inputs":[{"name":"contributionId","type":"bytes32","indexed":true,"internalType":"bytes32"},{"name":"oracle","type":"address","indexed":true,"internalType":"address"},{"name":"confirmations","type":"uint256","indexed":false,"internalType":"uint256"}],"anonymous":false},{"type":"event","name":"ContributionDisputed","inputs":[{"name":"contributionId","type":"bytes32","indexed":true,"internalType":"bytes32"},{"name":"disputer","type":"address","indexed":true,"internalType":"address"},{"name":"reason","type":"string","indexed":false,"internalType":"string"}],"anonymous":false},{"type":"event","name":"ContributionFinalized","inputs":[{"name":"contributionId","type":"bytes32","indexed":true,"internalType":"bytes32"},{"name":"worker","type":"address","indexed":true,"internalType":"address"},{"name":"amount","type":"uint256","indexed":false,"internalType":"uint256"}],"anonymous":false},{"type":"event","name":"ContributionProposed","inputs":[{"name":"contributionId","type":"bytes32","indexed":true,"internalType":"bytes32"},{"name":"worker","type":"address","indexed":true,"internalType":"address"},{"name":"buildingId","type":"string","indexed":false,"internalType":"string"},{"name":"amount","type":"uint256","indexed":false,"internalType":"uint256"},{"name":"oracle","type":"address","indexed":false,"internalType":"address"}],"anonymous":false},{"type":"event","name":"EIP712DomainChanged","inputs":[],"anonymous":false},{"type":"event","name":"RoleAdminChanged","inputs":[{"name":"role","type":"bytes32","indexed":true,"internalType":"bytes32"},{"name":"previousAdminRole","type":"bytes32","indexed":true,"internalType":"bytes32"},{"name":"newAdminRole","type":"bytes32","indexed":true,"internalType":"bytes32"}],"anonymous":false},{"type":"event","name":"RoleGranted","inputs":[{"name":"role","type":"bytes32","indexed":true,"internalType":"bytes32"},{"name":"account","type":"address","indexed":true,"internalType":"address"},{"name":"sender","type":"address","indexed":true,"internalType":"address"}],"anonymous":false},{"type":"event","name":"RoleRevoked","inputs":[{"name":"role","type":"bytes32","indexed":true,"internalType":"bytes32"},{"name":"account","type":"address","indexed":true,"internalType":"address"},{"name":"sender","type":"address","indexed":true,"internalType":"address"}],"anonymous":false},{"type":"event","name":"TierConfigUpdated","inputs":[{"name":"tier","type":"uint8","indexed":true,"internalType":"enum ArxContributionOracle.SplitTier"},{"name":"workerBps","type":"uint256","indexed":false,"internalType":"uint256"},{"name":"buildingBps","type":"uint256","indexed":false,"internalType":"uint256"},{"name":"maintainerBps","type":"uint256","indexed":false,"internalType":"uint256"},{"name":"treasuryBps","type":"uint256","indexed":false,"internalType":"uint256"}],"anonymous":false},{"type":"error","name":"AccessControlBadConfirmation","inputs":[]},{"type":"error","name":"AccessControlUnauthorizedAccount","inputs":[{"name":"account","type":"address","internalType":"address"},{"name":"neededRole","type":"bytes32","internalType":"bytes32"}]},{"type":"error","name":"InvalidShortString","inputs":[]},{"type":"error","name":"ReentrancyGuardReentrantCall","inputs":[]},{"type":"error","name":"StringTooLong","inputs":[{"name":"str","type":"string","internalType":"string"}]}],"bytecode":{"object":"0x6101e03462000540576001600160401b0390601f62003e5a38819003918201601f19168301929190848411838510176200052c578160a09284926040968752833981010312620005405762000054816200057c565b91602091620000658382016200057c565b93620000738383016200057c565b9062000090608062000088606086016200057c565b94016200057c565b938051916200009f8362000560565b60198352868301977f4172784f5320436f6e747269627574696f6e204f7261636c650000000000000089528251620000d78162000560565b600191828252898201603160f81b8152837f9b779b17422d0df92223018b32b4d1fa46e071723d6817e2486d003becc55f0055620001158762000613565b9b6101209c8d526200012784620007dc565b97610140988952519020928360e0525190209b8c926101009d8e524660a0528651938c8501917f8b73c3c69bb8fe3d512ecc4cf759cc79239f7b179b0ffacaa9a75d522b39400f83528886015260608501524660808501523060a085015260a0845260c0840191848310908311176200052c57818752835190206080523060c0526001600160a01b039285841615620004df57505081169586156200049157811696871562000441578116978815620003ef5716978815620003a057906003620002e093926101609788526101809889526101a0998a526101c09a8b52855190620002128262000544565b611b58825280820191836103e89384815289830185815260608401918683525f8052600886528b5f209451855551888501555160028401555191015586516200025b8162000544565b6117708152838282016107d081528983018581526060840191868352885f52600886528b5f2094518555518885015551600284015551910155865193620002a28562000544565b6113888552818501610bb881526008898701938585526060880195865260025f5252885f209551865551908501555160028401555191015562000591565b5051956134b097886200098a89396080518861308a015260a05188613156015260c0518861305b015260e051886130d9015251876130ff015251866117fb015251856118240152518481816105a701528181611ba5015281816121e20152818161225a015281816122a10152818161230f015281816123fa01526124950152518381816107f60152818161087701528181610e6c01526118fc01525182818161024301528181611b6f01526120c6015251818181610aad0152611aab0152f35b60849084519062461bcd60e51b82526004820152602360248201527f417278436f6e747269627574696f6e4f7261636c653a207a65726f207374616b604482015262696e6760e81b6064820152fd5b845162461bcd60e51b8152600481018b9052602560248201527f417278436f6e747269627574696f6e4f7261636c653a207a65726f2061646472604482015264657373657360d81b6064820152608490fd5b845162461bcd60e51b8152600481018b90526024808201527f417278436f6e747269627574696f6e4f7261636c653a207a65726f20726567696044820152637374727960e01b6064820152608490fd5b845162461bcd60e51b8152600481018b9052602160248201527f417278436f6e747269627574696f6e4f7261636c653a207a65726f20746f6b656044820152603760f91b6064820152608490fd5b90603760f91b6101246084938e62461bcd60e51b855260c4820152602160e48201527f417278436f6e747269627574696f6e4f7261636c653a207a65726f2061646d696101048201520152fd5b634e487b7160e01b5f52604160045260245ffd5b5f80fd5b608081019081106001600160401b038211176200052c57604052565b604081019081106001600160401b038211176200052c57604052565b51906001600160a01b03821682036200054057565b6001600160a01b03165f8181525f8051602062003e3a833981519152602052604090205460ff166200060e575f8181525f8051602062003e3a83398151915260205260408120805460ff191660011790553391907f2f8788117e7eff1d82e926ec794901d17c78024a50270940304540a733656f0d8180a4600190565b505f90565b805160209081811015620006ad5750601f8251116200064e57808251920151908083106200064057501790565b825f19910360031b1b161790565b90604051809263305a27a960e01b82528060048301528251908160248401525f935b82851062000693575050604492505f838284010152601f80199101168101030190fd5b848101820151868601604401529381019385935062000670565b9192916001600160401b0381116200052c5760019182548381811c91168015620007d1575b82821014620007bd57601f811162000787575b5080601f8311600114620007235750819293945f9262000717575b50505f19600383901b1c191690821b17905560ff90565b015190505f8062000700565b90601f19831695845f52825f20925f905b8882106200076f575050838596971062000756575b505050811b01905560ff90565b01515f1960f88460031b161c191690555f808062000749565b80878596829496860151815501950193019062000734565b835f5283601f835f20920160051c820191601f850160051c015b828110620007b1575050620006e5565b5f8155018490620007a1565b634e487b7160e01b5f52602260045260245ffd5b90607f1690620006d2565b805160209081811015620008685750601f8251116200080957808251920151908083106200064057501790565b90604051809263305a27a960e01b82528060048301528251908160248401525f935b8285106200084e575050604492505f838284010152601f80199101168101030190fd5b84810182015186860160440152938101938593506200082b565b906001600160401b0382116200052c57600254926001938481811c911680156200097e575b83821014620007bd57601f811162000947575b5081601f8411600114620008df57509282939183925f94620008d3575b50501b915f199060031b1c19161760025560ff90565b015192505f80620008bd565b919083601f19811660025f52845f20945f905b888383106200092c575050501062000913575b505050811b0160025560ff90565b01515f1960f88460031b161c191690555f808062000905565b858701518855909601959485019487935090810190620008f2565b60025f5284601f845f20920160051c820191601f860160051c015b82811062000972575050620008a0565b5f815501859062000962565b90607f16906200088d56fe6080806040526004361015610012575f80fd5b5f905f3560e01c90816301ffc9a714612a075750806307a53ad8146129cd57806307e2cea5146129935780631c937ba214612839578063248a9ca31461280d57806327a3c153146120085780632e4861a914611e695780632f2ff15d14611e2c5780633235204c14611e025780633644e51514611ddf57806336568abe14611d7f57806343a0e3e614611acf5780634cf088d914611a8b5780634e543b26146119ea5780635bb39694146119cd5780636c8d5119146119205780637b103999146118dc57806384b0196e146117e557806388dd56ec146117c757806391d148541461177d5780639da9db2a1461171d5780639e42509e14611701578063a217fddf146116e5578063b0fa0db91461161f578063b4772636146114f7578063bb3cd49e14610647578063c2cf7326146105fa578063c30a0f25146105cb578063cf9bc12e14610587578063d21c7112146103c7578063d547741f14610386578063d5754e751461034b578063d978cf5a14610267578063da0321cd14610223578063e48a3a60146101d35763f5a3f4af146101aa575f80fd5b346101d057806003193601126101d05760206001600160a01b0360035416604051908152f35b80fd5b50346101d05760206003193601126101d05760406060916001600160a01b036101fa612c28565b168152600460205220805490600260018201549101549060405192835260208301526040820152f35b50346101d057806003193601126101d05760206040516001600160a01b037f0000000000000000000000000000000000000000000000000000000000000000168152f35b50346101d05760206003193601126101d05760043567ffffffffffffffff808211610347573660238301121561034757816004013590811161031a57604051906102bb6020601f19601f8401160183612b7b565b8082526020820192366024838301011161031657926102fa92610312956020848195602460ff9901863783010152604051938492839251928391612b9e565b81016009815203019020541660405191829182612cb5565b0390f35b8480fd5b7f4e487b71000000000000000000000000000000000000000000000000000000005f52604160045260245ffd5b8280fd5b50346101d057806003193601126101d05760206040517fbacbb06dc20935b8f69f19adbc14dc659c9a8735b7000a36d856f87ce90999448152f35b50346101d05760406003193601126101d0576103c36004356103a6612c12565b90808452836020526103be6001604086200154612fb3565b61317c565b5080f35b50346101d05760406003193601126101d0576004356103e4612c12565b906001600160a01b036103fc81600354163314612e66565b818452602092600584526040852060ff815460a01c161561054357600401805460ff8160101c166104ff5760ff8160181c166104bb57917fb96219a97eea5a53eda6df0078c1c9287caa64de7bc33f76051503c238894ac6939163010000007fffffffffffffffffffffffffffffffffffffffffffffffffffffffff00ffffff60609516179055601b604051968088528701527f446973707574652072616973656420766961205265736f6c766572000000000060408701521693a380f35b6064866040519062461bcd60e51b82526004820152601060248201527f416c7265616479206469737075746564000000000000000000000000000000006044820152fd5b6064866040519062461bcd60e51b82526004820152600960248201527f46696e616c697a656400000000000000000000000000000000000000000000006044820152fd5b6064856040519062461bcd60e51b82526004820152600960248201527f4e6f7420666f756e6400000000000000000000000000000000000000000000006044820152fd5b50346101d057806003193601126101d05760206040516001600160a01b037f0000000000000000000000000000000000000000000000000000000000000000168152f35b50346101d05760206003193601126101d05760ff60406020926004358152600684522054166040519015158152f35b50346101d05760406003193601126101d0576001600160a01b0360056040610620612c12565b93600435815282602052200191165f52602052602060ff60405f2054166040519015158152f35b50346101d0576101606003193601126101d05760043567ffffffffffffffff81116114f35761067a903690600401612be4565b610682612c12565b60e07fffffffffffffffffffffffffffffffffffffffffffffffffffffffffffffff9c3601126114ef576101443567ffffffffffffffff8111610316576106cd903690600401612be4565b335f9081527fa629f6981c2f6895a67dc766e8e03ff72d04a413d0d8773a3ca56e9e474032c16020526040902054909291907f68e79a7bf1e0bc45d0a330c573bc367f9cf464fd326078812f301165fbda4ef19060ff16156114b85750610732612eeb565b6040516064356020820152608435604082015260a435606082015260c435608082015260e43560a08201526101043560ff81168091036114b45760c08201526101243560ff81168091036114b45760e082015260e0815261079281612b42565b60208151910120926001600160a01b0383161561144a57604435156113e0576040517fc5689dbf0000000000000000000000000000000000000000000000000000000081526001600160a01b03841660048201526020816024816001600160a01b037f0000000000000000000000000000000000000000000000000000000000000000165afa9081156111bb5788916113c1575b5015611357576040517f2329765b000000000000000000000000000000000000000000000000000000008152602060048201526020818061086b602482018a8c612e46565b03816001600160a01b037f0000000000000000000000000000000000000000000000000000000000000000165afa9081156111bb578891611338575b50156112f457610e1060c435018060c435116112c757421161125e576109cc9160426108d1612ec9565b6108d9612eda565b60ff604051918160208401947fbacbb06dc20935b8f69f19adbc14dc659c9a8735b7000a36d856f87ce909994486521660408401521660608201526060815261092181612af6565b51902060405160208101917fdc82d2bc6b309b5e255e71921f3167907cff59160d859f9e3e6e061676f7e23b83526064356040830152608435606083015260a435608083015260c43560a083015260e43560c083015260e082015260e0815261098981612b42565b519020610994613051565b90604051917f1901000000000000000000000000000000000000000000000000000000000000835260028301526022820152206133c4565b506004811015611231576111c6576001600160a01b038083169116036111c657604051602081019084868337610a426054828781017fffffffffffffffffffffffffffffffffffffffff0000000000000000000000008760601b1660208201526044356034820152036034810184520182612b7b565b51902092838652600760205282604087205560056020526040862094855460ff8160a01c1615610df1575b505050506040517f0f373afd0000000000000000000000000000000000000000000000000000000081523360048201526020816024816001600160a01b037f0000000000000000000000000000000000000000000000000000000000000000165afa908115610de6578591610db7575b5015610d4d576005830190335f528160205260ff60405f205416610ce357835460a01c60ff16610c8d57808552600660205260ff604086205416610c23578452600660205260408420600160ff198254161790555b335f5260205260405f20600160ff19825416179055815460ff8160a01c1660ff8114610bf65774ff000000000000000000000000000000000000000060017fffffffffffffffffffffff00ffffffffffffffffffffffffffffffffffffffff920160a01b1691161780925560ff6040519260a01c1682527f6fd675484b7bf3b926146089956526e50f342f2f2a794a586aba9cedf50352d560203393a360017f9b779b17422d0df92223018b32b4d1fa46e071723d6817e2486d003becc55f005580f35b6024857f4e487b710000000000000000000000000000000000000000000000000000000081526011600452fd5b608460405162461bcd60e51b815260206004820152602960248201527f417278436f6e747269627574696f6e4f7261636c653a2070726f6f6620616c7260448201527f65616479207573656400000000000000000000000000000000000000000000006064820152fd5b8285526007602052604085205414610b3257606460405162461bcd60e51b815260206004820152600e60248201527f50726f6f66206d69736d617463680000000000000000000000000000000000006044820152fd5b608460405162461bcd60e51b815260206004820152602860248201527f417278436f6e747269627574696f6e4f7261636c653a20616c7265616479206360448201527f6f6e6669726d65640000000000000000000000000000000000000000000000006064820152fd5b608460405162461bcd60e51b815260206004820152602960248201527f417278436f6e747269627574696f6e4f7261636c653a20696e7375666669636960448201527f656e74207374616b6500000000000000000000000000000000000000000000006064820152fd5b610dd9915060203d602011610ddf575b610dd18183612b7b565b810190612eb1565b5f610add565b503d610dc7565b6040513d87823e3d90fd5b7fffffffffffffffffffffffff00000000000000000000000000000000000000006001600160a01b03851691161786556040517fca0e4a7b0000000000000000000000000000000000000000000000000000000081526020600482015260208180610e60602482018787612e46565b03816001600160a01b037f0000000000000000000000000000000000000000000000000000000000000000165afa80156111bb578890611177575b6001600160a01b039150167fffffffffffffffffffffffff000000000000000000000000000000000000000060018801541617600187015567ffffffffffffffff821161114a578490610ef16002880154612aa5565b601f81116110fa575b508792601f811160011461104d57807f77e10e89a1ecc7573bca2edf10c705f6fe79cd58f4f58bdde7bf77c70f9026fc93948a91611042575b508160011b907fffffffffffffffffffffffffffffffffffffffffffffffffffffffffffffffff8360031b1c19161760028901555b6044356003890155610f78612ec9565b600489019081547fffffffffffffffffffffffffffffffffffffffffffffffffffffffffffff000060ff61ff00610fad612eda565b60081b16931691161717905560018801547fffffffffffffff0000000000ffffffffffffffffffffffffffffffffffffffff78ffffffffff00000000000000000000000000000000000000004260a01b1691161760018901556001600160a01b03611025604051938493606085526060850191612e46565b95604435602084015233604084015216940390a35f808080610a6d565b90508201355f610f33565b6002880189526020892089945b601f19831686106110df577f77e10e89a1ecc7573bca2edf10c705f6fe79cd58f4f58bdde7bf77c70f9026fc94955082601f198116106110a7575b5050600181811b016002890155610f68565b7fffffffffffffffffffffffffffffffffffffffffffffffffffffffffffffffff60f88460031b161c19908401351690555f80611095565b8084013582556020958601958995506001909201910161105a565b90915060028701885260208820601f840160051c810160208510611143575b90879392915b601f830160051c82018110611135575050610efa565b8a815588945060010161111f565b5080611119565b6024877f4e487b710000000000000000000000000000000000000000000000000000000081526041600452fd5b506020813d6020116111b3575b8161119160209383612b7b565b810103126111af576111aa6001600160a01b0391612d91565b610e9b565b8780fd5b3d9150611184565b6040513d8a823e3d90fd5b60405162461bcd60e51b815260206004820152602860248201527f417278436f6e747269627574696f6e4f7261636c653a20696e76616c6964207360448201527f69676e61747572650000000000000000000000000000000000000000000000006064820152608490fd5b6024877f4e487b710000000000000000000000000000000000000000000000000000000081526021600452fd5b608460405162461bcd60e51b8152602060048201526024808201527f417278436f6e747269627574696f6e4f7261636c653a2070726f6f662065787060448201527f69726564000000000000000000000000000000000000000000000000000000006064820152fd5b6024887f4e487b710000000000000000000000000000000000000000000000000000000081526011600452fd5b606460405162461bcd60e51b815260206004820152601760248201527f4275696c64696e67206e6f7420726567697374657265640000000000000000006044820152fd5b611351915060203d602011610ddf57610dd18183612b7b565b5f6108a7565b608460405162461bcd60e51b815260206004820152602860248201527f417278436f6e747269627574696f6e4f7261636c653a20776f726b6572206e6f60448201527f74206163746976650000000000000000000000000000000000000000000000006064820152fd5b6113da915060203d602011610ddf57610dd18183612b7b565b5f610826565b608460405162461bcd60e51b815260206004820152602260248201527f417278436f6e747269627574696f6e4f7261636c653a207a65726f20616d6f7560448201527f6e740000000000000000000000000000000000000000000000000000000000006064820152fd5b608460405162461bcd60e51b815260206004820152602260248201527f417278436f6e747269627574696f6e4f7261636c653a207a65726f20776f726b60448201527f65720000000000000000000000000000000000000000000000000000000000006064820152fd5b5f80fd5b604490604051907fe2517d3f0000000000000000000000000000000000000000000000000000000082523360048301526024820152fd5b8380fd5b5080fd5b50346101d05760a06003193601126101d05760043560038110156114f357608435604435602435606435611529612f45565b6127106115438561153e8461153e8888612d84565b612d84565b036115db577fd67e9de2094c53611a9214fc82d3851ea889ff5ec2f2a0cc4d1d0bfd0dc87dd8936115d59160405161157a81612af6565b84815260036020820187815260408301848152606084019186835261159e8c612c71565b9451855551600185015551600284015551910155604051948594859094939260609260808301968352602083015260408201520152565b0390a280f35b606460405162461bcd60e51b815260206004820152601260248201527f546f74616c206d757374206265203130302500000000000000000000000000006044820152fd5b50346101d05760206003193601126101d0576040906004358152600560205220600181015464ffffffffff8160a01c169182156116a15760c09260ff82546001600160a01b0393826004600383015492015460101c1694604051968184168852166020870152604086015260a01c1660608401526080830152151560a0820152f35b606460405162461bcd60e51b815260206004820152601b60248201527f436f6e747269627574696f6e20646f6573206e6f7420657869737400000000006044820152fd5b50346101d057806003193601126101d057602090604051908152f35b50346101d057806003193601126101d057602060405160028152f35b50346101d05760206003193601126101d05760043560038110156114f35761174490612c71565b80546103126001830154926003600282015491015490604051948594859094939260609260808301968352602083015260408201520152565b50346101d05760406003193601126101d0576001600160a01b0360406117a1612c12565b926004358152806020522091165f52602052602060ff60405f2054166040519015158152f35b50346101d057806003193601126101d0576020604051620151808152f35b50346101d057806003193601126101d05761181f7f00000000000000000000000000000000000000000000000000000000000000006131ef565b6118487f0000000000000000000000000000000000000000000000000000000000000000613307565b60405192602084019380851067ffffffffffffffff86111761031a576118bd610312936118af966040528383526040519687967f0f00000000000000000000000000000000000000000000000000000000000000885260e0602089015260e0880190612bbf565b908682036040880152612bbf565b9146606086015230608086015260a085015283820360c0850152612c3e565b50346101d057806003193601126101d05760206040516001600160a01b037f0000000000000000000000000000000000000000000000000000000000000000168152f35b50346101d05760406003193601126101d05760043567ffffffffffffffff81116114f357611952903690600401612be4565b6024359160038310156114ef577f930ff73c12cddb5fdad1b3ed3dc5acffd25ffac78b971f09f94ce0a376039b81916115d59161198d612f45565b60405182828237602081848101600981520301902060ff1981541660ff871617905581604051928392833781018681520390209260405191829182612cb5565b50346101d057806003193601126101d0576020604051610e108152f35b50346101d05760206003193601126101d0576001600160a01b03611a0c612c28565b611a14612f45565b168015611a47577fffffffffffffffffffffffff0000000000000000000000000000000000000000600354161760035580f35b606460405162461bcd60e51b815260206004820152600d60248201527f5a65726f207265736f6c766572000000000000000000000000000000000000006044820152fd5b50346101d057806003193601126101d05760206040516001600160a01b037f0000000000000000000000000000000000000000000000000000000000000000168152f35b50346101d05760406003193601126101d0576024356004358115158203610347576001600160a01b03611b0781600354163314612e66565b81845260056020526040842090600482019384549060ff8260181c1615611d3b57611b3860ff8360101c1615612d39565b15611d0a5750604051937fa39fac1200000000000000000000000000000000000000000000000000000000855285604086600481867f0000000000000000000000000000000000000000000000000000000000000000165afa958615611cfd5781908297611cc9575b50837f0000000000000000000000000000000000000000000000000000000000000000168486541697856001880154169060038801998a5491843b15611cc557869460a4938a8793816040519a8b998a987f2e620e7b000000000000000000000000000000000000000000000000000000008a5260048a0152602489015216604487015216606485015260848401525af18015611cba57611c9e575b5050907fc55dda7bfc26593a8b7c922c4287ecf777f04f3c6e1cee77b0ce7252b9f840379282620100007fffffffffffffffffffffffffffffffffffffffffffffffffffffffffff00ffff602095541617905554169354604051908152a380f35b611caa90939293612b12565b611cb65790855f611c3d565b8580fd5b6040513d84823e3d90fd5b8680fd5b9050611cee91965060403d604011611cf6575b611ce68183612b7b565b810190612da5565b95905f611ba1565b503d611cdc565b50604051903d90823e3d90fd5b7fffffffffffffffffffffffffffffffffffffffffffffffffffffffffff00ffff1662010000179093555082915050f35b606460405162461bcd60e51b815260206004820152600c60248201527f4e6f7420646973707574656400000000000000000000000000000000000000006044820152fd5b50346101d05760406003193601126101d057611d99612c12565b336001600160a01b03821603611db5576103c39060043561317c565b60046040517f6697b232000000000000000000000000000000000000000000000000000000008152fd5b50346101d057806003193601126101d0576020611dfa613051565b604051908152f35b50346101d05760206003193601126101d05760406020916004358152600783522054604051908152f35b50346101d05760406003193601126101d0576103c3600435611e4c612c12565b9080845283602052611e646001604086200154612fb3565b612fd4565b50346101d05760406003193601126101d05760043560243567ffffffffffffffff811161034757611e9e903690600401612be4565b919083805260209284845260408520335f52845260ff60405f2054168015611fcb575b15611f6157907fb96219a97eea5a53eda6df0078c1c9287caa64de7bc33f76051503c238894ac69183865260058552600460408720611f0860ff825460a01c161515612cc8565b0163010000007fffffffffffffffffffffffffffffffffffffffffffffffffffffffff00ffffff8254611f4160ff8260101c1615612d39565b16179055611f5b6040519283928784523397840191612e46565b0390a380f35b6084846040519062461bcd60e51b82526004820152602e60248201527f417278436f6e747269627574696f6e4f7261636c653a206d757374206265206160448201527f646d696e206f72206f7261636c650000000000000000000000000000000000006064820152fd5b507f68e79a7bf1e0bc45d0a330c573bc367f9cf464fd326078812f301165fbda4ef1855284845260408520335f52845260ff60405f205416611ec1565b50346114b45760206003193601126114b457612022612eeb565b6004355f52600560205260405f2080549060ff8260a01c16612045811515612cc8565b60048201549061205b60ff8360101c1615612d39565b60ff8260181c166127c95760021161275f5764ffffffffff600183015460a01c166201518081018091116127325742106126c857604051907fa39fac120000000000000000000000000000000000000000000000000000000082526040826004816001600160a01b037f0000000000000000000000000000000000000000000000000000000000000000165afa90811561264e575f925f926126a4575b506040516002850180545f9161210d82612aa5565b916001811690811561268c5750600114612659575b505060ff82602061217e948460096121409652030190205416612c71565b9160036040519361215085612af6565b8054855260018101546020860152600281015460408601520154606084015260ff808260081c169116612d84565b60011c926064612192856003880154612dc9565b049561271092836121a482518a612dc9565b0494846121b560208401518b612dc9565b04946121d66060826121cc8d604088015190612dc9565b049401518b612dc9565b04926001600160a01b037f0000000000000000000000000000000000000000000000000000000000000000163b156114b4576001600160a01b03604051917f7dee649a000000000000000000000000000000000000000000000000000000008352166004820152866024820152600160448201525f81606481836001600160a01b037f0000000000000000000000000000000000000000000000000000000000000000165af1801561264e5761263b575b50896001600160a01b0360018a0154166001600160a01b037f0000000000000000000000000000000000000000000000000000000000000000163b156114f357604051907f7dee649a00000000000000000000000000000000000000000000000000000000825260048201528660248201528160448201528181606481836001600160a01b037f0000000000000000000000000000000000000000000000000000000000000000165af18015611cba57612623575b50506040519361234b85612b26565b6004855260803660208701376001600160a01b0389541661236b86612ddc565b526001600160a01b0360018a01541661238386612e16565b526001600160a01b0361239586612e26565b911690526001600160a01b036123aa85612e36565b91169052604051936123bb85612b26565b600485526080366020870137856123d186612ddc565b526123db85612e16565b526123e584612e26565b526123ef83612e36565b526001600160a01b037f0000000000000000000000000000000000000000000000000000000000000000163b15611cc557908691604051917f7c88e3d900000000000000000000000000000000000000000000000000000000835260448301604060048501528251809152602060648501930190855b818110612601575050508261248883829360031984899703016024850152612c3e565b0381836001600160a01b037f0000000000000000000000000000000000000000000000000000000000000000165af18015611cba576125ed575b50506001600160a01b0383541685526004602052604085209081547fffffffffffffffffffffffffffffffffffffffffffffffffffffffffffffffff81146125c0576001600160a01b0394939261253592600160029301825561252a60018301918254612d84565b905501918254612d84565b9055620100007fffffffffffffffffffffffffffffffffffffffffffffffffffffffffff00ffff6004830154161760048201555416906040519081527fc55dda7bfc26593a8b7c922c4287ecf777f04f3c6e1cee77b0ce7252b9f84037602060043592a360017f9b779b17422d0df92223018b32b4d1fa46e071723d6817e2486d003becc55f005580f35b6024877f4e487b710000000000000000000000000000000000000000000000000000000081526011600452fd5b6125f690612b12565b61031657845f6124c2565b82516001600160a01b031685528b965060209485019490920191600101612465565b61262c90612b12565b61263757895f61233c565b8980fd5b612646919a50612b12565b5f985f612287565b6040513d5f823e3d90fd5b9091505f5260205f205f905b828210612678575050810160ff82612122565b600181602092548487015201910190612665565b60ff191685525050801515028201905060ff82612122565b9092506126c0915060403d604011611cf657611ce68183612b7b565b90915f6120f8565b608460405162461bcd60e51b815260206004820152603160248201527f417278436f6e747269627574696f6e4f7261636c653a2066696e616c697a617460448201527f696f6e2064656c6179206e6f74206d65740000000000000000000000000000006064820152fd5b7f4e487b71000000000000000000000000000000000000000000000000000000005f52601160045260245ffd5b608460405162461bcd60e51b815260206004820152603160248201527f417278436f6e747269627574696f6e4f7261636c653a20696e7375666669636960448201527f656e7420636f6e6669726d6174696f6e730000000000000000000000000000006064820152fd5b606460405162461bcd60e51b815260206004820152601860248201527f436f6e747269627574696f6e20697320646973707574656400000000000000006044820152fd5b346114b45760206003193601126114b4576004355f525f6020526020600160405f200154604051908152f35b346114b4576020806003193601126114b4576004355f526005815260405f20908154916001600160a01b0392600180830154916002840191604051925f9181549161288383612aa5565b92838752896001821691825f1461296e575050600114612933575b505050916128fc916128b58260ff96950383612b7b565b64ffffffffff6004600388015497015494604051998a9988610140958381168d5260a01c16908b0152811660408a015260a01c166060880152806080880152860190612bbf565b9260a085015281811660c0850152818160081c1660e0850152818160101c16151561010085015260181c1615156101208301520390f35b8893505f92919252825f20915f925b82841061295957505050830101816128b58461289e565b80548785018601528994909301928101612942565b60ff19168189015293151560051b870190930193508492506128b5915085905061289e565b346114b4575f6003193601126114b45760206040517f68e79a7bf1e0bc45d0a330c573bc367f9cf464fd326078812f301165fbda4ef18152f35b346114b4575f6003193601126114b45760206040517fdc82d2bc6b309b5e255e71921f3167907cff59160d859f9e3e6e061676f7e23b8152f35b346114b45760206003193601126114b457600435907fffffffff0000000000000000000000000000000000000000000000000000000082168092036114b457817f7965db0b0000000000000000000000000000000000000000000000000000000060209314908115612a7b575b5015158152f35b7f01ffc9a70000000000000000000000000000000000000000000000000000000091501483612a74565b90600182811c92168015612aec575b6020831014612abf57565b7f4e487b71000000000000000000000000000000000000000000000000000000005f52602260045260245ffd5b91607f1691612ab4565b6080810190811067ffffffffffffffff82111761031a57604052565b67ffffffffffffffff811161031a57604052565b60a0810190811067ffffffffffffffff82111761031a57604052565b610100810190811067ffffffffffffffff82111761031a57604052565b6040810190811067ffffffffffffffff82111761031a57604052565b90601f601f19910116810190811067ffffffffffffffff82111761031a57604052565b5f5b838110612baf5750505f910152565b8181015183820152602001612ba0565b90601f19601f602093612bdd81518092818752878088019101612b9e565b0116010190565b9181601f840112156114b45782359167ffffffffffffffff83116114b457602083818601950101116114b457565b602435906001600160a01b03821682036114b457565b600435906001600160a01b03821682036114b457565b9081518082526020808093019301915f5b828110612c5d575050505090565b835185529381019392810192600101612c4f565b6003811015612c88575f52600860205260405f2090565b7f4e487b71000000000000000000000000000000000000000000000000000000005f52602160045260245ffd5b919060208301926003821015612c885752565b15612ccf57565b608460405162461bcd60e51b815260206004820152602d60248201527f417278436f6e747269627574696f6e4f7261636c653a20636f6e74726962757460448201527f696f6e206e6f7420666f756e64000000000000000000000000000000000000006064820152fd5b15612d4057565b606460405162461bcd60e51b815260206004820152601160248201527f416c72656164792066696e616c697a65640000000000000000000000000000006044820152fd5b9190820180921161273257565b51906001600160a01b03821682036114b457565b91908260409103126114b457612dc66020612dbf84612d91565b9301612d91565b90565b8181029291811591840414171561273257565b805115612de95760200190565b7f4e487b71000000000000000000000000000000000000000000000000000000005f52603260045260245ffd5b805160011015612de95760400190565b805160021015612de95760600190565b805160031015612de95760800190565b601f8260209493601f1993818652868601375f8582860101520116010190565b15612e6d57565b606460405162461bcd60e51b815260206004820152600d60248201527f4f6e6c79207265736f6c766572000000000000000000000000000000000000006044820152fd5b908160209103126114b4575180151581036114b45790565b6101043560ff811681036114b45790565b6101243560ff811681036114b45790565b7f9b779b17422d0df92223018b32b4d1fa46e071723d6817e2486d003becc55f006002815414612f1b5760029055565b60046040517f3ee5aeb5000000000000000000000000000000000000000000000000000000008152fd5b335f9081527fad3228b676f7d3cd4284a5443f17f1962b36e491b30a40b2405849e597ba5fb5602052604090205460ff1615612f7d57565b60446040517fe2517d3f0000000000000000000000000000000000000000000000000000000081523360048201525f6024820152fd5b805f525f60205260405f20335f5260205260ff60405f205416156114b85750565b90815f525f6020526001600160a01b0360405f20911690815f5260205260ff60405f205416155f1461304b57815f525f60205260405f20815f5260205260405f20600160ff1982541617905533917f2f8788117e7eff1d82e926ec794901d17c78024a50270940304540a733656f0d5f80a4600190565b50505f90565b6001600160a01b037f000000000000000000000000000000000000000000000000000000000000000016301480613153575b156130ac577f000000000000000000000000000000000000000000000000000000000000000090565b60405160208101907f8b73c3c69bb8fe3d512ecc4cf759cc79239f7b179b0ffacaa9a75d522b39400f82527f000000000000000000000000000000000000000000000000000000000000000060408201527f000000000000000000000000000000000000000000000000000000000000000060608201524660808201523060a082015260a0815260c0810181811067ffffffffffffffff82111761031a5760405251902090565b507f00000000000000000000000000000000000000000000000000000000000000004614613083565b90815f525f6020526001600160a01b0360405f20911690815f5260205260ff60405f2054165f1461304b57815f525f60205260405f20815f5260205260405f2060ff19815416905533917ff6391f5c32d9c69d2a47ea670b442974b53935d1edc7fd64eb21e047a839171b5f80a4600190565b60ff81146132455760ff811690601f821161321b576040519161321183612b5f565b8252602082015290565b60046040517fb3512b0c000000000000000000000000000000000000000000000000000000008152fd5b506040515f8160019160015461325a81612aa5565b80845293602091600181169081156132e25750600114613283575b5050612dc692500382612b7b565b91509260015f527fb10e2d527612073b26eecdfd717e6a320cf44b4afac2b0732d9fcbe2b7fa0cf6935f925b8284106132ca5750612dc69450505081016020015f80613275565b855487850183015294850194869450928101926132af565b905060209350612dc695925060ff1991501682840152151560051b8201015f80613275565b60ff81146133295760ff811690601f821161321b576040519161321183612b5f565b50604051600254815f61333b83612aa5565b808352926020906001908181169081156132e25750600114613365575050612dc692500382612b7b565b91509260025f527f405787fa12a823e0f2b7631cc41b3ba8828b3321ca811111fa75cd3aa3bb5ace935f925b8284106133ac5750612dc69450505081016020015f80613275565b85548785018301529485019486945092810192613391565b90604183036133ee576133e79250602081013591604082359201355f1a906133f8565b9192909190565b50505f9160029190565b91907f7fffffffffffffffffffffffffffffff5d576e7357a4501ddfe92f46681b20a0841161346f579160209360809260ff5f9560405194855216868401526040830152606082015282805260015afa1561264e575f516001600160a01b0381161561346557905f905f90565b505f906001905f90565b5050505f916003919056fea26469706673582212203b049223025ec95d147d7c19ff75c5b4c95e9b2273b5c553b912f40134807c1264736f6c63430008180033ad3228b676f7d3cd4284a5443f17f1962b36e491b30a40b2405849e597ba5fb5","linkReferences":{}},"methodIdentifiers":{"CONTRIBUTION_PROOF_TYPEHASH()":"07a53ad8","DEFAULT_ADMIN_ROLE()":"a217fddf","DOMAIN_SEPARATOR()":"3644e515","FINALIZATION_DELAY()":"88dd56ec","MAX_PROOF_AGE()":"5bb39694","MIN_CONFIRMATIONS()":"9e42509e","ORACLE_ROLE()":"07e2cea5","QUALITY_METRICS_TYPEHASH()":"d5754e75","addresses()":"da0321cd","arxoToken()":"cf9bc12e","buildingTiers(string)":"d978cf5a","contributionProofHashes(bytes32)":"3235204c","disputeContribution(bytes32,string)":"2e4861a9","disputeResolver()":"f5a3f4af","eip712Domain()":"84b0196e","finalizeContribution(bytes32)":"27a3c153","flagDisputed(bytes32,address)":"d21c7112","getContribution(bytes32)":"b0fa0db9","getRoleAdmin(bytes32)":"248a9ca3","grantRole(bytes32,address)":"2f2ff15d","hasConfirmed(bytes32,address)":"c2cf7326","hasRole(bytes32,address)":"91d14854","pendingContributions(bytes32)":"1c937ba2","proposeContribution(string,address,uint256,(bytes32,bytes32,bytes32,uint256,uint256,(uint8,uint8)),bytes)":"bb3cd49e","registry()":"7b103999","renounceRole(bytes32,address)":"36568abe","resolveDispute(bytes32,bool)":"43a0e3e6","revokeRole(bytes32,address)":"d547741f","setBuildingTier(string,uint8)":"6c8d5119","setResolver(address)":"4e543b26","staking()":"4cf088d9","supportsInterface(bytes4)":"01ffc9a7","tierConfigs(uint8)":"9da9db2a","updateTierConfig(uint8,uint256,uint256,uint256,uint256)":"b4772636","usedProofs(bytes32)":"c30a0f25","workerStats(address)":"e48a3a60"},"id":48}