{"abi":[{"type":"constructor","inputs":[{"name":"admin","type":"address","internalType":"address"},{"name":"_arxoToken","type":"address","internalType":"address"},{"name":"_registry","type":"address","internalType":"address"},{"name":"_addresses","type":"address","internalType":"address"}],"stateMutability":"nonpayable"},{"type":"function","name":"CONTRIBUTION_PROOF_TYPEHASH","inputs":[],"outputs":[{"name":"","type":"bytes32","internalType":"bytes32"}],"stateMutability":"view"},{"type":"function","name":"DEFAULT_ADMIN_ROLE","inputs":[],"outputs":[{"name":"","type":"bytes32","internalType":"bytes32"}],"stateMutability":"view"},{"type":"function","name":"FINALIZATION_DELAY","inputs":[],"outputs":[{"name":"","type":"uint256","internalType":"uint256"}],"stateMutability":"view"},{"type":"function","name":"MAX_PROOF_AGE","inputs":[],"outputs":[{"name":"","type":"uint256","internalType":"uint256"}],"stateMutability":"view"},{"type":"function","name":"MIN_CONFIRMATIONS","inputs":[],"outputs":[{"name":"","type":"uint256","internalType":"uint256"}],"stateMutability":"view"},{"type":"function","name":"ORACLE_ROLE","inputs":[],"outputs":[{"name":"","type":"bytes32","internalType":"bytes32"}],"stateMutability":"view"},{"type":"function","name":"addresses","inputs":[],"outputs":[{"name":"","type":"address","internalType":"contract ArxAddresses"}],"stateMutability":"view"},{"type":"function","name":"arxoToken","inputs":[],"outputs":[{"name":"","type":"address","internalType":"contract ArxosToken"}],"stateMutability":"view"},{"type":"function","name":"contributionProofHashes","inputs":[{"name":"","type":"bytes32","internalType":"bytes32"}],"outputs":[{"name":"","type":"bytes32","internalType":"bytes32"}],"stateMutability":"view"},{"type":"function","name":"disputeContribution","inputs":[{"name":"contributionId","type":"bytes32","internalType":"bytes32"},{"name":"reason","type":"string","internalType":"string"}],"outputs":[],"stateMutability":"nonpayable"},{"type":"function","name":"eip712Domain","inputs":[],"outputs":[{"name":"fields","type":"bytes1","internalType":"bytes1"},{"name":"name","type":"string","internalType":"string"},{"name":"version","type":"string","internalType":"string"},{"name":"chainId","type":"uint256","internalType":"uint256"},{"name":"verifyingContract","type":"address","internalType":"address"},{"name":"salt","type":"bytes32","internalType":"bytes32"},{"name":"extensions","type":"uint256[]","internalType":"uint256[]"}],"stateMutability":"view"},{"type":"function","name":"finalizeContribution","inputs":[{"name":"contributionId","type":"bytes32","internalType":"bytes32"}],"outputs":[],"stateMutability":"nonpayable"},{"type":"function","name":"getContribution","inputs":[{"name":"contributionId","type":"bytes32","internalType":"bytes32"}],"outputs":[{"name":"worker","type":"address","internalType":"address"},{"name":"building","type":"address","internalType":"address"},{"name":"amount","type":"uint256","internalType":"uint256"},{"name":"confirmations","type":"uint256","internalType":"uint256"},{"name":"proposedAt","type":"uint256","internalType":"uint256"},{"name":"finalized","type":"bool","internalType":"bool"}],"stateMutability":"view"},{"type":"function","name":"getRoleAdmin","inputs":[{"name":"role","type":"bytes32","internalType":"bytes32"}],"outputs":[{"name":"","type":"bytes32","internalType":"bytes32"}],"stateMutability":"view"},{"type":"function","name":"grantRole","inputs":[{"name":"role","type":"bytes32","internalType":"bytes32"},{"name":"account","type":"address","internalType":"address"}],"outputs":[],"stateMutability":"nonpayable"},{"type":"function","name":"hasConfirmed","inputs":[{"name":"contributionId","type":"bytes32","internalType":"bytes32"},{"name":"oracle","type":"address","internalType":"address"}],"outputs":[{"name":"","type":"bool","internalType":"bool"}],"stateMutability":"view"},{"type":"function","name":"hasRole","inputs":[{"name":"role","type":"bytes32","internalType":"bytes32"},{"name":"account","type":"address","internalType":"address"}],"outputs":[{"name":"","type":"bool","internalType":"bool"}],"stateMutability":"view"},{"type":"function","name":"pendingContributions","inputs":[{"name":"","type":"bytes32","internalType":"bytes32"}],"outputs":[{"name":"worker","type":"address","internalType":"address"},{"name":"building","type":"address","internalType":"address"},{"name":"amount","type":"uint256","internalType":"uint256"},{"name":"confirmations","type":"uint256","internalType":"uint256"},{"name":"proposedAt","type":"uint256","internalType":"uint256"},{"name":"finalized","type":"bool","internalType":"bool"}],"stateMutability":"view"},{"type":"function","name":"proposeContribution","inputs":[{"name":"buildingId","type":"string","internalType":"string"},{"name":"worker","type":"address","internalType":"address"},{"name":"amount","type":"uint256","internalType":"uint256"},{"name":"proof","type":"tuple","internalType":"struct ArxContributionOracle.ContributionProof","components":[{"name":"merkleRoot","type":"bytes32","internalType":"bytes32"},{"name":"locationHash","type":"bytes32","internalType":"bytes32"},{"name":"buildingHash","type":"bytes32","internalType":"bytes32"},{"name":"timestamp","type":"uint256","internalType":"uint256"},{"name":"dataSize","type":"uint256","internalType":"uint256"}]},{"name":"signature","type":"bytes","internalType":"bytes"}],"outputs":[],"stateMutability":"nonpayable"},{"type":"function","name":"registry","inputs":[],"outputs":[{"name":"","type":"address","internalType":"contract ArxRegistry"}],"stateMutability":"view"},{"type":"function","name":"renounceRole","inputs":[{"name":"role","type":"bytes32","internalType":"bytes32"},{"name":"callerConfirmation","type":"address","internalType":"address"}],"outputs":[],"stateMutability":"nonpayable"},{"type":"function","name":"revokeRole","inputs":[{"name":"role","type":"bytes32","internalType":"bytes32"},{"name":"account","type":"address","internalType":"address"}],"outputs":[],"stateMutability":"nonpayable"},{"type":"function","name":"supportsInterface","inputs":[{"name":"interfaceId","type":"bytes4","internalType":"bytes4"}],"outputs":[{"name":"","type":"bool","internalType":"bool"}],"stateMutability":"view"},{"type":"function","name":"usedProofs","inputs":[{"name":"","type":"bytes32","internalType":"bytes32"}],"outputs":[{"name":"","type":"bool","internalType":"bool"}],"stateMutability":"view"},{"type":"event","name":"ContributionConfirmed","inputs":[{"name":"contributionId","type":"bytes32","indexed":true,"internalType":"bytes32"},{"name":"oracle","type":"address","indexed":true,"internalType":"address"},{"name":"confirmations","type":"uint256","indexed":false,"internalType":"uint256"}],"anonymous":false},{"type":"event","name":"ContributionDisputed","inputs":[{"name":"contributionId","type":"bytes32","indexed":true,"internalType":"bytes32"},{"name":"disputer","type":"address","indexed":true,"internalType":"address"},{"name":"reason","type":"string","indexed":false,"internalType":"string"}],"anonymous":false},{"type":"event","name":"ContributionFinalized","inputs":[{"name":"contributionId","type":"bytes32","indexed":true,"internalType":"bytes32"},{"name":"worker","type":"address","indexed":true,"internalType":"address"},{"name":"amount","type":"uint256","indexed":false,"internalType":"uint256"}],"anonymous":false},{"type":"event","name":"ContributionProposed","inputs":[{"name":"contributionId","type":"bytes32","indexed":true,"internalType":"bytes32"},{"name":"worker","type":"address","indexed":true,"internalType":"address"},{"name":"buildingId","type":"string","indexed":false,"internalType":"string"},{"name":"amount","type":"uint256","indexed":false,"internalType":"uint256"},{"name":"oracle","type":"address","indexed":false,"internalType":"address"}],"anonymous":false},{"type":"event","name":"EIP712DomainChanged","inputs":[],"anonymous":false},{"type":"event","name":"RoleAdminChanged","inputs":[{"name":"role","type":"bytes32","indexed":true,"internalType":"bytes32"},{"name":"previousAdminRole","type":"bytes32","indexed":true,"internalType":"bytes32"},{"name":"newAdminRole","type":"bytes32","indexed":true,"internalType":"bytes32"}],"anonymous":false},{"type":"event","name":"RoleGranted","inputs":[{"name":"role","type":"bytes32","indexed":true,"internalType":"bytes32"},{"name":"account","type":"address","indexed":true,"internalType":"address"},{"name":"sender","type":"address","indexed":true,"internalType":"address"}],"anonymous":false},{"type":"event","name":"RoleRevoked","inputs":[{"name":"role","type":"bytes32","indexed":true,"internalType":"bytes32"},{"name":"account","type":"address","indexed":true,"internalType":"address"},{"name":"sender","type":"address","indexed":true,"internalType":"address"}],"anonymous":false},{"type":"error","name":"AccessControlBadConfirmation","inputs":[]},{"type":"error","name":"AccessControlUnauthorizedAccount","inputs":[{"name":"account","type":"address","internalType":"address"},{"name":"neededRole","type":"bytes32","internalType":"bytes32"}]},{"type":"error","name":"InvalidShortString","inputs":[]},{"type":"error","name":"ReentrancyGuardReentrantCall","inputs":[]},{"type":"error","name":"StringTooLong","inputs":[{"name":"str","type":"string","internalType":"string"}]}],"bytecode":{"object":"0x6101c060405234801562000011575f80fd5b50604051620023e0380380620023e083398101604081905262000034916200047c565b6040518060400160405280601981526020017f4172784f5320436f6e747269627574696f6e204f7261636c6500000000000000815250604051806040016040528060018152602001603160f81b81525060016200009d6200009a6200031760201b60201c565b90565b55620000ab8260016200033b565b61012052620000bc8160026200033b565b61014052815160208084019190912060e052815190820120610100524660a0526200014960e05161010051604080517f8b73c3c69bb8fe3d512ecc4cf759cc79239f7b179b0ffacaa9a75d522b39400f60208201529081019290925260608201524660808201523060a08201525f9060c00160405160208183030381529060405280519060200120905090565b60805250503060c0526001600160a01b038416620001b85760405162461bcd60e51b815260206004820152602160248201527f417278436f6e747269627574696f6e4f7261636c653a207a65726f2061646d696044820152603760f91b60648201526084015b60405180910390fd5b6001600160a01b0383166200021a5760405162461bcd60e51b815260206004820152602160248201527f417278436f6e747269627574696f6e4f7261636c653a207a65726f20746f6b656044820152603760f91b6064820152608401620001af565b6001600160a01b0382166200027e5760405162461bcd60e51b8152602060048201526024808201527f417278436f6e747269627574696f6e4f7261636c653a207a65726f20726567696044820152637374727960e01b6064820152608401620001af565b6001600160a01b038116620002e45760405162461bcd60e51b815260206004820152602560248201527f417278436f6e747269627574696f6e4f7261636c653a207a65726f2061646472604482015264657373657360d81b6064820152608401620001af565b6001600160a01b03808416610160528281166101805281166101a0526200030c5f8562000373565b5050505050620006b2565b7f9b779b17422d0df92223018b32b4d1fa46e071723d6817e2486d003becc55f0090565b5f6020835110156200035a5762000352836200041e565b90506200036d565b8162000367848262000574565b5060ff90505b92915050565b5f828152602081815260408083206001600160a01b038516845290915281205460ff1662000416575f838152602081815260408083206001600160a01b03861684529091529020805460ff19166001179055620003cd3390565b6001600160a01b0316826001600160a01b0316847f2f8788117e7eff1d82e926ec794901d17c78024a50270940304540a733656f0d60405160405180910390a45060016200036d565b505f6200036d565b5f80829050601f815111156200044b578260405163305a27a960e01b8152600401620001af919062000640565b805162000458826200068e565b179392505050565b80516001600160a01b038116811462000477575f80fd5b919050565b5f805f806080858703121562000490575f80fd5b6200049b8562000460565b9350620004ab6020860162000460565b9250620004bb6040860162000460565b9150620004cb6060860162000460565b905092959194509250565b634e487b7160e01b5f52604160045260245ffd5b600181811c90821680620004ff57607f821691505b6020821081036200051e57634e487b7160e01b5f52602260045260245ffd5b50919050565b601f8211156200056f57805f5260205f20601f840160051c810160208510156200054b5750805b601f840160051c820191505b818110156200056c575f815560010162000557565b50505b505050565b81516001600160401b03811115620005905762000590620004d6565b620005a881620005a18454620004ea565b8462000524565b602080601f831160018114620005de575f8415620005c65750858301515b5f19600386901b1c1916600185901b17855562000638565b5f85815260208120601f198616915b828110156200060e57888601518255948401946001909101908401620005ed565b50858210156200062c57878501515f19600388901b60f8161c191681555b505060018460011b0185555b505050505050565b5f602080835283518060208501525f5b818110156200066e5785810183015185820160400152820162000650565b505f604082860101526040601f19601f8301168501019250505092915050565b805160208083015191908110156200051e575f1960209190910360031b1b16919050565b60805160a05160c05160e05161010051610120516101405161016051610180516101a051611c9b620007455f395f8181610448015261061901525f818161030401528181610bf901528181610cd60152610e2401525f818161040e01526106e401525f61121701525f6111e501525f61164401525f61161c01525f61157701525f6115a101525f6115cb0152611c9b5ff3fe608060405234801561000f575f80fd5b5060043610610153575f3560e01c806384b0196e116100bf578063b9a2015e11610079578063b9a2015e14610398578063c2cf7326146103ab578063c30a0f25146103e7578063cf9bc12e14610409578063d547741f14610430578063da0321cd14610443575f80fd5b806384b0196e1461033e57806388dd56ec1461035957806391d14854146103635780639e42509e14610376578063a217fddf1461037e578063b0fa0db914610385575f80fd5b80632e4861a9116101105780632e4861a91461029e5780632f2ff15d146102b15780633235204c146102c457806336568abe146102e35780635bb39694146102f65780637b103999146102ff575f80fd5b806301ffc9a71461015757806307a53ad81461017f57806307e2cea5146101b45780631c937ba2146101db578063248a9ca31461026757806327a3c15314610289575b5f80fd5b61016a610165366004611783565b61046a565b60405190151581526020015b60405180910390f35b6101a67fe7286d76b0cba5548310fb63c5c2349a7fec9ea16b111b108aab1180c8e983fd81565b604051908152602001610176565b6101a67f68e79a7bf1e0bc45d0a330c573bc367f9cf464fd326078812f301165fbda4ef181565b61022d6101e93660046117b1565b600360208190525f91825260409091208054600182015460028301549383015460048401546005909401546001600160a01b03938416959390921693909160ff1686565b604080516001600160a01b0397881681529690951660208701529385019290925260608401526080830152151560a082015260c001610176565b6101a66102753660046117b1565b5f9081526020819052604090206001015490565b61029c6102973660046117b1565b6104a0565b005b61029c6102ac36600461180d565b6107b4565b61029c6102bf366004611869565b610914565b6101a66102d23660046117b1565b60056020525f908152604090205481565b61029c6102f1366004611869565b61093e565b6101a6610e1081565b6103267f000000000000000000000000000000000000000000000000000000000000000081565b6040516001600160a01b039091168152602001610176565b610346610976565b60405161017697969594939291906118da565b6101a66201518081565b61016a610371366004611869565b6109b8565b6101a6600281565b6101a65f81565b61022d6103933660046117b1565b6109e0565b61029c6103a6366004611971565b610a8d565b61016a6103b9366004611869565b5f8281526003602090815260408083206001600160a01b038516845260060190915290205460ff1692915050565b61016a6103f53660046117b1565b60046020525f908152604090205460ff1681565b6103267f000000000000000000000000000000000000000000000000000000000000000081565b61029c61043e366004611869565b61109d565b6103267f000000000000000000000000000000000000000000000000000000000000000081565b5f6001600160e01b03198216637965db0b60e01b148061049a57506301ffc9a760e01b6001600160e01b03198316145b92915050565b6104a86110c1565b5f818152600360208190526040909120908101546104e15760405162461bcd60e51b81526004016104d890611a17565b60405180910390fd5b600581015460ff161561052a5760405162461bcd60e51b8152602060048201526011602482015270105b1c9958591e48199a5b985b1a5e9959607a1b60448201526064016104d8565b6002816003015410156105995760405162461bcd60e51b815260206004820152603160248201527f417278436f6e747269627574696f6e4f7261636c653a20696e73756666696369604482015270656e7420636f6e6669726d6174696f6e7360781b60648201526084016104d8565b6201518081600401546105ac9190611a78565b4210156106155760405162461bcd60e51b815260206004820152603160248201527f417278436f6e747269627574696f6e4f7261636c653a2066696e616c697a61746044820152701a5bdb8819195b185e481b9bdd081b595d607a1b60648201526084016104d8565b5f807f00000000000000000000000000000000000000000000000000000000000000006001600160a01b031663a39fac126040518163ffffffff1660e01b81526004016040805180830381865afa158015610672573d5f803e3d5ffd5b505050506040513d601f19601f820116820180604052508101906106969190611a8b565b845460018601546002870154604051632e620e7b60e01b81526001600160a01b03938416600482015291831660248301528285166044830152828416606483015260848201529294509092507f00000000000000000000000000000000000000000000000000000000000000001690632e620e7b9060a4015f604051808303815f87803b158015610725575f80fd5b505af1158015610737573d5f803e3d5ffd5b50505060058401805460ff1916600117905550825460028401546040516001600160a01b039092169186917fc55dda7bfc26593a8b7c922c4287ecf777f04f3c6e1cee77b0ce7252b9f840379161079091815260200190565b60405180910390a35050506107b160015f80516020611c4683398151915255565b50565b6107be5f336109b8565b806107ee57506107ee7f68e79a7bf1e0bc45d0a330c573bc367f9cf464fd326078812f301165fbda4ef1336109b8565b6108515760405162461bcd60e51b815260206004820152602e60248201527f417278436f6e747269627574696f6e4f7261636c653a206d757374206265206160448201526d646d696e206f72206f7261636c6560901b60648201526084016104d8565b5f838152600360208190526040909120908101546108815760405162461bcd60e51b81526004016104d890611a17565b600581015460ff16156108ca5760405162461bcd60e51b8152602060048201526011602482015270105b1c9958591e48199a5b985b1a5e9959607a1b60448201526064016104d8565b336001600160a01b0316847fb96219a97eea5a53eda6df0078c1c9287caa64de7bc33f76051503c238894ac68585604051610906929190611ae0565b60405180910390a350505050565b5f8281526020819052604090206001015461092e816110dc565b61093883836110e6565b50505050565b6001600160a01b03811633146109675760405163334bd91960e11b815260040160405180910390fd5b6109718282611175565b505050565b5f6060805f805f60606109876111de565b61098f611210565b604080515f80825260208201909252600f60f81b9b939a50919850469750309650945092509050565b5f918252602082815260408084206001600160a01b0393909316845291905290205460ff1690565b5f818152600360205260408120600481015482918291829182918291908203610a4b5760405162461bcd60e51b815260206004820152601b60248201527f436f6e747269627574696f6e20646f6573206e6f74206578697374000000000060448201526064016104d8565b805460018201546002830154600384015460048501546005909501546001600160a01b039485169d949093169b50909950975091955060ff9091169350915050565b7f68e79a7bf1e0bc45d0a330c573bc367f9cf464fd326078812f301165fbda4ef1610ab7816110dc565b610abf6110c1565b5f84604051602001610b0591905f60a082019050823582526020830135602083015260408301356040830152606083013560608301526080830135608083015292915050565b60408051601f19818403018152919052805160209091012090506001600160a01b038716610b805760405162461bcd60e51b815260206004820152602260248201527f417278436f6e747269627574696f6e4f7261636c653a207a65726f20776f726b60448201526132b960f11b60648201526084016104d8565b5f8611610bda5760405162461bcd60e51b815260206004820152602260248201527f417278436f6e747269627574696f6e4f7261636c653a207a65726f20616d6f756044820152611b9d60f21b60648201526084016104d8565b60405163c5689dbf60e01b81526001600160a01b0388811660048301527f0000000000000000000000000000000000000000000000000000000000000000169063c5689dbf90602401602060405180830381865afa158015610c3e573d5f803e3d5ffd5b505050506040513d601f19601f82011682018060405250810190610c629190611afb565b610cbf5760405162461bcd60e51b815260206004820152602860248201527f417278436f6e747269627574696f6e4f7261636c653a20776f726b6572206e6f604482015267742061637469766560c01b60648201526084016104d8565b604051632329765b60e01b81526001600160a01b037f00000000000000000000000000000000000000000000000000000000000000001690632329765b90610d0d908c908c90600401611ae0565b602060405180830381865afa158015610d28573d5f803e3d5ffd5b505050506040513d601f19601f82011682018060405250810190610d4c9190611afb565b610d985760405162461bcd60e51b815260206004820152601760248201527f4275696c64696e67206e6f74207265676973746572656400000000000000000060448201526064016104d8565b610da48588868661123d565b5f89898989604051602001610dbc9493929190611b1a565b60408051601f1981840301815291815281516020928301205f81815260058452828120869055600393849052918220928301549093509003610f0c5780546001600160a01b0319166001600160a01b038a811691909117825560405163ca0e4a7b60e01b81527f00000000000000000000000000000000000000000000000000000000000000009091169063ca0e4a7b90610e5d908e908e90600401611ae0565b602060405180830381865afa158015610e78573d5f803e3d5ffd5b505050506040513d601f19601f82011682018060405250810190610e9c9190611b4a565b6001820180546001600160a01b0319166001600160a01b0392831617905560028201899055426004830155604051908a169083907f77e10e89a1ecc7573bca2edf10c705f6fe79cd58f4f58bdde7bf77c70f9026fc90610f03908f908f908e903390611b65565b60405180910390a35b335f90815260068201602052604090205460ff1615610f7e5760405162461bcd60e51b815260206004820152602860248201527f417278436f6e747269627574696f6e4f7261636c653a20616c726561647920636044820152671bdb999a5c9b595960c21b60648201526084016104d8565b5f8381526004602052604090205460ff1615610fee5760405162461bcd60e51b815260206004820152602960248201527f417278436f6e747269627574696f6e4f7261636c653a2070726f6f6620616c726044820152681958591e481d5cd95960ba1b60648201526084016104d8565b335f9081526006820160205260408120805460ff191660011790556003820180549161101983611b99565b90915550505f8381526004602052604090819020805460ff1916600117905560038201549051339184917f6fd675484b7bf3b926146089956526e50f342f2f2a794a586aba9cedf50352d5916110729190815260200190565b60405180910390a350505061109360015f80516020611c4683398151915255565b5050505050505050565b5f828152602081905260409020600101546110b7816110dc565b6109388383611175565b6110c96113a4565b60025f80516020611c4683398151915255565b6107b181336113d5565b5f6110f183836109b8565b61116e575f838152602081815260408083206001600160a01b03861684529091529020805460ff191660011790556111263390565b6001600160a01b0316826001600160a01b0316847f2f8788117e7eff1d82e926ec794901d17c78024a50270940304540a733656f0d60405160405180910390a450600161049a565b505f61049a565b5f61118083836109b8565b1561116e575f838152602081815260408083206001600160a01b0386168085529252808320805460ff1916905551339286917ff6391f5c32d9c69d2a47ea670b442974b53935d1edc7fd64eb21e047a839171b9190a450600161049a565b606061120b7f00000000000000000000000000000000000000000000000000000000000000006001611412565b905090565b606061120b7f00000000000000000000000000000000000000000000000000000000000000006002611412565b61124d610e106060860135611a78565b4211156112a85760405162461bcd60e51b8152602060048201526024808201527f417278436f6e747269627574696f6e4f7261636c653a2070726f6f66206578706044820152631a5c995960e21b60648201526084016104d8565b604080517fe7286d76b0cba5548310fb63c5c2349a7fec9ea16b111b108aab1180c8e983fd602080830191909152863582840152860135606080830191909152918601356080808301919091529186013560a08201529085013560c08201525f9060e0016040516020818303038152906040528051906020012090505f61132e826114bb565b90505f8061133d8387876114e7565b5090925090505f81600381111561135657611356611bb1565b146113735760405162461bcd60e51b81526004016104d890611bc5565b866001600160a01b0316826001600160a01b0316146110935760405162461bcd60e51b81526004016104d890611bc5565b5f80516020611c46833981519152546002036113d357604051633ee5aeb560e01b815260040160405180910390fd5b565b6113df82826109b8565b61140e5760405163e2517d3f60e01b81526001600160a01b0382166004820152602481018390526044016104d8565b5050565b606060ff831461142c576114258361152e565b905061049a565b81805461143890611c0d565b80601f016020809104026020016040519081016040528092919081815260200182805461146490611c0d565b80156114af5780601f10611486576101008083540402835291602001916114af565b820191905f5260205f20905b81548152906001019060200180831161149257829003601f168201915b5050505050905061049a565b5f61049a6114c761156b565b8360405161190160f01b8152600281019290925260228201526042902090565b5f8080604184900361151b578435602086013560408701355f1a61150d89828585611694565b955095509550505050611525565b505f915060029050825b93509350939050565b60605f61153a8361175c565b6040805160208082528183019092529192505f91906020820181803683375050509182525060208101929092525090565b5f306001600160a01b037f0000000000000000000000000000000000000000000000000000000000000000161480156115c357507f000000000000000000000000000000000000000000000000000000000000000046145b156115ed57507f000000000000000000000000000000000000000000000000000000000000000090565b61120b604080517f8b73c3c69bb8fe3d512ecc4cf759cc79239f7b179b0ffacaa9a75d522b39400f60208201527f0000000000000000000000000000000000000000000000000000000000000000918101919091527f000000000000000000000000000000000000000000000000000000000000000060608201524660808201523060a08201525f9060c00160405160208183030381529060405280519060200120905090565b5f80807f7fffffffffffffffffffffffffffffff5d576e7357a4501ddfe92f46681b20a08411156116cd57505f91506003905082611752565b604080515f808252602082018084528a905260ff891692820192909252606081018790526080810186905260019060a0016020604051602081039080840390855afa15801561171e573d5f803e3d5ffd5b5050604051601f1901519150506001600160a01b03811661174957505f925060019150829050611752565b92505f91508190505b9450945094915050565b5f60ff8216601f81111561049a57604051632cd44ac360e21b815260040160405180910390fd5b5f60208284031215611793575f80fd5b81356001600160e01b0319811681146117aa575f80fd5b9392505050565b5f602082840312156117c1575f80fd5b5035919050565b5f8083601f8401126117d8575f80fd5b50813567ffffffffffffffff8111156117ef575f80fd5b602083019150836020828501011115611806575f80fd5b9250929050565b5f805f6040848603121561181f575f80fd5b83359250602084013567ffffffffffffffff81111561183c575f80fd5b611848868287016117c8565b9497909650939450505050565b6001600160a01b03811681146107b1575f80fd5b5f806040838503121561187a575f80fd5b82359150602083013561188c81611855565b809150509250929050565b5f81518084525f5b818110156118bb5760208185018101518683018201520161189f565b505f602082860101526020601f19601f83011685010191505092915050565b60ff60f81b881681525f602060e060208401526118fa60e084018a611897565b838103604085015261190c818a611897565b606085018990526001600160a01b038816608086015260a0850187905284810360c0860152855180825260208088019350909101905f5b8181101561195f57835183529284019291840191600101611943565b50909c9b505050505050505050505050565b5f805f805f805f878903610120811215611989575f80fd5b883567ffffffffffffffff808211156119a0575f80fd5b6119ac8c838d016117c8565b909a50985060208b013591506119c182611855565b81975060408b0135965060a0605f19840112156119dc575f80fd5b60608b0195506101008b01359250808311156119f6575f80fd5b5050611a048a828b016117c8565b989b979a50959850939692959293505050565b6020808252602d908201527f417278436f6e747269627574696f6e4f7261636c653a20636f6e74726962757460408201526c1a5bdb881b9bdd08199bdd5b99609a1b606082015260800190565b634e487b7160e01b5f52601160045260245ffd5b8082018082111561049a5761049a611a64565b5f8060408385031215611a9c575f80fd5b8251611aa781611855565b602084015190925061188c81611855565b81835281816020850137505f828201602090810191909152601f909101601f19169091010190565b602081525f611af3602083018486611ab8565b949350505050565b5f60208284031215611b0b575f80fd5b815180151581146117aa575f80fd5b8385823760609290921b6bffffffffffffffffffffffff1916919092019081526014810191909152603401919050565b5f60208284031215611b5a575f80fd5b81516117aa81611855565b606081525f611b78606083018688611ab8565b6020830194909452506001600160a01b039190911660409091015292915050565b5f60018201611baa57611baa611a64565b5060010190565b634e487b7160e01b5f52602160045260245ffd5b60208082526028908201527f417278436f6e747269627574696f6e4f7261636c653a20696e76616c6964207360408201526769676e617475726560c01b606082015260800190565b600181811c90821680611c2157607f821691505b602082108103611c3f57634e487b7160e01b5f52602260045260245ffd5b5091905056fe9b779b17422d0df92223018b32b4d1fa46e071723d6817e2486d003becc55f00a2646970667358221220f033ee987d8547388b3269e69c248daf8ca75af0af8f4dfa017ef6dbe0f446ea64736f6c63430008180033","linkReferences":{}},"methodIdentifiers":{"CONTRIBUTION_PROOF_TYPEHASH()":"07a53ad8","DEFAULT_ADMIN_ROLE()":"a217fddf","FINALIZATION_DELAY()":"88dd56ec","MAX_PROOF_AGE()":"5bb39694","MIN_CONFIRMATIONS()":"9e42509e","ORACLE_ROLE()":"07e2cea5","addresses()":"da0321cd","arxoToken()":"cf9bc12e","contributionProofHashes(bytes32)":"3235204c","disputeContribution(bytes32,string)":"2e4861a9","eip712Domain()":"84b0196e","finalizeContribution(bytes32)":"27a3c153","getContribution(bytes32)":"b0fa0db9","getRoleAdmin(bytes32)":"248a9ca3","grantRole(bytes32,address)":"2f2ff15d","hasConfirmed(bytes32,address)":"c2cf7326","hasRole(bytes32,address)":"91d14854","pendingContributions(bytes32)":"1c937ba2","proposeContribution(string,address,uint256,(bytes32,bytes32,bytes32,uint256,uint256),bytes)":"b9a2015e","registry()":"7b103999","renounceRole(bytes32,address)":"36568abe","revokeRole(bytes32,address)":"d547741f","supportsInterface(bytes4)":"01ffc9a7","usedProofs(bytes32)":"c30a0f25"},"id":48}