{"abi":[{"type":"constructor","inputs":[{"name":"admin","type":"address","internalType":"address"},{"name":"_arxoToken","type":"address","internalType":"address"},{"name":"_registry","type":"address","internalType":"address"},{"name":"_addresses","type":"address","internalType":"address"},{"name":"_staking","type":"address","internalType":"address"}],"stateMutability":"nonpayable"},{"type":"function","name":"CONTRIBUTION_PROOF_TYPEHASH","inputs":[],"outputs":[{"name":"","type":"bytes32","internalType":"bytes32"}],"stateMutability":"view"},{"type":"function","name":"DEFAULT_ADMIN_ROLE","inputs":[],"outputs":[{"name":"","type":"bytes32","internalType":"bytes32"}],"stateMutability":"view"},{"type":"function","name":"FINALIZATION_DELAY","inputs":[],"outputs":[{"name":"","type":"uint256","internalType":"uint256"}],"stateMutability":"view"},{"type":"function","name":"MAX_PROOF_AGE","inputs":[],"outputs":[{"name":"","type":"uint256","internalType":"uint256"}],"stateMutability":"view"},{"type":"function","name":"MIN_CONFIRMATIONS","inputs":[],"outputs":[{"name":"","type":"uint256","internalType":"uint256"}],"stateMutability":"view"},{"type":"function","name":"ORACLE_ROLE","inputs":[],"outputs":[{"name":"","type":"bytes32","internalType":"bytes32"}],"stateMutability":"view"},{"type":"function","name":"addresses","inputs":[],"outputs":[{"name":"","type":"address","internalType":"contract ArxAddresses"}],"stateMutability":"view"},{"type":"function","name":"arxoToken","inputs":[],"outputs":[{"name":"","type":"address","internalType":"contract ArxosToken"}],"stateMutability":"view"},{"type":"function","name":"contributionProofHashes","inputs":[{"name":"","type":"bytes32","internalType":"bytes32"}],"outputs":[{"name":"","type":"bytes32","internalType":"bytes32"}],"stateMutability":"view"},{"type":"function","name":"disputeContribution","inputs":[{"name":"contributionId","type":"bytes32","internalType":"bytes32"},{"name":"reason","type":"string","internalType":"string"}],"outputs":[],"stateMutability":"nonpayable"},{"type":"function","name":"eip712Domain","inputs":[],"outputs":[{"name":"fields","type":"bytes1","internalType":"bytes1"},{"name":"name","type":"string","internalType":"string"},{"name":"version","type":"string","internalType":"string"},{"name":"chainId","type":"uint256","internalType":"uint256"},{"name":"verifyingContract","type":"address","internalType":"address"},{"name":"salt","type":"bytes32","internalType":"bytes32"},{"name":"extensions","type":"uint256[]","internalType":"uint256[]"}],"stateMutability":"view"},{"type":"function","name":"finalizeContribution","inputs":[{"name":"contributionId","type":"bytes32","internalType":"bytes32"}],"outputs":[],"stateMutability":"nonpayable"},{"type":"function","name":"getContribution","inputs":[{"name":"contributionId","type":"bytes32","internalType":"bytes32"}],"outputs":[{"name":"worker","type":"address","internalType":"address"},{"name":"building","type":"address","internalType":"address"},{"name":"amount","type":"uint256","internalType":"uint256"},{"name":"confirmations","type":"uint256","internalType":"uint256"},{"name":"proposedAt","type":"uint256","internalType":"uint256"},{"name":"finalized","type":"bool","internalType":"bool"}],"stateMutability":"view"},{"type":"function","name":"getRoleAdmin","inputs":[{"name":"role","type":"bytes32","internalType":"bytes32"}],"outputs":[{"name":"","type":"bytes32","internalType":"bytes32"}],"stateMutability":"view"},{"type":"function","name":"grantRole","inputs":[{"name":"role","type":"bytes32","internalType":"bytes32"},{"name":"account","type":"address","internalType":"address"}],"outputs":[],"stateMutability":"nonpayable"},{"type":"function","name":"hasConfirmed","inputs":[{"name":"contributionId","type":"bytes32","internalType":"bytes32"},{"name":"oracle","type":"address","internalType":"address"}],"outputs":[{"name":"","type":"bool","internalType":"bool"}],"stateMutability":"view"},{"type":"function","name":"hasRole","inputs":[{"name":"role","type":"bytes32","internalType":"bytes32"},{"name":"account","type":"address","internalType":"address"}],"outputs":[{"name":"","type":"bool","internalType":"bool"}],"stateMutability":"view"},{"type":"function","name":"pendingContributions","inputs":[{"name":"","type":"bytes32","internalType":"bytes32"}],"outputs":[{"name":"worker","type":"address","internalType":"address"},{"name":"building","type":"address","internalType":"address"},{"name":"amount","type":"uint256","internalType":"uint256"},{"name":"confirmations","type":"uint256","internalType":"uint256"},{"name":"proposedAt","type":"uint256","internalType":"uint256"},{"name":"finalized","type":"bool","internalType":"bool"}],"stateMutability":"view"},{"type":"function","name":"proposeContribution","inputs":[{"name":"buildingId","type":"string","internalType":"string"},{"name":"worker","type":"address","internalType":"address"},{"name":"amount","type":"uint256","internalType":"uint256"},{"name":"proof","type":"tuple","internalType":"struct ArxContributionOracle.ContributionProof","components":[{"name":"merkleRoot","type":"bytes32","internalType":"bytes32"},{"name":"locationHash","type":"bytes32","internalType":"bytes32"},{"name":"buildingHash","type":"bytes32","internalType":"bytes32"},{"name":"timestamp","type":"uint256","internalType":"uint256"},{"name":"dataSize","type":"uint256","internalType":"uint256"}]},{"name":"signature","type":"bytes","internalType":"bytes"}],"outputs":[],"stateMutability":"nonpayable"},{"type":"function","name":"registry","inputs":[],"outputs":[{"name":"","type":"address","internalType":"contract ArxRegistry"}],"stateMutability":"view"},{"type":"function","name":"renounceRole","inputs":[{"name":"role","type":"bytes32","internalType":"bytes32"},{"name":"callerConfirmation","type":"address","internalType":"address"}],"outputs":[],"stateMutability":"nonpayable"},{"type":"function","name":"revokeRole","inputs":[{"name":"role","type":"bytes32","internalType":"bytes32"},{"name":"account","type":"address","internalType":"address"}],"outputs":[],"stateMutability":"nonpayable"},{"type":"function","name":"staking","inputs":[],"outputs":[{"name":"","type":"address","internalType":"contract ArxOracleStaking"}],"stateMutability":"view"},{"type":"function","name":"supportsInterface","inputs":[{"name":"interfaceId","type":"bytes4","internalType":"bytes4"}],"outputs":[{"name":"","type":"bool","internalType":"bool"}],"stateMutability":"view"},{"type":"function","name":"usedProofs","inputs":[{"name":"","type":"bytes32","internalType":"bytes32"}],"outputs":[{"name":"","type":"bool","internalType":"bool"}],"stateMutability":"view"},{"type":"event","name":"ContributionConfirmed","inputs":[{"name":"contributionId","type":"bytes32","indexed":true,"internalType":"bytes32"},{"name":"oracle","type":"address","indexed":true,"internalType":"address"},{"name":"confirmations","type":"uint256","indexed":false,"internalType":"uint256"}],"anonymous":false},{"type":"event","name":"ContributionDisputed","inputs":[{"name":"contributionId","type":"bytes32","indexed":true,"internalType":"bytes32"},{"name":"disputer","type":"address","indexed":true,"internalType":"address"},{"name":"reason","type":"string","indexed":false,"internalType":"string"}],"anonymous":false},{"type":"event","name":"ContributionFinalized","inputs":[{"name":"contributionId","type":"bytes32","indexed":true,"internalType":"bytes32"},{"name":"worker","type":"address","indexed":true,"internalType":"address"},{"name":"amount","type":"uint256","indexed":false,"internalType":"uint256"}],"anonymous":false},{"type":"event","name":"ContributionProposed","inputs":[{"name":"contributionId","type":"bytes32","indexed":true,"internalType":"bytes32"},{"name":"worker","type":"address","indexed":true,"internalType":"address"},{"name":"buildingId","type":"string","indexed":false,"internalType":"string"},{"name":"amount","type":"uint256","indexed":false,"internalType":"uint256"},{"name":"oracle","type":"address","indexed":false,"internalType":"address"}],"anonymous":false},{"type":"event","name":"EIP712DomainChanged","inputs":[],"anonymous":false},{"type":"event","name":"RoleAdminChanged","inputs":[{"name":"role","type":"bytes32","indexed":true,"internalType":"bytes32"},{"name":"previousAdminRole","type":"bytes32","indexed":true,"internalType":"bytes32"},{"name":"newAdminRole","type":"bytes32","indexed":true,"internalType":"bytes32"}],"anonymous":false},{"type":"event","name":"RoleGranted","inputs":[{"name":"role","type":"bytes32","indexed":true,"internalType":"bytes32"},{"name":"account","type":"address","indexed":true,"internalType":"address"},{"name":"sender","type":"address","indexed":true,"internalType":"address"}],"anonymous":false},{"type":"event","name":"RoleRevoked","inputs":[{"name":"role","type":"bytes32","indexed":true,"internalType":"bytes32"},{"name":"account","type":"address","indexed":true,"internalType":"address"},{"name":"sender","type":"address","indexed":true,"internalType":"address"}],"anonymous":false},{"type":"error","name":"AccessControlBadConfirmation","inputs":[]},{"type":"error","name":"AccessControlUnauthorizedAccount","inputs":[{"name":"account","type":"address","internalType":"address"},{"name":"neededRole","type":"bytes32","internalType":"bytes32"}]},{"type":"error","name":"InvalidShortString","inputs":[]},{"type":"error","name":"ReentrancyGuardReentrantCall","inputs":[]},{"type":"error","name":"StringTooLong","inputs":[{"name":"str","type":"string","internalType":"string"}]}],"bytecode":{"object":"0x6101e0346200043557601f62002b4538819003918201601f19168301926001600160401b039290918385118386101762000421578160a092849260409788528339810103126200043557620000548162000455565b926020916200006583820162000455565b946200007383830162000455565b90620000906080620000886060860162000455565b940162000455565b938051916200009f8362000439565b60198352868301977f4172784f5320436f6e747269627574696f6e204f7261636c65000000000000008952825199620000d88b62000439565b60018b52888b01603160f81b815260017f9b779b17422d0df92223018b32b4d1fa46e071723d6817e2486d003becc55f00556200011586620004ec565b9a6101209b8c52620001278d620006b5565b966101409788525190209b8c60e052519020916101009b838d524660a0528551938b8501917f8b73c3c69bb8fe3d512ecc4cf759cc79239f7b179b0ffacaa9a75d522b39400f83528786015260608501524660808501523060a085015260a0845260c0840191848310908311176200042157818652835190206080523060c0526001600160a01b039284841615620003d457505081169485156200038657811695861562000336578116968715620002e4571696871562000295575062000206906101609485526101809586526101a09687526101c09788526200046a565b5051956122c297886200086389396080518861211c015260a051886121d7015260c051886120ed015260e0518861216b01525187612191015251866110ae015251856110d80152518481816101f201526115aa015251838181610450015281816104de01528181610a5801526111ee01525182818161015d01526115740152518181816106e3015261125c0152f35b60849083519062461bcd60e51b82526004820152602360248201527f417278436f6e747269627574696f6e4f7261636c653a207a65726f207374616b604482015262696e6760e81b6064820152fd5b835162461bcd60e51b8152600481018a9052602560248201527f417278436f6e747269627574696f6e4f7261636c653a207a65726f2061646472604482015264657373657360d81b6064820152608490fd5b835162461bcd60e51b8152600481018a90526024808201527f417278436f6e747269627574696f6e4f7261636c653a207a65726f20726567696044820152637374727960e01b6064820152608490fd5b835162461bcd60e51b8152600481018a9052602160248201527f417278436f6e747269627574696f6e4f7261636c653a207a65726f20746f6b656044820152603760f91b6064820152608490fd5b90603760f91b6101246084938d62461bcd60e51b855260c4820152602160e48201527f417278436f6e747269627574696f6e4f7261636c653a207a65726f2061646d696101048201520152fd5b634e487b7160e01b5f52604160045260245ffd5b5f80fd5b604081019081106001600160401b038211176200042157604052565b51906001600160a01b03821682036200043557565b6001600160a01b03165f8181525f8051602062002b25833981519152602052604090205460ff16620004e7575f8181525f8051602062002b2583398151915260205260408120805460ff191660011790553391907f2f8788117e7eff1d82e926ec794901d17c78024a50270940304540a733656f0d8180a4600190565b505f90565b805160209081811015620005865750601f8251116200052757808251920151908083106200051957501790565b825f19910360031b1b161790565b90604051809263305a27a960e01b82528060048301528251908160248401525f935b8285106200056c575050604492505f838284010152601f80199101168101030190fd5b848101820151868601604401529381019385935062000549565b9192916001600160401b038111620004215760019182548381811c91168015620006aa575b828210146200069657601f811162000660575b5080601f8311600114620005fc5750819293945f92620005f0575b50505f19600383901b1c191690821b17905560ff90565b015190505f80620005d9565b90601f19831695845f52825f20925f905b8882106200064857505083859697106200062f575b505050811b01905560ff90565b01515f1960f88460031b161c191690555f808062000622565b8087859682949686015181550195019301906200060d565b835f5283601f835f20920160051c820191601f850160051c015b8281106200068a575050620005be565b5f81550184906200067a565b634e487b7160e01b5f52602260045260245ffd5b90607f1690620005ab565b805160209081811015620007415750601f825111620006e257808251920151908083106200051957501790565b90604051809263305a27a960e01b82528060048301528251908160248401525f935b82851062000727575050604492505f838284010152601f80199101168101030190fd5b848101820151868601604401529381019385935062000704565b906001600160401b0382116200042157600254926001938481811c9116801562000857575b838210146200069657601f811162000820575b5081601f8411600114620007b857509282939183925f94620007ac575b50501b915f199060031b1c19161760025560ff90565b015192505f8062000796565b919083601f19811660025f52845f20945f905b88838310620008055750505010620007ec575b505050811b0160025560ff90565b01515f1960f88460031b161c191690555f8080620007de565b858701518855909601959485019487935090810190620007cb565b60025f5284601f845f20920160051c820191601f860160051c015b8281106200084b57505062000779565b5f81550185906200083b565b90607f16906200076656fe6080806040526004361015610012575f80fd5b5f905f3560e01c90816301ffc9a7146119a25750806307a53ad81461196857806307e2cea51461192e5780631c937ba214611887578063248a9ca31461185b57806327a3c153146114c15780632e4861a9146113545780632f2ff15d146113175780633235204c146112ed57806336568abe146112805780634cf088d91461122f5780635bb39694146112125780637b103999146111c157806384b0196e1461109857806388dd56ec1461107a57806391d14854146110235780639e42509e14611007578063a217fddf14610feb578063b0fa0db914610f16578063b9a2015e146102a0578063c2cf732614610245578063c30a0f2514610216578063cf9bc12e146101c5578063d547741f146101845763da0321cd14610131575f80fd5b34610181578060031936011261018157602060405173ffffffffffffffffffffffffffffffffffffffff7f0000000000000000000000000000000000000000000000000000000000000000168152f35b80fd5b5034610181576040600319360112610181576101c16004356101a4611a6e565b90808452836020526101bc6001604086200154611cf3565b611dbc565b5080f35b5034610181578060031936011261018157602060405173ffffffffffffffffffffffffffffffffffffffff7f0000000000000000000000000000000000000000000000000000000000000000168152f35b50346101815760206003193601126101815760ff60406020926004358152600484522054166040519015158152f35b50346101815760406003193601126101815773ffffffffffffffffffffffffffffffffffffffff60066040610278611a6e565b9360043581526003602052200191165f52602052602060ff60405f2054166040519015158152f35b5034610181576101206003193601126101815760043567ffffffffffffffff8111610f12576102d3903690600401611a40565b6102de929192611a6e565b9260a07fffffffffffffffffffffffffffffffffffffffffffffffffffffffffffffff9c360112610f0e576101043567ffffffffffffffff8111610f0a5761032a903690600401611a40565b335f9081527fa629f6981c2f6895a67dc766e8e03ff72d04a413d0d8773a3ca56e9e474032c16020526040902054909591907f68e79a7bf1e0bc45d0a330c573bc367f9cf464fd326078812f301165fbda4ef19060ff1615610ed3575061038f611c99565b60405160208101906064358252608435604082015260a435606082015260c435608082015260e43560a082015260a081526103c981611ba9565b5190209573ffffffffffffffffffffffffffffffffffffffff831615610e695760443515610dff576040517fc5689dbf00000000000000000000000000000000000000000000000000000000815273ffffffffffffffffffffffffffffffffffffffff8416600482015260208160248173ffffffffffffffffffffffffffffffffffffffff7f0000000000000000000000000000000000000000000000000000000000000000165afa908115610bad578791610de0575b5015610d76576040517f2329765b00000000000000000000000000000000000000000000000000000000815260206004820152602081806104c5602482018a8a611c43565b038173ffffffffffffffffffffffffffffffffffffffff7f0000000000000000000000000000000000000000000000000000000000000000165afa908115610bad578791610d57575b5015610d1357610e1060c435018060c43511610ce6574211610c7d57604051917fe7286d76b0cba5548310fb63c5c2349a7fec9ea16b111b108aab1180c8e983fd60208401526064356040840152608435606084015260a435608084015260c43560a084015260e43560c084015260c083528260e081011067ffffffffffffffff60e085011117610c505760428360e06105ed9501604052602081519101206105b56120d6565b90604051917f1901000000000000000000000000000000000000000000000000000000000000835260028301526022820152206120a2565b506004811015610c2357610bb85773ffffffffffffffffffffffffffffffffffffffff808316911603610bb8576040516020810190848483376106706054828781017fffffffffffffffffffffffffffffffffffffffff0000000000000000000000008760601b1660208201526044356034820152036034810184520182611be1565b519020928385526005602052856040862055600360205260408520926003840154156109c1575b5050506040517f0f373afd00000000000000000000000000000000000000000000000000000000815233600482015260208160248173ffffffffffffffffffffffffffffffffffffffff7f0000000000000000000000000000000000000000000000000000000000000000165afa9081156109b6578491610987575b501561091d5760068101335f528060205260ff60405f2054166108b357848452600460205260ff60408520541661084957335f5260205260405f207fffffffffffffffffffffffffffffffffffffffffffffffffffffffffffffff00906001828254161790556003820154947fffffffffffffffffffffffffffffffffffffffffffffffffffffffffffffffff861461081c5760016003949596018484015585526004602052600160408620918254161790550154906040519182527f6fd675484b7bf3b926146089956526e50f342f2f2a794a586aba9cedf50352d560203393a360017f9b779b17422d0df92223018b32b4d1fa46e071723d6817e2486d003becc55f005580f35b6024857f4e487b710000000000000000000000000000000000000000000000000000000081526011600452fd5b608460405162461bcd60e51b815260206004820152602960248201527f417278436f6e747269627574696f6e4f7261636c653a2070726f6f6620616c7260448201527f65616479207573656400000000000000000000000000000000000000000000006064820152fd5b608460405162461bcd60e51b815260206004820152602860248201527f417278436f6e747269627574696f6e4f7261636c653a20616c7265616479206360448201527f6f6e6669726d65640000000000000000000000000000000000000000000000006064820152fd5b608460405162461bcd60e51b815260206004820152602960248201527f417278436f6e747269627574696f6e4f7261636c653a20696e7375666669636960448201527f656e74207374616b6500000000000000000000000000000000000000000000006064820152fd5b6109a9915060203d6020116109af575b6109a18183611be1565b810190611c81565b5f610713565b503d610997565b6040513d86823e3d90fd5b73ffffffffffffffffffffffffffffffffffffffff83167fffffffffffffffffffffffff0000000000000000000000000000000000000000855416178455604051917fca0e4a7b0000000000000000000000000000000000000000000000000000000083526020600484015260208380610a3f602482018587611c43565b038173ffffffffffffffffffffffffffffffffffffffff7f0000000000000000000000000000000000000000000000000000000000000000165afa8015610bad57908692918890610b47575b7f77e10e89a1ecc7573bca2edf10c705f6fe79cd58f4f58bdde7bf77c70f9026fc93945073ffffffffffffffffffffffffffffffffffffffff6001880191167fffffffffffffffffffffffff0000000000000000000000000000000000000000825416179055604435600287015542600487015573ffffffffffffffffffffffffffffffffffffffff610b2b604051938493606085526060850191611c43565b95604435602084015233604084015216940390a35f8080610697565b509150916020813d602011610ba5575b81610b6460209383611be1565b81010312610ba157917f77e10e89a1ecc7573bca2edf10c705f6fe79cd58f4f58bdde7bf77c70f9026fc91610b998794611c22565b849350610a8b565b8680fd5b3d9150610b57565b6040513d89823e3d90fd5b60405162461bcd60e51b815260206004820152602860248201527f417278436f6e747269627574696f6e4f7261636c653a20696e76616c6964207360448201527f69676e61747572650000000000000000000000000000000000000000000000006064820152608490fd5b6024867f4e487b710000000000000000000000000000000000000000000000000000000081526021600452fd5b7f4e487b71000000000000000000000000000000000000000000000000000000005f52604160045260245ffd5b608460405162461bcd60e51b8152602060048201526024808201527f417278436f6e747269627574696f6e4f7261636c653a2070726f6f662065787060448201527f69726564000000000000000000000000000000000000000000000000000000006064820152fd5b6024877f4e487b710000000000000000000000000000000000000000000000000000000081526011600452fd5b606460405162461bcd60e51b815260206004820152601760248201527f4275696c64696e67206e6f7420726567697374657265640000000000000000006044820152fd5b610d70915060203d6020116109af576109a18183611be1565b5f61050e565b608460405162461bcd60e51b815260206004820152602860248201527f417278436f6e747269627574696f6e4f7261636c653a20776f726b6572206e6f60448201527f74206163746976650000000000000000000000000000000000000000000000006064820152fd5b610df9915060203d6020116109af576109a18183611be1565b5f610480565b608460405162461bcd60e51b815260206004820152602260248201527f417278436f6e747269627574696f6e4f7261636c653a207a65726f20616d6f7560448201527f6e740000000000000000000000000000000000000000000000000000000000006064820152fd5b608460405162461bcd60e51b815260206004820152602260248201527f417278436f6e747269627574696f6e4f7261636c653a207a65726f20776f726b60448201527f65720000000000000000000000000000000000000000000000000000000000006064820152fd5b604490604051907fe2517d3f0000000000000000000000000000000000000000000000000000000082523360048301526024820152fd5b8380fd5b8280fd5b5080fd5b50346101815760206003193601126101815760409060043581526003602052206004810154908115610fa75780546001820154600283015460038401546005909401546040805173ffffffffffffffffffffffffffffffffffffffff9586168152949093166020850152918301526060820192909252608081019290925260ff16151560a082015260c090f35b0390f35b606460405162461bcd60e51b815260206004820152601b60248201527f436f6e747269627574696f6e20646f6573206e6f7420657869737400000000006044820152fd5b5034610181578060031936011261018157602090604051908152f35b5034610181578060031936011261018157602060405160028152f35b50346101815760406003193601126101815773ffffffffffffffffffffffffffffffffffffffff6040611054611a6e565b926004358152806020522091165f52602052602060ff60405f2054166040519015158152f35b50346101815780600319360112610181576020604051620151808152f35b50346101815780600319360112610181576110d27f0000000000000000000000000000000000000000000000000000000000000000611e5a565b906110fc7f0000000000000000000000000000000000000000000000000000000000000000611fcf565b9060405190602090602083019383851067ffffffffffffffff861117610c505792849260206111778896611169986040528585526040519889987f0f000000000000000000000000000000000000000000000000000000000000008a5260e0858b015260e08a0190611a91565b9088820360408a0152611a91565b924660608801523060808801528460a088015286840360c088015251928381520193925b8281106111aa57505050500390f35b83518552869550938101939281019260010161119b565b5034610181578060031936011261018157602060405173ffffffffffffffffffffffffffffffffffffffff7f0000000000000000000000000000000000000000000000000000000000000000168152f35b50346101815780600319360112610181576020604051610e108152f35b5034610181578060031936011261018157602060405173ffffffffffffffffffffffffffffffffffffffff7f0000000000000000000000000000000000000000000000000000000000000000168152f35b50346101815760406003193601126101815761129a611a6e565b3373ffffffffffffffffffffffffffffffffffffffff8216036112c3576101c190600435611dbc565b60046040517f6697b232000000000000000000000000000000000000000000000000000000008152fd5b50346101815760206003193601126101815760406020916004358152600583522054604051908152f35b5034610181576040600319360112610181576101c1600435611337611a6e565b908084528360205261134f6001604086200154611cf3565b611d14565b50346101815760406003193601126101815760043560243567ffffffffffffffff8111610f0e57611389903690600401611a40565b919083805260209284845260408520335f52845260ff60405f2054168015611484575b1561141a57907fb96219a97eea5a53eda6df0078c1c9287caa64de7bc33f76051503c238894ac691838652600385526113fe60ff6005604089206113f560038201541515611aed565b01541615611b5e565b6114146040519283928784523397840191611c43565b0390a380f35b6084846040519062461bcd60e51b82526004820152602e60248201527f417278436f6e747269627574696f6e4f7261636c653a206d757374206265206160448201527f646d696e206f72206f7261636c650000000000000000000000000000000000006064820152fd5b507f68e79a7bf1e0bc45d0a330c573bc367f9cf464fd326078812f301165fbda4ef1855284845260408520335f52845260ff60405f2054166113ac565b503461170f576020908160031936011261170f576004356114e0611c99565b805f526003835260405f20906003820154936114fd851515611aed565b6002600584019561151260ff88541615611b5e565b106117f15760048301546201518081018091116117c457421061175a5773ffffffffffffffffffffffffffffffffffffffff604051937fa39fac12000000000000000000000000000000000000000000000000000000008552604085600481857f0000000000000000000000000000000000000000000000000000000000000000165afa948515611704575f905f96611713575b50827f000000000000000000000000000000000000000000000000000000000000000016838354169684600185015416906002850198895491843b1561170f575f9460a493898793816040519a8b998a987f2e620e7b000000000000000000000000000000000000000000000000000000008a5260048a0152602489015216604487015216606485015260848401525af18015611704576116c3575b508660017fffffffffffffffffffffffffffffffffffffffffffffffffffffffffffffff007fc55dda7bfc26593a8b7c922c4287ecf777f04f3c6e1cee77b0ce7252b9f8403796979899541617905554169354604051908152a360017f9b779b17422d0df92223018b32b4d1fa46e071723d6817e2486d003becc55f005580f35b9394955067ffffffffffffffff8411610c50577fc55dda7bfc26593a8b7c922c4287ecf777f04f3c6e1cee77b0ce7252b9f84037936040525f959493611642565b6040513d5f823e3d90fd5b5f80fd5b9550506040853d604011611752575b8161172f60409383611be1565b8101031261170f5761174b8361174487611c22565b9601611c22565b945f6115a6565b3d9150611722565b6084906040519062461bcd60e51b82526004820152603160248201527f417278436f6e747269627574696f6e4f7261636c653a2066696e616c697a617460448201527f696f6e2064656c6179206e6f74206d65740000000000000000000000000000006064820152fd5b7f4e487b71000000000000000000000000000000000000000000000000000000005f52601160045260245ffd5b6084906040519062461bcd60e51b82526004820152603160248201527f417278436f6e747269627574696f6e4f7261636c653a20696e7375666669636960448201527f656e7420636f6e6669726d6174696f6e730000000000000000000000000000006064820152fd5b3461170f57602060031936011261170f576004355f525f6020526020600160405f200154604051908152f35b3461170f57602060031936011261170f576004355f52600360205260405f2073ffffffffffffffffffffffffffffffffffffffff610fa3818354169160018401541692600281015490600381015460ff60056004840154930154169260405196879687949196959260a0949160c087019873ffffffffffffffffffffffffffffffffffffffff80921688521660208701526040860152606085015260808401521515910152565b3461170f575f60031936011261170f5760206040517f68e79a7bf1e0bc45d0a330c573bc367f9cf464fd326078812f301165fbda4ef18152f35b3461170f575f60031936011261170f5760206040517fe7286d76b0cba5548310fb63c5c2349a7fec9ea16b111b108aab1180c8e983fd8152f35b3461170f57602060031936011261170f57600435907fffffffff00000000000000000000000000000000000000000000000000000000821680920361170f57817f7965db0b0000000000000000000000000000000000000000000000000000000060209314908115611a16575b5015158152f35b7f01ffc9a70000000000000000000000000000000000000000000000000000000091501483611a0f565b9181601f8401121561170f5782359167ffffffffffffffff831161170f576020838186019501011161170f57565b6024359073ffffffffffffffffffffffffffffffffffffffff8216820361170f57565b91908251928382525f5b848110611ad95750507fffffffffffffffffffffffffffffffffffffffffffffffffffffffffffffffe0601f845f6020809697860101520116010190565b602081830181015184830182015201611a9b565b15611af457565b608460405162461bcd60e51b815260206004820152602d60248201527f417278436f6e747269627574696f6e4f7261636c653a20636f6e74726962757460448201527f696f6e206e6f7420666f756e64000000000000000000000000000000000000006064820152fd5b15611b6557565b606460405162461bcd60e51b815260206004820152601160248201527f416c72656164792066696e616c697a65640000000000000000000000000000006044820152fd5b60c0810190811067ffffffffffffffff821117610c5057604052565b6040810190811067ffffffffffffffff821117610c5057604052565b90601f7fffffffffffffffffffffffffffffffffffffffffffffffffffffffffffffffe0910116810190811067ffffffffffffffff821117610c5057604052565b519073ffffffffffffffffffffffffffffffffffffffff8216820361170f57565b601f82602094937fffffffffffffffffffffffffffffffffffffffffffffffffffffffffffffffe093818652868601375f8582860101520116010190565b9081602091031261170f5751801515810361170f5790565b7f9b779b17422d0df92223018b32b4d1fa46e071723d6817e2486d003becc55f006002815414611cc95760029055565b60046040517f3ee5aeb5000000000000000000000000000000000000000000000000000000008152fd5b805f525f60205260405f20335f5260205260ff60405f20541615610ed35750565b90815f525f60205273ffffffffffffffffffffffffffffffffffffffff60405f20911690815f5260205260ff60405f205416155f14611db657815f525f60205260405f20815f5260205260405f2060017fffffffffffffffffffffffffffffffffffffffffffffffffffffffffffffff0082541617905533917f2f8788117e7eff1d82e926ec794901d17c78024a50270940304540a733656f0d5f80a4600190565b50505f90565b90815f525f60205273ffffffffffffffffffffffffffffffffffffffff60405f20911690815f5260205260ff60405f2054165f14611db657815f525f60205260405f20815f5260205260405f207fffffffffffffffffffffffffffffffffffffffffffffffffffffffffffffff00815416905533917ff6391f5c32d9c69d2a47ea670b442974b53935d1edc7fd64eb21e047a839171b5f80a4600190565b60ff8114611eb05760ff811690601f8211611e865760405191611e7c83611bc5565b8252602082015290565b60046040517fb3512b0c000000000000000000000000000000000000000000000000000000008152fd5b506040515f60018054918260011c60018416928315611fc5575b6020948583108514611f98578287528694908115611f595750600114611efc575b5050611ef992500382611be1565b90565b9093915060015f527fb10e2d527612073b26eecdfd717e6a320cf44b4afac2b0732d9fcbe2b7fa0cf6935f915b818310611f41575050611ef993508201015f80611eeb565b85548784018501529485019486945091830191611f29565b9050611ef99593507fffffffffffffffffffffffffffffffffffffffffffffffffffffffffffffff0091501682840152151560051b8201015f80611eeb565b7f4e487b71000000000000000000000000000000000000000000000000000000005f52602260045260245ffd5b90607f1690611eca565b60ff8114611ff15760ff811690601f8211611e865760405191611e7c83611bc5565b506040515f600254906001908260011c60018416928315612098575b6020948583108514611f98578287528694908115611f59575060011461203b575050611ef992500382611be1565b9093915060025f527f405787fa12a823e0f2b7631cc41b3ba8828b3321ca811111fa75cd3aa3bb5ace935f915b818310612080575050611ef993508201015f80611eeb565b85548784018501529485019486945091830191612068565b90607f169061200d565b90604183036120cc576120c59250602081013591604082359201355f1a906121fd565b9192909190565b50505f9160029190565b73ffffffffffffffffffffffffffffffffffffffff7f0000000000000000000000000000000000000000000000000000000000000000163014806121d4575b1561213e577f000000000000000000000000000000000000000000000000000000000000000090565b60405160208101907f8b73c3c69bb8fe3d512ecc4cf759cc79239f7b179b0ffacaa9a75d522b39400f82527f000000000000000000000000000000000000000000000000000000000000000060408201527f000000000000000000000000000000000000000000000000000000000000000060608201524660808201523060a082015260a081526121ce81611ba9565b51902090565b507f00000000000000000000000000000000000000000000000000000000000000004614612115565b91907f7fffffffffffffffffffffffffffffff5d576e7357a4501ddfe92f46681b20a08411612281579160209360809260ff5f9560405194855216868401526040830152606082015282805260015afa15611704575f5173ffffffffffffffffffffffffffffffffffffffff81161561227757905f905f90565b505f906001905f90565b5050505f916003919056fea264697066735822122035cc62f17bbb8e34083a0a22aaf3b5fca1b7b1ca1f0cb7c91d3260d72703ea4f64736f6c63430008180033ad3228b676f7d3cd4284a5443f17f1962b36e491b30a40b2405849e597ba5fb5","linkReferences":{}},"methodIdentifiers":{"CONTRIBUTION_PROOF_TYPEHASH()":"07a53ad8","DEFAULT_ADMIN_ROLE()":"a217fddf","FINALIZATION_DELAY()":"88dd56ec","MAX_PROOF_AGE()":"5bb39694","MIN_CONFIRMATIONS()":"9e42509e","ORACLE_ROLE()":"07e2cea5","addresses()":"da0321cd","arxoToken()":"cf9bc12e","contributionProofHashes(bytes32)":"3235204c","disputeContribution(bytes32,string)":"2e4861a9","eip712Domain()":"84b0196e","finalizeContribution(bytes32)":"27a3c153","getContribution(bytes32)":"b0fa0db9","getRoleAdmin(bytes32)":"248a9ca3","grantRole(bytes32,address)":"2f2ff15d","hasConfirmed(bytes32,address)":"c2cf7326","hasRole(bytes32,address)":"91d14854","pendingContributions(bytes32)":"1c937ba2","proposeContribution(string,address,uint256,(bytes32,bytes32,bytes32,uint256,uint256),bytes)":"b9a2015e","registry()":"7b103999","renounceRole(bytes32,address)":"36568abe","revokeRole(bytes32,address)":"d547741f","staking()":"4cf088d9","supportsInterface(bytes4)":"01ffc9a7","usedProofs(bytes32)":"c30a0f25"},"id":48}