{"abi":[{"type":"constructor","inputs":[{"name":"admin","type":"address","internalType":"address"},{"name":"_arxoToken","type":"address","internalType":"address"},{"name":"_registry","type":"address","internalType":"address"},{"name":"_addresses","type":"address","internalType":"address"},{"name":"_staking","type":"address","internalType":"address"}],"stateMutability":"nonpayable"},{"type":"function","name":"CONTRIBUTION_PROOF_TYPEHASH","inputs":[],"outputs":[{"name":"","type":"bytes32","internalType":"bytes32"}],"stateMutability":"view"},{"type":"function","name":"DEFAULT_ADMIN_ROLE","inputs":[],"outputs":[{"name":"","type":"bytes32","internalType":"bytes32"}],"stateMutability":"view"},{"type":"function","name":"DOMAIN_SEPARATOR","inputs":[],"outputs":[{"name":"","type":"bytes32","internalType":"bytes32"}],"stateMutability":"view"},{"type":"function","name":"FINALIZATION_DELAY","inputs":[],"outputs":[{"name":"","type":"uint256","internalType":"uint256"}],"stateMutability":"view"},{"type":"function","name":"MAX_PROOF_AGE","inputs":[],"outputs":[{"name":"","type":"uint256","internalType":"uint256"}],"stateMutability":"view"},{"type":"function","name":"MIN_CONFIRMATIONS","inputs":[],"outputs":[{"name":"","type":"uint256","internalType":"uint256"}],"stateMutability":"view"},{"type":"function","name":"ORACLE_ROLE","inputs":[],"outputs":[{"name":"","type":"bytes32","internalType":"bytes32"}],"stateMutability":"view"},{"type":"function","name":"addresses","inputs":[],"outputs":[{"name":"","type":"address","internalType":"contract ArxAddresses"}],"stateMutability":"view"},{"type":"function","name":"arxoToken","inputs":[],"outputs":[{"name":"","type":"address","internalType":"contract ArxosToken"}],"stateMutability":"view"},{"type":"function","name":"contributionProofHashes","inputs":[{"name":"","type":"bytes32","internalType":"bytes32"}],"outputs":[{"name":"","type":"bytes32","internalType":"bytes32"}],"stateMutability":"view"},{"type":"function","name":"disputeContribution","inputs":[{"name":"contributionId","type":"bytes32","internalType":"bytes32"},{"name":"reason","type":"string","internalType":"string"}],"outputs":[],"stateMutability":"nonpayable"},{"type":"function","name":"disputeResolver","inputs":[],"outputs":[{"name":"","type":"address","internalType":"address"}],"stateMutability":"view"},{"type":"function","name":"eip712Domain","inputs":[],"outputs":[{"name":"fields","type":"bytes1","internalType":"bytes1"},{"name":"name","type":"string","internalType":"string"},{"name":"version","type":"string","internalType":"string"},{"name":"chainId","type":"uint256","internalType":"uint256"},{"name":"verifyingContract","type":"address","internalType":"address"},{"name":"salt","type":"bytes32","internalType":"bytes32"},{"name":"extensions","type":"uint256[]","internalType":"uint256[]"}],"stateMutability":"view"},{"type":"function","name":"finalizeContribution","inputs":[{"name":"contributionId","type":"bytes32","internalType":"bytes32"}],"outputs":[],"stateMutability":"nonpayable"},{"type":"function","name":"flagDisputed","inputs":[{"name":"contributionId","type":"bytes32","internalType":"bytes32"},{"name":"disputer","type":"address","internalType":"address"}],"outputs":[],"stateMutability":"nonpayable"},{"type":"function","name":"getContribution","inputs":[{"name":"contributionId","type":"bytes32","internalType":"bytes32"}],"outputs":[{"name":"worker","type":"address","internalType":"address"},{"name":"building","type":"address","internalType":"address"},{"name":"amount","type":"uint256","internalType":"uint256"},{"name":"confirmations","type":"uint256","internalType":"uint256"},{"name":"proposedAt","type":"uint256","internalType":"uint256"},{"name":"finalized","type":"bool","internalType":"bool"}],"stateMutability":"view"},{"type":"function","name":"getRoleAdmin","inputs":[{"name":"role","type":"bytes32","internalType":"bytes32"}],"outputs":[{"name":"","type":"bytes32","internalType":"bytes32"}],"stateMutability":"view"},{"type":"function","name":"grantRole","inputs":[{"name":"role","type":"bytes32","internalType":"bytes32"},{"name":"account","type":"address","internalType":"address"}],"outputs":[],"stateMutability":"nonpayable"},{"type":"function","name":"hasConfirmed","inputs":[{"name":"contributionId","type":"bytes32","internalType":"bytes32"},{"name":"oracle","type":"address","internalType":"address"}],"outputs":[{"name":"","type":"bool","internalType":"bool"}],"stateMutability":"view"},{"type":"function","name":"hasRole","inputs":[{"name":"role","type":"bytes32","internalType":"bytes32"},{"name":"account","type":"address","internalType":"address"}],"outputs":[{"name":"","type":"bool","internalType":"bool"}],"stateMutability":"view"},{"type":"function","name":"pendingContributions","inputs":[{"name":"","type":"bytes32","internalType":"bytes32"}],"outputs":[{"name":"worker","type":"address","internalType":"address"},{"name":"building","type":"address","internalType":"address"},{"name":"amount","type":"uint256","internalType":"uint256"},{"name":"confirmations","type":"uint256","internalType":"uint256"},{"name":"proposedAt","type":"uint256","internalType":"uint256"},{"name":"finalized","type":"bool","internalType":"bool"},{"name":"disputed","type":"bool","internalType":"bool"}],"stateMutability":"view"},{"type":"function","name":"proposeContribution","inputs":[{"name":"buildingId","type":"string","internalType":"string"},{"name":"worker","type":"address","internalType":"address"},{"name":"amount","type":"uint256","internalType":"uint256"},{"name":"proof","type":"tuple","internalType":"struct ArxContributionOracle.ContributionProof","components":[{"name":"merkleRoot","type":"bytes32","internalType":"bytes32"},{"name":"locationHash","type":"bytes32","internalType":"bytes32"},{"name":"buildingHash","type":"bytes32","internalType":"bytes32"},{"name":"timestamp","type":"uint256","internalType":"uint256"},{"name":"dataSize","type":"uint256","internalType":"uint256"}]},{"name":"signature","type":"bytes","internalType":"bytes"}],"outputs":[],"stateMutability":"nonpayable"},{"type":"function","name":"registry","inputs":[],"outputs":[{"name":"","type":"address","internalType":"contract ArxRegistry"}],"stateMutability":"view"},{"type":"function","name":"renounceRole","inputs":[{"name":"role","type":"bytes32","internalType":"bytes32"},{"name":"callerConfirmation","type":"address","internalType":"address"}],"outputs":[],"stateMutability":"nonpayable"},{"type":"function","name":"resolveDispute","inputs":[{"name":"contributionId","type":"bytes32","internalType":"bytes32"},{"name":"valid","type":"bool","internalType":"bool"}],"outputs":[],"stateMutability":"nonpayable"},{"type":"function","name":"revokeRole","inputs":[{"name":"role","type":"bytes32","internalType":"bytes32"},{"name":"account","type":"address","internalType":"address"}],"outputs":[],"stateMutability":"nonpayable"},{"type":"function","name":"setResolver","inputs":[{"name":"_resolver","type":"address","internalType":"address"}],"outputs":[],"stateMutability":"nonpayable"},{"type":"function","name":"staking","inputs":[],"outputs":[{"name":"","type":"address","internalType":"contract ArxOracleStaking"}],"stateMutability":"view"},{"type":"function","name":"supportsInterface","inputs":[{"name":"interfaceId","type":"bytes4","internalType":"bytes4"}],"outputs":[{"name":"","type":"bool","internalType":"bool"}],"stateMutability":"view"},{"type":"function","name":"usedProofs","inputs":[{"name":"","type":"bytes32","internalType":"bytes32"}],"outputs":[{"name":"","type":"bool","internalType":"bool"}],"stateMutability":"view"},{"type":"event","name":"ContributionConfirmed","inputs":[{"name":"contributionId","type":"bytes32","indexed":true,"internalType":"bytes32"},{"name":"oracle","type":"address","indexed":true,"internalType":"address"},{"name":"confirmations","type":"uint256","indexed":false,"internalType":"uint256"}],"anonymous":false},{"type":"event","name":"ContributionDisputed","inputs":[{"name":"contributionId","type":"bytes32","indexed":true,"internalType":"bytes32"},{"name":"disputer","type":"address","indexed":true,"internalType":"address"},{"name":"reason","type":"string","indexed":false,"internalType":"string"}],"anonymous":false},{"type":"event","name":"ContributionFinalized","inputs":[{"name":"contributionId","type":"bytes32","indexed":true,"internalType":"bytes32"},{"name":"worker","type":"address","indexed":true,"internalType":"address"},{"name":"amount","type":"uint256","indexed":false,"internalType":"uint256"}],"anonymous":false},{"type":"event","name":"ContributionProposed","inputs":[{"name":"contributionId","type":"bytes32","indexed":true,"internalType":"bytes32"},{"name":"worker","type":"address","indexed":true,"internalType":"address"},{"name":"buildingId","type":"string","indexed":false,"internalType":"string"},{"name":"amount","type":"uint256","indexed":false,"internalType":"uint256"},{"name":"oracle","type":"address","indexed":false,"internalType":"address"}],"anonymous":false},{"type":"event","name":"EIP712DomainChanged","inputs":[],"anonymous":false},{"type":"event","name":"RoleAdminChanged","inputs":[{"name":"role","type":"bytes32","indexed":true,"internalType":"bytes32"},{"name":"previousAdminRole","type":"bytes32","indexed":true,"internalType":"bytes32"},{"name":"newAdminRole","type":"bytes32","indexed":true,"internalType":"bytes32"}],"anonymous":false},{"type":"event","name":"RoleGranted","inputs":[{"name":"role","type":"bytes32","indexed":true,"internalType":"bytes32"},{"name":"account","type":"address","indexed":true,"internalType":"address"},{"name":"sender","type":"address","indexed":true,"internalType":"address"}],"anonymous":false},{"type":"event","name":"RoleRevoked","inputs":[{"name":"role","type":"bytes32","indexed":true,"internalType":"bytes32"},{"name":"account","type":"address","indexed":true,"internalType":"address"},{"name":"sender","type":"address","indexed":true,"internalType":"address"}],"anonymous":false},{"type":"error","name":"AccessControlBadConfirmation","inputs":[]},{"type":"error","name":"AccessControlUnauthorizedAccount","inputs":[{"name":"account","type":"address","internalType":"address"},{"name":"neededRole","type":"bytes32","internalType":"bytes32"}]},{"type":"error","name":"InvalidShortString","inputs":[]},{"type":"error","name":"ReentrancyGuardReentrantCall","inputs":[]},{"type":"error","name":"StringTooLong","inputs":[{"name":"str","type":"string","internalType":"string"}]}],"bytecode":{"object":"0x6101e0346200044357601f620031ae38819003918201601f19168301926001600160401b03929091838511838610176200042f578160a092849260409788528339810103126200044357620000548162000463565b926020916200006583820162000463565b946200007383830162000463565b90620000906080620000886060860162000463565b940162000463565b938051916200009f8362000447565b60198352868301977f4172784f5320436f6e747269627574696f6e204f7261636c65000000000000008952825199620000d88b62000447565b60018b52888b01603160f81b815260017f9b779b17422d0df92223018b32b4d1fa46e071723d6817e2486d003becc55f00556200011586620004fa565b9a6101209b8c52620001278d620006c3565b966101409788525190209b8c60e052519020916101009b838d524660a0528551938b8501917f8b73c3c69bb8fe3d512ecc4cf759cc79239f7b179b0ffacaa9a75d522b39400f83528786015260608501524660808501523060a085015260a0845260c0840191848310908311176200042f57818652835190206080523060c0526001600160a01b039284841615620003e257505081169485156200039457811695861562000344578116968715620002f25716968715620002a3575062000206906101609485526101809586526101a09687526101c097885262000478565b50519561291d97886200087189396080518861249c015260a05188612557015260c0518861246d015260e051886124eb01525187612511015251866112fc01525185611326015251848181610404015281816116c70152611be6015251838181610660015281816106ee01528181610ca6015261143c0152518281816101cb015281816116920152611bb10152518181816108f501526115c30152f35b60849083519062461bcd60e51b82526004820152602360248201527f417278436f6e747269627574696f6e4f7261636c653a207a65726f207374616b604482015262696e6760e81b6064820152fd5b835162461bcd60e51b8152600481018a9052602560248201527f417278436f6e747269627574696f6e4f7261636c653a207a65726f2061646472604482015264657373657360d81b6064820152608490fd5b835162461bcd60e51b8152600481018a90526024808201527f417278436f6e747269627574696f6e4f7261636c653a207a65726f20726567696044820152637374727960e01b6064820152608490fd5b835162461bcd60e51b8152600481018a9052602160248201527f417278436f6e747269627574696f6e4f7261636c653a207a65726f20746f6b656044820152603760f91b6064820152608490fd5b90603760f91b6101246084938d62461bcd60e51b855260c4820152602160e48201527f417278436f6e747269627574696f6e4f7261636c653a207a65726f2061646d696101048201520152fd5b634e487b7160e01b5f52604160045260245ffd5b5f80fd5b604081019081106001600160401b038211176200042f57604052565b51906001600160a01b03821682036200044357565b6001600160a01b03165f8181525f805160206200318e833981519152602052604090205460ff16620004f5575f8181525f805160206200318e83398151915260205260408120805460ff191660011790553391907f2f8788117e7eff1d82e926ec794901d17c78024a50270940304540a733656f0d8180a4600190565b505f90565b805160209081811015620005945750601f8251116200053557808251920151908083106200052757501790565b825f19910360031b1b161790565b90604051809263305a27a960e01b82528060048301528251908160248401525f935b8285106200057a575050604492505f838284010152601f80199101168101030190fd5b848101820151868601604401529381019385935062000557565b9192916001600160401b0381116200042f5760019182548381811c91168015620006b8575b82821014620006a457601f81116200066e575b5080601f83116001146200060a5750819293945f92620005fe575b50505f19600383901b1c191690821b17905560ff90565b015190505f80620005e7565b90601f19831695845f52825f20925f905b8882106200065657505083859697106200063d575b505050811b01905560ff90565b01515f1960f88460031b161c191690555f808062000630565b8087859682949686015181550195019301906200061b565b835f5283601f835f20920160051c820191601f850160051c015b82811062000698575050620005cc565b5f815501849062000688565b634e487b7160e01b5f52602260045260245ffd5b90607f1690620005b9565b8051602090818110156200074f5750601f825111620006f057808251920151908083106200052757501790565b90604051809263305a27a960e01b82528060048301528251908160248401525f935b82851062000735575050604492505f838284010152601f80199101168101030190fd5b848101820151868601604401529381019385935062000712565b906001600160401b0382116200042f57600254926001938481811c9116801562000865575b83821014620006a457601f81116200082e575b5081601f8411600114620007c657509282939183925f94620007ba575b50501b915f199060031b1c19161760025560ff90565b015192505f80620007a4565b919083601f19811660025f52845f20945f905b88838310620008135750505010620007fa575b505050811b0160025560ff90565b01515f1960f88460031b161c191690555f8080620007ec565b858701518855909601959485019487935090810190620007d9565b60025f5284601f845f20920160051c820191601f860160051c015b8281106200085957505062000787565b5f815501859062000849565b90607f16906200077456fe6080806040526004361015610012575f80fd5b5f905f3560e01c90816301ffc9a714611fd75750806307a53ad814611f9d57806307e2cea514611f635780631c937ba214611ed6578063248a9ca314611eaa57806327a3c15314611af25780632e4861a9146119765780632f2ff15d146119395780633235204c1461190f5780633644e515146118ec57806336568abe1461187f57806343a0e3e6146115e75780634cf088d9146115965780634e543b261461147d5780635bb39694146114605780637b1039991461140f57806384b0196e146112e657806388dd56ec146112c857806391d14854146112715780639e42509e14611255578063a217fddf14611239578063b0fa0db91461116f578063b9a2015e146104b2578063c2cf732614610457578063c30a0f2514610428578063cf9bc12e146103d7578063d21c711214610230578063d547741f146101ef578063da0321cd1461019e5763f5a3f4af14610168575f80fd5b3461019b578060031936011261019b57602073ffffffffffffffffffffffffffffffffffffffff60035416604051908152f35b80fd5b503461019b578060031936011261019b57602060405173ffffffffffffffffffffffffffffffffffffffff7f0000000000000000000000000000000000000000000000000000000000000000168152f35b503461019b57604060031936011261019b5761022c60043561020f6120a3565b908084528360205261022760016040862001546123ab565b61257d565b5080f35b503461019b57604060031936011261019b5760043561024d6120a3565b9073ffffffffffffffffffffffffffffffffffffffff610272816003541633146122ee565b81845260209260048452604085206003810154156103935760ff60058201541661034f57600701805460ff811661030b57917fb96219a97eea5a53eda6df0078c1c9287caa64de7bc33f76051503c238894ac69391600160ff1960609516179055601b604051968088528701527f446973707574652072616973656420766961205265736f6c766572000000000060408701521693a380f35b6064866040519062461bcd60e51b82526004820152601060248201527f416c7265616479206469737075746564000000000000000000000000000000006044820152fd5b6064856040519062461bcd60e51b82526004820152600960248201527f46696e616c697a656400000000000000000000000000000000000000000000006044820152fd5b6064856040519062461bcd60e51b82526004820152600960248201527f4e6f7420666f756e6400000000000000000000000000000000000000000000006044820152fd5b503461019b578060031936011261019b57602060405173ffffffffffffffffffffffffffffffffffffffff7f0000000000000000000000000000000000000000000000000000000000000000168152f35b503461019b57602060031936011261019b5760ff60406020926004358152600584522054166040519015158152f35b503461019b57604060031936011261019b5773ffffffffffffffffffffffffffffffffffffffff6006604061048a6120a3565b9360043581526004602052200191165f52602052602060ff60405f2054166040519015158152f35b503461019b5761012060031936011261019b5760043567ffffffffffffffff811161116b576104e5903690600401612075565b91906104ef6120a3565b9060a07fffffffffffffffffffffffffffffffffffffffffffffffffffffffffffffff9c360112611167576101043567ffffffffffffffff81116111635761053b903690600401612075565b335f9081527fa629f6981c2f6895a67dc766e8e03ff72d04a413d0d8773a3ca56e9e474032c160205260409020549091907f68e79a7bf1e0bc45d0a330c573bc367f9cf464fd326078812f301165fbda4ef19060ff161561112c575061059f612351565b60405160208101906064358252608435604082015260a435606082015260c435608082015260e43560a082015260a081526105d9816121f2565b5190209173ffffffffffffffffffffffffffffffffffffffff8516156110c25760443515611058576040517fc5689dbf00000000000000000000000000000000000000000000000000000000815273ffffffffffffffffffffffffffffffffffffffff8616600482015260208160248173ffffffffffffffffffffffffffffffffffffffff7f0000000000000000000000000000000000000000000000000000000000000000165afa908115610fc4578791611039575b5015610fcf576040517f2329765b00000000000000000000000000000000000000000000000000000000815260206004820152602081806106d5602482018c8a6122b0565b038173ffffffffffffffffffffffffffffffffffffffff7f0000000000000000000000000000000000000000000000000000000000000000165afa908115610fc4578791610fa5575b5015610f6157610e1060c435018060c43511610f34574211610ecb57604051917fe7286d76b0cba5548310fb63c5c2349a7fec9ea16b111b108aab1180c8e983fd60208401526064356040840152608435606084015260a435608084015260c43560a084015260e43560c084015260c083528260e081011067ffffffffffffffff60e085011117610e9e5760428360e06107fd9501604052602081519101206107c5612456565b90604051917f190100000000000000000000000000000000000000000000000000000000000083526002830152602282015220612824565b506004811015610e7157610e065773ffffffffffffffffffffffffffffffffffffffff808516911603610e06576040516020810190868483376108806054828981017fffffffffffffffffffffffffffffffffffffffff0000000000000000000000008960601b166020820152604435603482015203603481018452018261222a565b519020928385526006602052816040862055600460205260408520956003870154159384610c0f575b5050506040517f0f373afd00000000000000000000000000000000000000000000000000000000815233600482015260208160248173ffffffffffffffffffffffffffffffffffffffff7f0000000000000000000000000000000000000000000000000000000000000000165afa908115610c04578591610bd5575b5015610b6b576006850191335f528260205260ff60405f205416610b015715610aab57808452600560205260ff604085205416610a41578352600560205260408320600160ff198254161790555b335f5260205260405f20600160ff198254161790556003830154927fffffffffffffffffffffffffffffffffffffffffffffffffffffffffffffffff8414610a14576001600393940192839101556040519182527f6fd675484b7bf3b926146089956526e50f342f2f2a794a586aba9cedf50352d560203393a360017f9b779b17422d0df92223018b32b4d1fa46e071723d6817e2486d003becc55f005580f35b6024837f4e487b710000000000000000000000000000000000000000000000000000000081526011600452fd5b608460405162461bcd60e51b815260206004820152602960248201527f417278436f6e747269627574696f6e4f7261636c653a2070726f6f6620616c7260448201527f65616479207573656400000000000000000000000000000000000000000000006064820152fd5b828452600660205260408420541461097357606460405162461bcd60e51b815260206004820152600e60248201527f50726f6f66206d69736d617463680000000000000000000000000000000000006044820152fd5b608460405162461bcd60e51b815260206004820152602860248201527f417278436f6e747269627574696f6e4f7261636c653a20616c7265616479206360448201527f6f6e6669726d65640000000000000000000000000000000000000000000000006064820152fd5b608460405162461bcd60e51b815260206004820152602960248201527f417278436f6e747269627574696f6e4f7261636c653a20696e7375666669636960448201527f656e74207374616b6500000000000000000000000000000000000000000000006064820152fd5b610bf7915060203d602011610bfd575b610bef818361222a565b810190612339565b5f610925565b503d610be5565b6040513d87823e3d90fd5b73ffffffffffffffffffffffffffffffffffffffff83167fffffffffffffffffffffffff0000000000000000000000000000000000000000895416178855604051917fca0e4a7b0000000000000000000000000000000000000000000000000000000083526020600484015260208380610c8d6024820185876122b0565b038173ffffffffffffffffffffffffffffffffffffffff7f0000000000000000000000000000000000000000000000000000000000000000165afa8015610dfb57908792918990610d95575b7f77e10e89a1ecc7573bca2edf10c705f6fe79cd58f4f58bdde7bf77c70f9026fc93945073ffffffffffffffffffffffffffffffffffffffff60018c0191167fffffffffffffffffffffffff000000000000000000000000000000000000000082541617905560443560028b01554260048b015573ffffffffffffffffffffffffffffffffffffffff610d796040519384936060855260608501916122b0565b95604435602084015233604084015216940390a35f80806108a9565b509150916020813d602011610df3575b81610db26020938361222a565b81010312610def57917f77e10e89a1ecc7573bca2edf10c705f6fe79cd58f4f58bdde7bf77c70f9026fc91610de7889461226b565b849350610cd9565b8780fd5b3d9150610da5565b6040513d8a823e3d90fd5b60405162461bcd60e51b815260206004820152602860248201527f417278436f6e747269627574696f6e4f7261636c653a20696e76616c6964207360448201527f69676e61747572650000000000000000000000000000000000000000000000006064820152608490fd5b6024867f4e487b710000000000000000000000000000000000000000000000000000000081526021600452fd5b7f4e487b71000000000000000000000000000000000000000000000000000000005f52604160045260245ffd5b608460405162461bcd60e51b8152602060048201526024808201527f417278436f6e747269627574696f6e4f7261636c653a2070726f6f662065787060448201527f69726564000000000000000000000000000000000000000000000000000000006064820152fd5b6024877f4e487b710000000000000000000000000000000000000000000000000000000081526011600452fd5b606460405162461bcd60e51b815260206004820152601760248201527f4275696c64696e67206e6f7420726567697374657265640000000000000000006044820152fd5b610fbe915060203d602011610bfd57610bef818361222a565b5f61071e565b6040513d89823e3d90fd5b608460405162461bcd60e51b815260206004820152602860248201527f417278436f6e747269627574696f6e4f7261636c653a20776f726b6572206e6f60448201527f74206163746976650000000000000000000000000000000000000000000000006064820152fd5b611052915060203d602011610bfd57610bef818361222a565b5f610690565b608460405162461bcd60e51b815260206004820152602260248201527f417278436f6e747269627574696f6e4f7261636c653a207a65726f20616d6f7560448201527f6e740000000000000000000000000000000000000000000000000000000000006064820152fd5b608460405162461bcd60e51b815260206004820152602260248201527f417278436f6e747269627574696f6e4f7261636c653a207a65726f20776f726b60448201527f65720000000000000000000000000000000000000000000000000000000000006064820152fd5b604490604051907fe2517d3f0000000000000000000000000000000000000000000000000000000082523360048301526024820152fd5b8380fd5b8280fd5b5080fd5b503461019b57602060031936011261019b576040906004358152600460205220600481015480156111f55760c09173ffffffffffffffffffffffffffffffffffffffff91828254169260018301541691600281015460ff6005600384015493015416936040519586526020860152604085015260608401526080830152151560a0820152f35b606460405162461bcd60e51b815260206004820152601b60248201527f436f6e747269627574696f6e20646f6573206e6f7420657869737400000000006044820152fd5b503461019b578060031936011261019b57602090604051908152f35b503461019b578060031936011261019b57602060405160028152f35b503461019b57604060031936011261019b5773ffffffffffffffffffffffffffffffffffffffff60406112a26120a3565b926004358152806020522091165f52602052602060ff60405f2054166040519015158152f35b503461019b578060031936011261019b576020604051620151808152f35b503461019b578060031936011261019b576113207f00000000000000000000000000000000000000000000000000000000000000006125fd565b9061134a7f0000000000000000000000000000000000000000000000000000000000000000612751565b9060405190602090602083019383851067ffffffffffffffff861117610e9e5792849260206113c588966113b7986040528585526040519889987f0f000000000000000000000000000000000000000000000000000000000000008a5260e0858b015260e08a01906120c6565b9088820360408a01526120c6565b924660608801523060808801528460a088015286840360c088015251928381520193925b8281106113f857505050500390f35b8351855286955093810193928101926001016113e9565b503461019b578060031936011261019b57602060405173ffffffffffffffffffffffffffffffffffffffff7f0000000000000000000000000000000000000000000000000000000000000000168152f35b503461019b578060031936011261019b576020604051610e108152f35b503461019b57602060031936011261019b5760043573ffffffffffffffffffffffffffffffffffffffff811680910361159257335f9081527fad3228b676f7d3cd4284a5443f17f1962b36e491b30a40b2405849e597ba5fb5602052604090205460ff161561155c578015611518577fffffffffffffffffffffffff0000000000000000000000000000000000000000600354161760035580f35b606460405162461bcd60e51b815260206004820152600d60248201527f5a65726f207265736f6c766572000000000000000000000000000000000000006044820152fd5b60446040517fe2517d3f0000000000000000000000000000000000000000000000000000000081523360048201525f6024820152fd5b5f80fd5b503461019b578060031936011261019b57602060405173ffffffffffffffffffffffffffffffffffffffff7f0000000000000000000000000000000000000000000000000000000000000000168152f35b503461019b57604060031936011261019b5760243560043581151582036111675773ffffffffffffffffffffffffffffffffffffffff61162c816003541633146122ee565b8184526004602052604084209060ff6007830154161561183b57600582019384549061165b60ff831615612193565b1561182a5750604051937fa39fac1200000000000000000000000000000000000000000000000000000000855285604086600481867f0000000000000000000000000000000000000000000000000000000000000000165afa801561181d57819682916117e8575b50837f000000000000000000000000000000000000000000000000000000000000000016968486541690856001880154169860028801998a54823b156117e4576040517f2e620e7b00000000000000000000000000000000000000000000000000000000815273ffffffffffffffffffffffffffffffffffffffff95861660048201529185166024830152928416604482015293909216606484015260848301528290829060a490829084905af180156117d9576117bd575b5050907fc55dda7bfc26593a8b7c922c4287ecf777f04f3c6e1cee77b0ce7252b9f840379282600160ff19602095541617905554169354604051908152a380f35b6117c9909392936121de565b6117d55790855f61177c565b8580fd5b6040513d84823e3d90fd5b8680fd5b905061180d91965060403d604011611816575b611805818361222a565b81019061228c565b9590955f6116c3565b503d6117fb565b50604051903d90823e3d90fd5b60ff19166001179093555082915050f35b606460405162461bcd60e51b815260206004820152600c60248201527f4e6f7420646973707574656400000000000000000000000000000000000000006044820152fd5b503461019b57604060031936011261019b576118996120a3565b3373ffffffffffffffffffffffffffffffffffffffff8216036118c25761022c9060043561257d565b60046040517f6697b232000000000000000000000000000000000000000000000000000000008152fd5b503461019b578060031936011261019b576020611907612456565b604051908152f35b503461019b57602060031936011261019b5760406020916004358152600683522054604051908152f35b503461019b57604060031936011261019b5761022c6004356119596120a3565b908084528360205261197160016040862001546123ab565b6123cc565b503461019b57604060031936011261019b5760043560243567ffffffffffffffff8111611167576119ab903690600401612075565b919083805260209284845260408520335f52845260ff60405f2054168015611ab5575b15611a4b57907fb96219a97eea5a53eda6df0078c1c9287caa64de7bc33f76051503c238894ac69183865260048552600760408720611a1260038201541515612122565b611a2360ff60058301541615612193565b01600160ff19825416179055611a4560405192839287845233978401916122b0565b0390a380f35b6084846040519062461bcd60e51b82526004820152602e60248201527f417278436f6e747269627574696f6e4f7261636c653a206d757374206265206160448201527f646d696e206f72206f7261636c650000000000000000000000000000000000006064820152fd5b507f68e79a7bf1e0bc45d0a330c573bc367f9cf464fd326078812f301165fbda4ef1855284845260408520335f52845260ff60405f2054166119ce565b5034611592576020908160031936011261159257600435611b11612351565b805f526004835260405f2090600382015493611b2e851515612122565b6005830194611b4160ff87541615612193565b60ff600785015416611e6657600211611dfc576004830154620151808101809111611dcf574210611d655773ffffffffffffffffffffffffffffffffffffffff604051937fa39fac12000000000000000000000000000000000000000000000000000000008552604085600481857f0000000000000000000000000000000000000000000000000000000000000000165afa8015611d35575f955f91611d40575b50827f000000000000000000000000000000000000000000000000000000000000000016958383541690846001850154169760028501988954823b15611592576040517f2e620e7b00000000000000000000000000000000000000000000000000000000815273ffffffffffffffffffffffffffffffffffffffff95861660048201529185166024830152928416604482015293909216606484015260848301525f90829060a490829084905af18015611d3557611cfe575b5086600160ff197fc55dda7bfc26593a8b7c922c4287ecf777f04f3c6e1cee77b0ce7252b9f8403796979899541617905554169354604051908152a360017f9b779b17422d0df92223018b32b4d1fa46e071723d6817e2486d003becc55f005580f35b7fc55dda7bfc26593a8b7c922c4287ecf777f04f3c6e1cee77b0ce7252b9f8403794959650611d2c906121de565b5f959493611c9b565b6040513d5f823e3d90fd5b9050611d5c91955060403d60401161181657611805818361222a565b9490945f611be2565b6084906040519062461bcd60e51b82526004820152603160248201527f417278436f6e747269627574696f6e4f7261636c653a2066696e616c697a617460448201527f696f6e2064656c6179206e6f74206d65740000000000000000000000000000006064820152fd5b7f4e487b71000000000000000000000000000000000000000000000000000000005f52601160045260245ffd5b6084906040519062461bcd60e51b82526004820152603160248201527f417278436f6e747269627574696f6e4f7261636c653a20696e7375666669636960448201527f656e7420636f6e6669726d6174696f6e730000000000000000000000000000006064820152fd5b6064826040519062461bcd60e51b82526004820152601860248201527f436f6e747269627574696f6e20697320646973707574656400000000000000006044820152fd5b34611592576020600319360112611592576004355f525f6020526020600160405f200154604051908152f35b34611592576020600319360112611592576004355f52600460205260e060405f2073ffffffffffffffffffffffffffffffffffffffff908181541691600182015416906002810154600382015460048301549160ff60078160058701541695015416946040519687526020870152604086015260608501526080840152151560a0830152151560c0820152f35b34611592575f6003193601126115925760206040517f68e79a7bf1e0bc45d0a330c573bc367f9cf464fd326078812f301165fbda4ef18152f35b34611592575f6003193601126115925760206040517fe7286d76b0cba5548310fb63c5c2349a7fec9ea16b111b108aab1180c8e983fd8152f35b3461159257602060031936011261159257600435907fffffffff00000000000000000000000000000000000000000000000000000000821680920361159257817f7965db0b000000000000000000000000000000000000000000000000000000006020931490811561204b575b5015158152f35b7f01ffc9a70000000000000000000000000000000000000000000000000000000091501483612044565b9181601f840112156115925782359167ffffffffffffffff8311611592576020838186019501011161159257565b6024359073ffffffffffffffffffffffffffffffffffffffff8216820361159257565b91908251928382525f5b84811061210e5750507fffffffffffffffffffffffffffffffffffffffffffffffffffffffffffffffe0601f845f6020809697860101520116010190565b6020818301810151848301820152016120d0565b1561212957565b608460405162461bcd60e51b815260206004820152602d60248201527f417278436f6e747269627574696f6e4f7261636c653a20636f6e74726962757460448201527f696f6e206e6f7420666f756e64000000000000000000000000000000000000006064820152fd5b1561219a57565b606460405162461bcd60e51b815260206004820152601160248201527f416c72656164792066696e616c697a65640000000000000000000000000000006044820152fd5b67ffffffffffffffff8111610e9e57604052565b60c0810190811067ffffffffffffffff821117610e9e57604052565b6040810190811067ffffffffffffffff821117610e9e57604052565b90601f7fffffffffffffffffffffffffffffffffffffffffffffffffffffffffffffffe0910116810190811067ffffffffffffffff821117610e9e57604052565b519073ffffffffffffffffffffffffffffffffffffffff8216820361159257565b9190826040910312611592576122ad60206122a68461226b565b930161226b565b90565b601f82602094937fffffffffffffffffffffffffffffffffffffffffffffffffffffffffffffffe093818652868601375f8582860101520116010190565b156122f557565b606460405162461bcd60e51b815260206004820152600d60248201527f4f6e6c79207265736f6c766572000000000000000000000000000000000000006044820152fd5b90816020910312611592575180151581036115925790565b7f9b779b17422d0df92223018b32b4d1fa46e071723d6817e2486d003becc55f0060028154146123815760029055565b60046040517f3ee5aeb5000000000000000000000000000000000000000000000000000000008152fd5b805f525f60205260405f20335f5260205260ff60405f2054161561112c5750565b90815f525f60205273ffffffffffffffffffffffffffffffffffffffff60405f20911690815f5260205260ff60405f205416155f1461245057815f525f60205260405f20815f5260205260405f20600160ff1982541617905533917f2f8788117e7eff1d82e926ec794901d17c78024a50270940304540a733656f0d5f80a4600190565b50505f90565b73ffffffffffffffffffffffffffffffffffffffff7f000000000000000000000000000000000000000000000000000000000000000016301480612554575b156124be577f000000000000000000000000000000000000000000000000000000000000000090565b60405160208101907f8b73c3c69bb8fe3d512ecc4cf759cc79239f7b179b0ffacaa9a75d522b39400f82527f000000000000000000000000000000000000000000000000000000000000000060408201527f000000000000000000000000000000000000000000000000000000000000000060608201524660808201523060a082015260a0815261254e816121f2565b51902090565b507f00000000000000000000000000000000000000000000000000000000000000004614612495565b90815f525f60205273ffffffffffffffffffffffffffffffffffffffff60405f20911690815f5260205260ff60405f2054165f1461245057815f525f60205260405f20815f5260205260405f2060ff19815416905533917ff6391f5c32d9c69d2a47ea670b442974b53935d1edc7fd64eb21e047a839171b5f80a4600190565b60ff81146126535760ff811690601f8211612629576040519161261f8361220e565b8252602082015290565b60046040517fb3512b0c000000000000000000000000000000000000000000000000000000008152fd5b506040515f60018054918260011c60018416928315612747575b602094858310851461271a5782875286949081156126f9575060011461269c575b50506122ad9250038261222a565b9093915060015f527fb10e2d527612073b26eecdfd717e6a320cf44b4afac2b0732d9fcbe2b7fa0cf6935f915b8183106126e15750506122ad93508201015f8061268e565b855487840185015294850194869450918301916126c9565b90506122ad95935060ff1991501682840152151560051b8201015f8061268e565b7f4e487b71000000000000000000000000000000000000000000000000000000005f52602260045260245ffd5b90607f169061266d565b60ff81146127735760ff811690601f8211612629576040519161261f8361220e565b506040515f600254906001908260011c6001841692831561281a575b602094858310851461271a5782875286949081156126f957506001146127bd5750506122ad9250038261222a565b9093915060025f527f405787fa12a823e0f2b7631cc41b3ba8828b3321ca811111fa75cd3aa3bb5ace935f915b8183106128025750506122ad93508201015f8061268e565b855487840185015294850194869450918301916127ea565b90607f169061278f565b906041830361284e576128479250602081013591604082359201355f1a90612858565b9192909190565b50505f9160029190565b91907f7fffffffffffffffffffffffffffffff5d576e7357a4501ddfe92f46681b20a084116128dc579160209360809260ff5f9560405194855216868401526040830152606082015282805260015afa15611d35575f5173ffffffffffffffffffffffffffffffffffffffff8116156128d257905f905f90565b505f906001905f90565b5050505f916003919056fea2646970667358221220546147dc892dbda7d0aebb2d831ed670478d2be6b8d56e08512db684691cf6c564736f6c63430008180033ad3228b676f7d3cd4284a5443f17f1962b36e491b30a40b2405849e597ba5fb5","linkReferences":{}},"methodIdentifiers":{"CONTRIBUTION_PROOF_TYPEHASH()":"07a53ad8","DEFAULT_ADMIN_ROLE()":"a217fddf","DOMAIN_SEPARATOR()":"3644e515","FINALIZATION_DELAY()":"88dd56ec","MAX_PROOF_AGE()":"5bb39694","MIN_CONFIRMATIONS()":"9e42509e","ORACLE_ROLE()":"07e2cea5","addresses()":"da0321cd","arxoToken()":"cf9bc12e","contributionProofHashes(bytes32)":"3235204c","disputeContribution(bytes32,string)":"2e4861a9","disputeResolver()":"f5a3f4af","eip712Domain()":"84b0196e","finalizeContribution(bytes32)":"27a3c153","flagDisputed(bytes32,address)":"d21c7112","getContribution(bytes32)":"b0fa0db9","getRoleAdmin(bytes32)":"248a9ca3","grantRole(bytes32,address)":"2f2ff15d","hasConfirmed(bytes32,address)":"c2cf7326","hasRole(bytes32,address)":"91d14854","pendingContributions(bytes32)":"1c937ba2","proposeContribution(string,address,uint256,(bytes32,bytes32,bytes32,uint256,uint256),bytes)":"b9a2015e","registry()":"7b103999","renounceRole(bytes32,address)":"36568abe","resolveDispute(bytes32,bool)":"43a0e3e6","revokeRole(bytes32,address)":"d547741f","setResolver(address)":"4e543b26","staking()":"4cf088d9","supportsInterface(bytes4)":"01ffc9a7","usedProofs(bytes32)":"c30a0f25"},"id":48}