{"abi":[{"type":"constructor","inputs":[{"name":"_initialOwner","type":"address","internalType":"address"},{"name":"_arxoToken","type":"address","internalType":"address"},{"name":"_minStake","type":"uint256","internalType":"uint256"}],"stateMutability":"nonpayable"},{"type":"function","name":"arxoToken","inputs":[],"outputs":[{"name":"","type":"address","internalType":"contract IERC20"}],"stateMutability":"view"},{"type":"function","name":"hasMinStake","inputs":[{"name":"oracle","type":"address","internalType":"address"}],"outputs":[{"name":"","type":"bool","internalType":"bool"}],"stateMutability":"view"},{"type":"function","name":"minStake","inputs":[],"outputs":[{"name":"","type":"uint256","internalType":"uint256"}],"stateMutability":"view"},{"type":"function","name":"owner","inputs":[],"outputs":[{"name":"","type":"address","internalType":"address"}],"stateMutability":"view"},{"type":"function","name":"pendingWithdrawals","inputs":[{"name":"","type":"address","internalType":"address"}],"outputs":[{"name":"","type":"uint256","internalType":"uint256"}],"stateMutability":"view"},{"type":"function","name":"renounceOwnership","inputs":[],"outputs":[],"stateMutability":"nonpayable"},{"type":"function","name":"requestWithdrawal","inputs":[{"name":"amount","type":"uint256","internalType":"uint256"}],"outputs":[],"stateMutability":"nonpayable"},{"type":"function","name":"slash","inputs":[{"name":"oracle","type":"address","internalType":"address"},{"name":"amount","type":"uint256","internalType":"uint256"},{"name":"reason","type":"string","internalType":"string"}],"outputs":[],"stateMutability":"nonpayable"},{"type":"function","name":"stake","inputs":[{"name":"amount","type":"uint256","internalType":"uint256"}],"outputs":[],"stateMutability":"nonpayable"},{"type":"function","name":"stakes","inputs":[{"name":"","type":"address","internalType":"address"}],"outputs":[{"name":"","type":"uint256","internalType":"uint256"}],"stateMutability":"view"},{"type":"function","name":"transferOwnership","inputs":[{"name":"newOwner","type":"address","internalType":"address"}],"outputs":[],"stateMutability":"nonpayable"},{"type":"function","name":"updateConfig","inputs":[{"name":"_minStake","type":"uint256","internalType":"uint256"},{"name":"_delay","type":"uint256","internalType":"uint256"}],"outputs":[],"stateMutability":"nonpayable"},{"type":"function","name":"withdraw","inputs":[],"outputs":[],"stateMutability":"nonpayable"},{"type":"function","name":"withdrawalDelay","inputs":[],"outputs":[{"name":"","type":"uint256","internalType":"uint256"}],"stateMutability":"view"},{"type":"function","name":"withdrawalRequestAt","inputs":[{"name":"","type":"address","internalType":"address"}],"outputs":[{"name":"","type":"uint256","internalType":"uint256"}],"stateMutability":"view"},{"type":"event","name":"ConfigUpdated","inputs":[{"name":"minStake","type":"uint256","indexed":false,"internalType":"uint256"},{"name":"withdrawalDelay","type":"uint256","indexed":false,"internalType":"uint256"}],"anonymous":false},{"type":"event","name":"OwnershipTransferred","inputs":[{"name":"previousOwner","type":"address","indexed":true,"internalType":"address"},{"name":"newOwner","type":"address","indexed":true,"internalType":"address"}],"anonymous":false},{"type":"event","name":"Slashed","inputs":[{"name":"oracle","type":"address","indexed":true,"internalType":"address"},{"name":"amount","type":"uint256","indexed":false,"internalType":"uint256"},{"name":"reason","type":"string","indexed":false,"internalType":"string"}],"anonymous":false},{"type":"event","name":"Staked","inputs":[{"name":"oracle","type":"address","indexed":true,"internalType":"address"},{"name":"amount","type":"uint256","indexed":false,"internalType":"uint256"}],"anonymous":false},{"type":"event","name":"WithdrawalRequested","inputs":[{"name":"oracle","type":"address","indexed":true,"internalType":"address"},{"name":"amount","type":"uint256","indexed":false,"internalType":"uint256"},{"name":"unlockingAt","type":"uint256","indexed":false,"internalType":"uint256"}],"anonymous":false},{"type":"event","name":"Withdrawn","inputs":[{"name":"oracle","type":"address","indexed":true,"internalType":"address"},{"name":"amount","type":"uint256","indexed":false,"internalType":"uint256"}],"anonymous":false},{"type":"error","name":"OwnableInvalidOwner","inputs":[{"name":"owner","type":"address","internalType":"address"}]},{"type":"error","name":"OwnableUnauthorizedAccount","inputs":[{"name":"account","type":"address","internalType":"address"}]},{"type":"error","name":"ReentrancyGuardReentrantCall","inputs":[]}],"bytecode":{"object":"0x60a03461016557601f610ec338819003918201601f19168301916001600160401b0383118484101761016957808492606094604052833981010312610165576100478161017d565b9060406100566020830161017d565b910151916001600160a01b0390811691821561014d575f80546001600160a01b03198116851782556040519491908416907f8be0079c531659141344cd1fd0a4f28419497f9722a3daafe3b4186f6b6457e09080a360017f9b779b17422d0df92223018b32b4d1fa46e071723d6817e2486d003becc55f005562093a806002551690811561010b5750608052600155604051610d31908161019282396080518181816101fc015281816102bc015261083f0152f35b62461bcd60e51b815260206004820152601c60248201527f4172784f7261636c655374616b696e673a207a65726f20746f6b656e000000006044820152606490fd5b604051631e4fbdf760e01b81525f6004820152602490fd5b5f80fd5b634e487b7160e01b5f52604160045260245ffd5b51906001600160a01b03821682036101655756fe6080604090808252600480361015610015575f80fd5b5f3560e01c9182630f373afd14610a2b5750816316934fc4146109e7578163375b3c0a146109c95781633ccfd60b146107995781635ce1b95914610757578163678b3ee2146105c0578163715018a6146105445781638248e722146104f05781638da5cb5b146104bd5781639ee679e814610395578163a694fc3a1461023e578163a7ab696114610220578163cf9bc12e146101d0578163f2fde38b1461010c575063f3f43703146100c5575f80fd5b346101085760206003193601126101085760209073ffffffffffffffffffffffffffffffffffffffff6100f6610a71565b165f5260058252805f20549051908152f35b5f80fd5b90503461010857602060031936011261010857610127610a71565b90610130610cab565b73ffffffffffffffffffffffffffffffffffffffff8092169283156101a15750505f54827fffffffffffffffffffffffff00000000000000000000000000000000000000008216175f55167f8be0079c531659141344cd1fd0a4f28419497f9722a3daafe3b4186f6b6457e05f80a3005b905f60249251917f1e4fbdf7000000000000000000000000000000000000000000000000000000008352820152fd5b8234610108575f600319360112610108576020905173ffffffffffffffffffffffffffffffffffffffff7f0000000000000000000000000000000000000000000000000000000000000000168152f35b8234610108575f600319360112610108576020906002549051908152f35b905034610108576020806003193601126101085781359161025d610c51565b610268831515610bec565b8351907f23b872dd000000000000000000000000000000000000000000000000000000008252339082015230602482015282604482015281816064815f73ffffffffffffffffffffffffffffffffffffffff7f0000000000000000000000000000000000000000000000000000000000000000165af190811561038b577f9e71bc8eea02a63969f509818f2dafb9254532904319f9dbda79b67bd34a5f3d93949161031a915f9161035e575b50610b54565b335f5260038252805f2061032f858254610a94565b9055519283523392a260017f9b779b17422d0df92223018b32b4d1fa46e071723d6817e2486d003becc55f0055005b61037e9150843d8611610384575b6103768183610ace565b810190610b3c565b5f610314565b503d61036c565b84513d5f823e3d90fd5b823461010857602080600319360112610108578235926103b6841515610bec565b335f526003825283835f20541061043d57907f24b91f4f47caf44230a57777a9be744924e82bf666f2d5702faf97df35e60f9f9291335f5260038252825f20610400868254610bdf565b9055335f5260058252825f20610417868254610a94565b9055335f52815242825f205561042f60025442610a94565b9082519485528401523392a2005b9060849251917f08c379a00000000000000000000000000000000000000000000000000000000083528201526024808201527f4172784f7261636c655374616b696e673a20696e73756666696369656e74207360448201527f74616b65000000000000000000000000000000000000000000000000000000006064820152fd5b8234610108575f6003193601126101085760209073ffffffffffffffffffffffffffffffffffffffff5f54169051908152f35b82346101085780600319360112610108577f0936b3616d5072fa8f7381ef8e7c35d39bed9ecfb2184e908a56027ad5c0b6bc913560243561052f610cab565b816001558060025582519182526020820152a1005b34610108575f6003193601126101085761055c610cab565b5f73ffffffffffffffffffffffffffffffffffffffff81547fffffffffffffffffffffffff000000000000000000000000000000000000000081168355167f8be0079c531659141344cd1fd0a4f28419497f9722a3daafe3b4186f6b6457e08280a3005b905034610108576060600319360112610108576105db610a71565b6024359060443567ffffffffffffffff91828211610108573660238301121561010857818501359283116101085736602484840101116101085773ffffffffffffffffffffffffffffffffffffffff90610633610cab565b1693845f52600360205283865f2054106106d457507f7e947095ed288d8885423bdaef4015b7420ffa9b84d62ef67c402e8bc36a8ea9927fffffffffffffffffffffffffffffffffffffffffffffffffffffffffffffffe0601f84889560246060968a5f526003602052885f206106ab888254610bdf565b9055828951998a9889528060208a015288015201868601375f85828601015201168101030190a2005b60849060208751917f08c379a0000000000000000000000000000000000000000000000000000000008352820152602560248201527f4172784f7261636c655374616b696e673a20736c61736820657863656564732060448201527f7374616b650000000000000000000000000000000000000000000000000000006064820152fd5b82346101085760206003193601126101085760209173ffffffffffffffffffffffffffffffffffffffff610789610a71565b165f528252805f20549051908152f35b905034610108575f600319360112610108576107b3610c51565b335f52602060058152825f20541561094957335f528181526107db835f205460025490610a94565b42106108c957335f5260058152825f20915f835493558351907fa9059cbb000000000000000000000000000000000000000000000000000000008252339082015282602482015281816044815f73ffffffffffffffffffffffffffffffffffffffff7f0000000000000000000000000000000000000000000000000000000000000000165af190811561038b577f7084f5476618d8e60b11ef0d7d3f06914655adb8793e28ff7f018d4c76d505d593949161089c915f9161035e5750610b54565b519283523392a260017f9b779b17422d0df92223018b32b4d1fa46e071723d6817e2486d003becc55f0055005b60849251917f08c379a0000000000000000000000000000000000000000000000000000000008352820152602a60248201527f4172784f7261636c655374616b696e673a207769746864726177616c2064656c60448201527f6179206e6f74206d6574000000000000000000000000000000000000000000006064820152fd5b60849251917f08c379a0000000000000000000000000000000000000000000000000000000008352820152602760248201527f4172784f7261636c655374616b696e673a206e6f2070656e64696e672077697460448201527f6864726177616c000000000000000000000000000000000000000000000000006064820152fd5b8234610108575f600319360112610108576020906001549051908152f35b82346101085760206003193601126101085760209073ffffffffffffffffffffffffffffffffffffffff610a19610a71565b165f5260038252805f20549051908152f35b8390346101085760206003193601126101085760209173ffffffffffffffffffffffffffffffffffffffff610a5e610a71565b165f52600383525f205460015411158152f35b6004359073ffffffffffffffffffffffffffffffffffffffff8216820361010857565b91908201809211610aa157565b7f4e487b71000000000000000000000000000000000000000000000000000000005f52601160045260245ffd5b90601f7fffffffffffffffffffffffffffffffffffffffffffffffffffffffffffffffe0910116810190811067ffffffffffffffff821117610b0f57604052565b7f4e487b71000000000000000000000000000000000000000000000000000000005f52604160045260245ffd5b90816020910312610108575180151581036101085790565b15610b5b57565b60846040517f08c379a000000000000000000000000000000000000000000000000000000000815260206004820152602160248201527f4172784f7261636c655374616b696e673a207472616e73666572206661696c6560448201527f64000000000000000000000000000000000000000000000000000000000000006064820152fd5b91908203918211610aa157565b15610bf357565b60646040517f08c379a000000000000000000000000000000000000000000000000000000000815260206004820152602060248201527f4172784f7261636c655374616b696e673a20616d6f756e74206973207a65726f6044820152fd5b7f9b779b17422d0df92223018b32b4d1fa46e071723d6817e2486d003becc55f006002815414610c815760029055565b60046040517f3ee5aeb5000000000000000000000000000000000000000000000000000000008152fd5b73ffffffffffffffffffffffffffffffffffffffff5f54163303610ccb57565b60246040517f118cdaa7000000000000000000000000000000000000000000000000000000008152336004820152fdfea26469706673582212209dbf5a2c89921f4464086c7bdafd6414fdbad38a4620083c9004de452c4c2ddb64736f6c63430008180033","linkReferences":{}},"methodIdentifiers":{"arxoToken()":"cf9bc12e","hasMinStake(address)":"0f373afd","minStake()":"375b3c0a","owner()":"8da5cb5b","pendingWithdrawals(address)":"f3f43703","renounceOwnership()":"715018a6","requestWithdrawal(uint256)":"9ee679e8","slash(address,uint256,string)":"678b3ee2","stake(uint256)":"a694fc3a","stakes(address)":"16934fc4","transferOwnership(address)":"f2fde38b","updateConfig(uint256,uint256)":"8248e722","withdraw()":"3ccfd60b","withdrawalDelay()":"a7ab6961","withdrawalRequestAt(address)":"5ce1b959"},"id":49}