{"abi":[{"type":"constructor","inputs":[{"name":"_initialOwner","type":"address","internalType":"address"},{"name":"_arxoToken","type":"address","internalType":"address"},{"name":"_registry","type":"address","internalType":"address"},{"name":"_addresses","type":"address","internalType":"address"}],"stateMutability":"nonpayable"},{"type":"function","name":"DEFAULT_MINIMUM","inputs":[],"outputs":[{"name":"","type":"uint256","internalType":"uint256"}],"stateMutability":"view"},{"type":"function","name":"PRICE_UPDATE_DELAY","inputs":[],"outputs":[{"name":"","type":"uint256","internalType":"uint256"}],"stateMutability":"view"},{"type":"function","name":"addresses","inputs":[],"outputs":[{"name":"","type":"address","internalType":"contract ArxAddresses"}],"stateMutability":"view"},{"type":"function","name":"applyPriceUpdate","inputs":[{"name":"buildingId","type":"string","internalType":"string"}],"outputs":[],"stateMutability":"nonpayable"},{"type":"function","name":"arxoToken","inputs":[],"outputs":[{"name":"","type":"address","internalType":"contract ArxosToken"}],"stateMutability":"view"},{"type":"function","name":"batchPayForAccess","inputs":[{"name":"buildingIds","type":"string[]","internalType":"string[]"},{"name":"amounts","type":"uint256[]","internalType":"uint256[]"},{"name":"nonces","type":"bytes32[]","internalType":"bytes32[]"}],"outputs":[],"stateMutability":"nonpayable"},{"type":"function","name":"emergencyWithdraw","inputs":[{"name":"amount","type":"uint256","internalType":"uint256"}],"outputs":[],"stateMutability":"nonpayable"},{"type":"function","name":"getBalance","inputs":[],"outputs":[{"name":"","type":"uint256","internalType":"uint256"}],"stateMutability":"view"},{"type":"function","name":"getMinimumPayment","inputs":[{"name":"buildingId","type":"string","internalType":"string"}],"outputs":[{"name":"","type":"uint256","internalType":"uint256"}],"stateMutability":"view"},{"type":"function","name":"isNonceUsed","inputs":[{"name":"nonce","type":"bytes32","internalType":"bytes32"}],"outputs":[{"name":"","type":"bool","internalType":"bool"}],"stateMutability":"view"},{"type":"function","name":"minimumPayment","inputs":[{"name":"","type":"string","internalType":"string"}],"outputs":[{"name":"","type":"uint256","internalType":"uint256"}],"stateMutability":"view"},{"type":"function","name":"noncesUsed","inputs":[{"name":"","type":"bytes32","internalType":"bytes32"}],"outputs":[{"name":"","type":"bool","internalType":"bool"}],"stateMutability":"view"},{"type":"function","name":"owner","inputs":[],"outputs":[{"name":"","type":"address","internalType":"address"}],"stateMutability":"view"},{"type":"function","name":"payForAccess","inputs":[{"name":"buildingId","type":"string","internalType":"string"},{"name":"amount","type":"uint256","internalType":"uint256"},{"name":"nonce","type":"bytes32","internalType":"bytes32"},{"name":"maxPrice","type":"uint256","internalType":"uint256"}],"outputs":[],"stateMutability":"nonpayable"},{"type":"function","name":"pendingPriceUpdates","inputs":[{"name":"","type":"string","internalType":"string"}],"outputs":[{"name":"price","type":"uint256","internalType":"uint256"},{"name":"effectiveTimestamp","type":"uint256","internalType":"uint256"}],"stateMutability":"view"},{"type":"function","name":"registry","inputs":[],"outputs":[{"name":"","type":"address","internalType":"contract ArxRegistry"}],"stateMutability":"view"},{"type":"function","name":"renounceOwnership","inputs":[],"outputs":[],"stateMutability":"nonpayable"},{"type":"function","name":"setMinimumPayment","inputs":[{"name":"buildingId","type":"string","internalType":"string"},{"name":"minimum","type":"uint256","internalType":"uint256"}],"outputs":[],"stateMutability":"nonpayable"},{"type":"function","name":"transferOwnership","inputs":[{"name":"newOwner","type":"address","internalType":"address"}],"outputs":[],"stateMutability":"nonpayable"},{"type":"event","name":"AccessPaid","inputs":[{"name":"buildingId","type":"string","indexed":true,"internalType":"string"},{"name":"payer","type":"address","indexed":true,"internalType":"address"},{"name":"amount","type":"uint256","indexed":false,"internalType":"uint256"},{"name":"nonce","type":"bytes32","indexed":true,"internalType":"bytes32"},{"name":"timestamp","type":"uint256","indexed":false,"internalType":"uint256"}],"anonymous":false},{"type":"event","name":"MinimumPaymentUpdated","inputs":[{"name":"buildingId","type":"string","indexed":true,"internalType":"string"},{"name":"oldMinimum","type":"uint256","indexed":false,"internalType":"uint256"},{"name":"newMinimum","type":"uint256","indexed":false,"internalType":"uint256"}],"anonymous":false},{"type":"event","name":"OwnershipTransferred","inputs":[{"name":"previousOwner","type":"address","indexed":true,"internalType":"address"},{"name":"newOwner","type":"address","indexed":true,"internalType":"address"}],"anonymous":false},{"type":"event","name":"PaymentDistributed","inputs":[{"name":"building","type":"address","indexed":true,"internalType":"address"},{"name":"maintainer","type":"address","indexed":true,"internalType":"address"},{"name":"treasury","type":"address","indexed":true,"internalType":"address"},{"name":"buildingAmount","type":"uint256","indexed":false,"internalType":"uint256"},{"name":"maintainerAmount","type":"uint256","indexed":false,"internalType":"uint256"},{"name":"treasuryAmount","type":"uint256","indexed":false,"internalType":"uint256"}],"anonymous":false},{"type":"event","name":"PriceUpdateScheduled","inputs":[{"name":"buildingId","type":"string","indexed":true,"internalType":"string"},{"name":"newPrice","type":"uint256","indexed":false,"internalType":"uint256"},{"name":"effectiveTimestamp","type":"uint256","indexed":false,"internalType":"uint256"}],"anonymous":false},{"type":"error","name":"OwnableInvalidOwner","inputs":[{"name":"owner","type":"address","internalType":"address"}]},{"type":"error","name":"OwnableUnauthorizedAccount","inputs":[{"name":"account","type":"address","internalType":"address"}]},{"type":"error","name":"ReentrancyGuardReentrantCall","inputs":[]}],"bytecode":{"object":"0x60e0346200026557601f62001f8e38819003918201601f191683019291906001600160401b0384118385101762000269578160809284926040968752833981010312620002655762000051816200027d565b9062000060602082016200027d565b916200007c6060620000748685016200027d565b93016200027d565b6001600160a01b039182169390929084156200024e575f80546001600160a01b031981168717825587519685939290918416907f8be0079c531659141344cd1fd0a4f28419497f9722a3daafe3b4186f6b6457e09080a360017f9b779b17422d0df92223018b32b4d1fa46e071723d6817e2486d003becc55f0055169384156200020c57508116918215620001c85716918215620001855760805260a05260c05251611cfb90816200029382396080518181816103560152818161060801528181610b3b0152818161105601528181611203015261193a015260a051818181610234015281816106eb01528181610a9f0152610f27015260c0518181816105b801526118be0152f35b6064845162461bcd60e51b815260206004820152602060248201527f4172785061796d656e74526f757465723a207a65726f206164647265737365736044820152fd5b845162461bcd60e51b815260206004820152601f60248201527f4172785061796d656e74526f757465723a207a65726f207265676973747279006044820152606490fd5b62461bcd60e51b815260206004820152601c60248201527f4172785061796d656e74526f757465723a207a65726f20746f6b656e000000006044820152606490fd5b8551631e4fbdf760e01b81525f6004820152602490fd5b5f80fd5b634e487b7160e01b5f52604160045260245ffd5b51906001600160a01b0382168203620002655756fe6080604052600480361015610012575f80fd5b5f3560e01c80630bf1a5141461127057806312065fe0146111a95780632e67af091461118c5780633339906f146111385780633c18a651146111175780635312ea8e14610fc7578063715018a614610f4b578063755df3261461062c5780637b10399914610efb5780638da5cb5b14610ec9578063a473d317146109fe578063a90a215914610832578063ac0f54f01461065a578063b90665e51461062c578063cf9bc12e146105dc578063da0321cd1461058c578063e0f8698a14610548578063ee07c397146101b25763f2fde38b146100eb575f80fd5b346101ae5760206003193601126101ae5780359073ffffffffffffffffffffffffffffffffffffffff908183168093036101ae57610127611792565b821561017e57505f54827fffffffffffffffffffffffff00000000000000000000000000000000000000008216175f55167f8be0079c531659141344cd1fd0a4f28419497f9722a3daafe3b4186f6b6457e05f80a3005b6024905f604051917f1e4fbdf7000000000000000000000000000000000000000000000000000000008352820152fd5b5f80fd5b50346101ae5760806003193601126101ae57803567ffffffffffffffff81116101ae576101e29036908301611405565b909160243591604435936101f46117e2565b6040517f2329765b00000000000000000000000000000000000000000000000000000000815260209373ffffffffffffffffffffffffffffffffffffffff7f000000000000000000000000000000000000000000000000000000000000000081169286818061026689898884016114d8565b0381875afa801561048a57610282915f9161052b575b5061151d565b61028c8585611711565b60643581116104c2576102a19088101561159e565b875f52600186526102b960ff60405f2054161561160f565b875f526001865260405f2060017fffffffffffffffffffffffffffffffffffffffffffffffffffffffffffffff008254161790558560405180927f23b872dd000000000000000000000000000000000000000000000000000000008252815f816103528d30338b850160409194939294606082019573ffffffffffffffffffffffffffffffffffffffff80921683521660208201520152565b03927f0000000000000000000000000000000000000000000000000000000000000000165af192831561048a578487936103986103cc9689955f91610495575b5061167f565b604051958694859384937fca0e4a7b00000000000000000000000000000000000000000000000000000000855284016114d8565b03915afa801561048a5785905f90610452575b6103e99250611876565b81604051928392833781015f81520390209060405192835242908301527f8267e03a8e3229c36f0e99aeafd6072d0977f7bb9436c5e7672593df3ae527b060403393a460017f9b779b17422d0df92223018b32b4d1fa46e071723d6817e2486d003becc55f0055005b50508381813d8311610483575b6104698183611305565b810103126101ae578461047e6103e9926116f0565b6103df565b503d61045f565b6040513d5f823e3d90fd5b6104b59150873d89116104bb575b6104ad8183611305565b810190611433565b5f610392565b503d6104a3565b608483886040519162461bcd60e51b8352820152602960248201527f4172785061796d656e74526f757465723a20707269636520657863656564732060448201527f6d617820707269636500000000000000000000000000000000000000000000006064820152fd5b6105429150883d8a116104bb576104ad8183611305565b5f61027c565b50346101ae5760206003193601126101ae5780359067ffffffffffffffff82116101ae5761057e61058491602093369101611405565b90611711565b604051908152f35b346101ae575f6003193601126101ae57602060405173ffffffffffffffffffffffffffffffffffffffff7f0000000000000000000000000000000000000000000000000000000000000000168152f35b346101ae575f6003193601126101ae57602060405173ffffffffffffffffffffffffffffffffffffffff7f0000000000000000000000000000000000000000000000000000000000000000168152f35b50346101ae5760206003193601126101ae57355f526001602052602060ff60405f2054166040519015158152f35b50346101ae5760406003193601126101ae57803567ffffffffffffffff81116101ae5761068a9036908301611405565b909160243591610698611792565b604051937f2329765b0000000000000000000000000000000000000000000000000000000085526020948581806106d286868984016114d8565b038173ffffffffffffffffffffffffffffffffffffffff7f0000000000000000000000000000000000000000000000000000000000000000165afa801561048a57610723915f9161081b575061151d565b83156107d85762093a804201928342116107ac5750917fafbbf8579e8f505e062bdf03c6ceb2c2a68f2239d43a4d8855de16d3044b31869391604093845161076a816112bc565b84815260018882018581528751858582378a8187810160038152030190209251835551910155818551928392833781015f8152039020948351928352820152a2005b6011907f4e487b71000000000000000000000000000000000000000000000000000000005f525260245ffd5b606483866040519162461bcd60e51b8352820152601e60248201527f4172785061796d656e74526f757465723a207a65726f206d696e696d756d00006044820152fd5b6105429150873d89116104bb576104ad8183611305565b50346101ae57602090816003193601126101ae57803567ffffffffffffffff81116101ae576108649036908301611405565b604051818382378481838101600381520301902092600160405194610888866112bc565b80548652015485850190808252156109955751421061092c5750916040917f1f3ed8731cdfaba716401ffff7068ba6991e09b459bee54cb413d7c87c3e621f93835181838237868183810160028152030190205492805185518385823788818581016002815203019020555f60018651848682378981868101600381520301902082815501555191818551928392833781015f8152039020948351928352820152a2005b608490856040519162461bcd60e51b8352820152602260248201527f4172785061796d656e74526f757465723a20757064617465206e6f742072656160448201527f64790000000000000000000000000000000000000000000000000000000000006064820152fd5b608482876040519162461bcd60e51b8352820152602360248201527f4172785061796d656e74526f757465723a206e6f2070656e64696e672075706460448201527f61746500000000000000000000000000000000000000000000000000000000006064820152fd5b50346101ae5760606003193601126101ae5767ffffffffffffffff81358181116101ae57610a2f90369084016113d4565b90916024916024358281116101ae57610a4b90369087016113d4565b9490926044359081116101ae57610a6590369088016113d4565b9690610a6f6117e2565b86841480610ec0575b15610e56578315610e12575f809673ffffffffffffffffffffffffffffffffffffffff92837f000000000000000000000000000000000000000000000000000000000000000016985b878110610c5357505050610b379697985060405180927f23b872dd000000000000000000000000000000000000000000000000000000008252815f8160209b8c9630338b850160409194939294606082019573ffffffffffffffffffffffffffffffffffffffff80921683521660208201520152565b03927f0000000000000000000000000000000000000000000000000000000000000000165af1801561048a57610b73915f91610495575061167f565b5f5b838110610ba25760017f9b779b17422d0df92223018b32b4d1fa46e071723d6817e2486d003becc55f0055005b8086610bb2610be693878761144b565b9060405194859283927fca0e4a7b0000000000000000000000000000000000000000000000000000000084528884016114d8565b03818b5afa91821561048a575f92610c18575b50610c12600192610c0b838c8a61158e565b3590611876565b01610b75565b91508682813d8311610c4c575b610c2f8183611305565b810103126101ae57610c12610c456001936116f0565b9250610bf9565b503d610c25565b909192610c9e60208b610c67858c8c61144b565b91908a604051958694859384937f2329765b00000000000000000000000000000000000000000000000000000000855284016114d8565b03915afa801561048a57610cb8915f91610df9575061151d565b610cdc610cc6838d8c61158e565b35610cd561057e858c8c61144b565b111561159e565b610ce7828d8561158e565b355f528b610d0d8360019283602052610d0760ff60405f2054161561160f565b8661158e565b355f528060205260405f20907fffffffffffffffffffffffffffffffffffffffffffffffffffffffffffffff00825416179055610d4b828c8b61158e565b358101809111610dce5781898d8d610d8384610d7b818f8f9c9b9a610d739160019b9e61144b565b95909761158e565b35938861158e565b359281604051928392833781015f81520390206040519182524260208301527f8267e03a8e3229c36f0e99aeafd6072d0977f7bb9436c5e7672593df3ae527b060403393a401610ac1565b836011877f4e487b71000000000000000000000000000000000000000000000000000000005f52525ffd5b610542915060203d6020116104bb576104ad8183611305565b60648260206040519162461bcd60e51b8352820152601e60248201527f4172785061796d656e74526f757465723a20656d7074792061727261797300006044820152fd5b60848260206040519162461bcd60e51b8352820152602160248201527f4172785061796d656e74526f757465723a206c656e677468206d69736d61746360448201527f68000000000000000000000000000000000000000000000000000000000000006064820152fd5b50878714610a78565b346101ae575f6003193601126101ae57602073ffffffffffffffffffffffffffffffffffffffff5f5416604051908152f35b346101ae575f6003193601126101ae57602060405173ffffffffffffffffffffffffffffffffffffffff7f0000000000000000000000000000000000000000000000000000000000000000168152f35b346101ae575f6003193601126101ae57610f63611792565b5f73ffffffffffffffffffffffffffffffffffffffff81547fffffffffffffffffffffffff000000000000000000000000000000000000000081168355167f8be0079c531659141344cd1fd0a4f28419497f9722a3daafe3b4186f6b6457e08280a3005b50346101ae5760206003193601126101ae57610fe1611792565b6040517fa9059cbb0000000000000000000000000000000000000000000000000000000081526020818061103c8535338784016020909392919373ffffffffffffffffffffffffffffffffffffffff60408201951681520152565b03815f73ffffffffffffffffffffffffffffffffffffffff7f0000000000000000000000000000000000000000000000000000000000000000165af190811561048a575f916110f8575b501561108e57005b60849060206040519162461bcd60e51b8352820152602160248201527f4172785061796d656e74526f757465723a207769746864726177206661696c6560448201527f64000000000000000000000000000000000000000000000000000000000000006064820152fd5b611111915060203d6020116104bb576104ad8183611305565b5f611086565b346101ae575f6003193601126101ae576020604051662386f26fc100008152f35b346101ae5761114636611346565b6040518151915f5b8381106111795760408360208187810160038152030190206001815491015482519182526020820152f35b806020809284010151818501520161114e565b346101ae575f6003193601126101ae57602060405162093a808152f35b50346101ae575f6003193601126101ae57604051907f70a08231000000000000000000000000000000000000000000000000000000008252309082015260208160248173ffffffffffffffffffffffffffffffffffffffff7f0000000000000000000000000000000000000000000000000000000000000000165afa801561048a575f9061123d575b602090604051908152f35b506020813d602011611268575b8161125760209383611305565b810103126101ae5760209051611232565b3d915061124a565b346101ae57602061128036611346565b60405190818151915f5b8381106112a857505083918101600281520301902054604051908152f35b80820186015185820152849250850161128a565b6040810190811067ffffffffffffffff8211176112d857604052565b7f4e487b71000000000000000000000000000000000000000000000000000000005f52604160045260245ffd5b90601f7fffffffffffffffffffffffffffffffffffffffffffffffffffffffffffffffe0910116810190811067ffffffffffffffff8211176112d857604052565b60206003198201126101ae5767ffffffffffffffff6004358181116101ae57826023820112156101ae5780600401359182116112d857604051926113b260207fffffffffffffffffffffffffffffffffffffffffffffffffffffffffffffffe0601f8601160185611305565b828452602483830101116101ae57815f92602460209301838601378301015290565b9181601f840112156101ae5782359167ffffffffffffffff83116101ae576020808501948460051b0101116101ae57565b9181601f840112156101ae5782359167ffffffffffffffff83116101ae57602083818601950101116101ae57565b908160209103126101ae575180151581036101ae5790565b91908110156114ab5760051b810135907fffffffffffffffffffffffffffffffffffffffffffffffffffffffffffffffe1813603018212156101ae57019081359167ffffffffffffffff83116101ae5760200182360381136101ae579190565b7f4e487b71000000000000000000000000000000000000000000000000000000005f52603260045260245ffd5b90601f836040947fffffffffffffffffffffffffffffffffffffffffffffffffffffffffffffffe09360208652816020870152868601375f8582860101520116010190565b1561152457565b608460405162461bcd60e51b815260206004820152602960248201527f4172785061796d656e74526f757465723a206275696c64696e67206e6f74207260448201527f65676973746572656400000000000000000000000000000000000000000000006064820152fd5b91908110156114ab5760051b0190565b156115a557565b608460405162461bcd60e51b815260206004820152602560248201527f4172785061796d656e74526f757465723a20696e73756666696369656e74206160448201527f6d6f756e740000000000000000000000000000000000000000000000000000006064820152fd5b1561161657565b608460405162461bcd60e51b8152602060048201526024808201527f4172785061796d656e74526f757465723a206e6f6e636520616c72656164792060448201527f75736564000000000000000000000000000000000000000000000000000000006064820152fd5b1561168657565b608460405162461bcd60e51b815260206004820152602160248201527f4172785061796d656e74526f757465723a207472616e73666572206661696c6560448201527f64000000000000000000000000000000000000000000000000000000000000006064820152fd5b519073ffffffffffffffffffffffffffffffffffffffff821682036101ae57565b6040518282823760208184810160038152030190206020604051611734816112bc565b6001835493848352015491829101528015159081611787575b5061178157506020908260405193849283376002908201908152030190205480156117755790565b50662386f26fc1000090565b91505090565b90504210155f61174d565b73ffffffffffffffffffffffffffffffffffffffff5f541633036117b257565b60246040517f118cdaa7000000000000000000000000000000000000000000000000000000008152336004820152fd5b7f9b779b17422d0df92223018b32b4d1fa46e071723d6817e2486d003becc55f0060028154146118125760029055565b60046040517f3ee5aeb5000000000000000000000000000000000000000000000000000000008152fd5b9190820391821161184957565b7f4e487b71000000000000000000000000000000000000000000000000000000005f52601160045260245ffd5b73ffffffffffffffffffffffffffffffffffffffff916040928351937fa39fac12000000000000000000000000000000000000000000000000000000008552600481868281867f0000000000000000000000000000000000000000000000000000000000000000165afa918215611cbc575f965f93611c78575b506046850294801595818104604614871715611c4c576064900495600a820290828204600a141715611c4c576119368792611931606485940494859261183c565b61183c565b93867f00000000000000000000000000000000000000000000000000000000000000001684517fa9059cbb00000000000000000000000000000000000000000000000000000000908181528b81806119b760209889948984016020909392919373ffffffffffffffffffffffffffffffffffffffff60408201951681520152565b03815f875af1908115611bbd575f91611c2f575b5015611bc757855181815273ffffffffffffffffffffffffffffffffffffffff8d168482019081526020810187905285908290819060400103815f875af1908115611bbd575f91611ba0575b5015611b3857855190815273ffffffffffffffffffffffffffffffffffffffff8816838201908152602081018890529091849183919082905f90829060400103925af1908115611b2e575f91611b11575b5015611aaa5750825196875286015284015281169381169216907fdd70cbedef986d38c9487d5851b5853dd1aa48fd394af120d433738311a6a49e90606090a4565b60849184519162461bcd60e51b8352820152602a60248201527f4172785061796d656e74526f757465723a207472656173757279207472616e7360448201527f666572206661696c6564000000000000000000000000000000000000000000006064820152fd5b611b289150833d85116104bb576104ad8183611305565b5f611a68565b85513d5f823e3d90fd5b6084838588519162461bcd60e51b8352820152602c60248201527f4172785061796d656e74526f757465723a206d61696e7461696e65722074726160448201527f6e73666572206661696c656400000000000000000000000000000000000000006064820152fd5b611bb79150853d87116104bb576104ad8183611305565b5f611a17565b87513d5f823e3d90fd5b6084838588519162461bcd60e51b8352820152602a60248201527f4172785061796d656e74526f757465723a206275696c64696e67207472616e7360448201527f666572206661696c6564000000000000000000000000000000000000000000006064820152fd5b611c469150853d87116104bb576104ad8183611305565b5f6119cb565b6011847f4e487b71000000000000000000000000000000000000000000000000000000005f525260245ffd5b809750818094503d8311611cb5575b611c918183611305565b810103126101ae57611cae6020611ca7886116f0565b97016116f0565b915f6118f0565b503d611c87565b513d5f823e3d90fdfea264697066735822122044a98aa039400f90b5f8629ce27ddeaac242172e746c6706b64899f6f9cb1da364736f6c63430008180033","linkReferences":{}},"methodIdentifiers":{"DEFAULT_MINIMUM()":"3c18a651","PRICE_UPDATE_DELAY()":"2e67af09","addresses()":"da0321cd","applyPriceUpdate(string)":"a90a2159","arxoToken()":"cf9bc12e","batchPayForAccess(string[],uint256[],bytes32[])":"a473d317","emergencyWithdraw(uint256)":"5312ea8e","getBalance()":"12065fe0","getMinimumPayment(string)":"e0f8698a","isNonceUsed(bytes32)":"b90665e5","minimumPayment(string)":"0bf1a514","noncesUsed(bytes32)":"755df326","owner()":"8da5cb5b","payForAccess(string,uint256,bytes32,uint256)":"ee07c397","pendingPriceUpdates(string)":"3339906f","registry()":"7b103999","renounceOwnership()":"715018a6","setMinimumPayment(string,uint256)":"ac0f54f0","transferOwnership(address)":"f2fde38b"},"id":50}