{"abi":[{"type":"constructor","inputs":[{"name":"_initialOwner","type":"address","internalType":"address"},{"name":"_arxoToken","type":"address","internalType":"address"},{"name":"_registry","type":"address","internalType":"address"},{"name":"_addresses","type":"address","internalType":"address"}],"stateMutability":"nonpayable"},{"type":"function","name":"DEFAULT_MINIMUM","inputs":[],"outputs":[{"name":"","type":"uint256","internalType":"uint256"}],"stateMutability":"view"},{"type":"function","name":"addresses","inputs":[],"outputs":[{"name":"","type":"address","internalType":"contract ArxAddresses"}],"stateMutability":"view"},{"type":"function","name":"arxoToken","inputs":[],"outputs":[{"name":"","type":"address","internalType":"contract ArxosToken"}],"stateMutability":"view"},{"type":"function","name":"batchPayForAccess","inputs":[{"name":"buildingIds","type":"string[]","internalType":"string[]"},{"name":"amounts","type":"uint256[]","internalType":"uint256[]"},{"name":"nonces","type":"bytes32[]","internalType":"bytes32[]"}],"outputs":[],"stateMutability":"nonpayable"},{"type":"function","name":"emergencyWithdraw","inputs":[{"name":"amount","type":"uint256","internalType":"uint256"}],"outputs":[],"stateMutability":"nonpayable"},{"type":"function","name":"getBalance","inputs":[],"outputs":[{"name":"","type":"uint256","internalType":"uint256"}],"stateMutability":"view"},{"type":"function","name":"getMinimumPayment","inputs":[{"name":"buildingId","type":"string","internalType":"string"}],"outputs":[{"name":"","type":"uint256","internalType":"uint256"}],"stateMutability":"view"},{"type":"function","name":"isNonceUsed","inputs":[{"name":"nonce","type":"bytes32","internalType":"bytes32"}],"outputs":[{"name":"","type":"bool","internalType":"bool"}],"stateMutability":"view"},{"type":"function","name":"minimumPayment","inputs":[{"name":"","type":"string","internalType":"string"}],"outputs":[{"name":"","type":"uint256","internalType":"uint256"}],"stateMutability":"view"},{"type":"function","name":"noncesUsed","inputs":[{"name":"","type":"bytes32","internalType":"bytes32"}],"outputs":[{"name":"","type":"bool","internalType":"bool"}],"stateMutability":"view"},{"type":"function","name":"owner","inputs":[],"outputs":[{"name":"","type":"address","internalType":"address"}],"stateMutability":"view"},{"type":"function","name":"payForAccess","inputs":[{"name":"buildingId","type":"string","internalType":"string"},{"name":"amount","type":"uint256","internalType":"uint256"},{"name":"nonce","type":"bytes32","internalType":"bytes32"}],"outputs":[],"stateMutability":"nonpayable"},{"type":"function","name":"registry","inputs":[],"outputs":[{"name":"","type":"address","internalType":"contract ArxRegistry"}],"stateMutability":"view"},{"type":"function","name":"renounceOwnership","inputs":[],"outputs":[],"stateMutability":"nonpayable"},{"type":"function","name":"setMinimumPayment","inputs":[{"name":"buildingId","type":"string","internalType":"string"},{"name":"minimum","type":"uint256","internalType":"uint256"}],"outputs":[],"stateMutability":"nonpayable"},{"type":"function","name":"transferOwnership","inputs":[{"name":"newOwner","type":"address","internalType":"address"}],"outputs":[],"stateMutability":"nonpayable"},{"type":"event","name":"AccessPaid","inputs":[{"name":"buildingId","type":"string","indexed":true,"internalType":"string"},{"name":"payer","type":"address","indexed":true,"internalType":"address"},{"name":"amount","type":"uint256","indexed":false,"internalType":"uint256"},{"name":"nonce","type":"bytes32","indexed":true,"internalType":"bytes32"},{"name":"timestamp","type":"uint256","indexed":false,"internalType":"uint256"}],"anonymous":false},{"type":"event","name":"MinimumPaymentUpdated","inputs":[{"name":"buildingId","type":"string","indexed":true,"internalType":"string"},{"name":"oldMinimum","type":"uint256","indexed":false,"internalType":"uint256"},{"name":"newMinimum","type":"uint256","indexed":false,"internalType":"uint256"}],"anonymous":false},{"type":"event","name":"OwnershipTransferred","inputs":[{"name":"previousOwner","type":"address","indexed":true,"internalType":"address"},{"name":"newOwner","type":"address","indexed":true,"internalType":"address"}],"anonymous":false},{"type":"event","name":"PaymentDistributed","inputs":[{"name":"building","type":"address","indexed":true,"internalType":"address"},{"name":"maintainer","type":"address","indexed":true,"internalType":"address"},{"name":"treasury","type":"address","indexed":true,"internalType":"address"},{"name":"buildingAmount","type":"uint256","indexed":false,"internalType":"uint256"},{"name":"maintainerAmount","type":"uint256","indexed":false,"internalType":"uint256"},{"name":"treasuryAmount","type":"uint256","indexed":false,"internalType":"uint256"}],"anonymous":false},{"type":"error","name":"OwnableInvalidOwner","inputs":[{"name":"owner","type":"address","internalType":"address"}]},{"type":"error","name":"OwnableUnauthorizedAccount","inputs":[{"name":"account","type":"address","internalType":"address"}]},{"type":"error","name":"ReentrancyGuardReentrantCall","inputs":[]}],"bytecode":{"object":"0x60e060405234801562000010575f80fd5b5060405162001c2338038062001c23833981016040819052620000339162000225565b836001600160a01b0381166200006357604051631e4fbdf760e01b81525f60048201526024015b60405180910390fd5b6200006e81620001ba565b5060017f9b779b17422d0df92223018b32b4d1fa46e071723d6817e2486d003becc55f00556001600160a01b038316620000eb5760405162461bcd60e51b815260206004820152601c60248201527f4172785061796d656e74526f757465723a207a65726f20746f6b656e0000000060448201526064016200005a565b6001600160a01b038216620001435760405162461bcd60e51b815260206004820152601f60248201527f4172785061796d656e74526f757465723a207a65726f2072656769737472790060448201526064016200005a565b6001600160a01b0381166200019b5760405162461bcd60e51b815260206004820181905260248201527f4172785061796d656e74526f757465723a207a65726f2061646472657373657360448201526064016200005a565b6001600160a01b0392831660805290821660a0521660c052506200027f565b5f80546001600160a01b038381166001600160a01b0319831681178455604051919092169283917f8be0079c531659141344cd1fd0a4f28419497f9722a3daafe3b4186f6b6457e09190a35050565b80516001600160a01b038116811462000220575f80fd5b919050565b5f805f806080858703121562000239575f80fd5b620002448562000209565b9350620002546020860162000209565b9250620002646040860162000209565b9150620002746060860162000209565b905092959194509250565b60805160a05160c05161191e620003055f395f81816102780152610e8f01525f81816101ba0152818161036c015281816105410152818161080201528181610b5a0152610c7301525f8181610251015281816102d70152818161049a0152818161065e01528181610abf01528181610f84015281816110750152611166015261191e5ff3fe608060405234801561000f575f80fd5b50600436106100fb575f3560e01c80638da5cb5b11610093578063cf9bc12e11610063578063cf9bc12e1461024c578063da0321cd14610273578063e0f8698a1461029a578063f2fde38b146102ad575f80fd5b80638da5cb5b146101f4578063a473d31714610204578063ac0f54f014610217578063b90665e51461022a575f80fd5b80635312ea8e116100ce5780635312ea8e14610168578063715018a61461017b578063755df326146101835780637b103999146101b5575f80fd5b80630bf1a514146100ff57806312065fe01461013d578063388ab8ce146101455780633c18a6511461015a575b5f80fd5b61012a61010d36600461134a565b805160208183018101805160028252928201919093012091525481565b6040519081526020015b60405180910390f35b61012a6102c0565b61015861015336600461143a565b61034d565b005b61012a662386f26fc1000081565b610158610176366004611487565b61063a565b610158610729565b6101a5610191366004611487565b60016020525f908152604090205460ff1681565b6040519015158152602001610134565b6101dc7f000000000000000000000000000000000000000000000000000000000000000081565b6040516001600160a01b039091168152602001610134565b5f546001600160a01b03166101dc565b6101586102123660046114df565b61073c565b610158610225366004611572565b610c54565b6101a5610238366004611487565b5f9081526001602052604090205460ff1690565b6101dc7f000000000000000000000000000000000000000000000000000000000000000081565b6101dc7f000000000000000000000000000000000000000000000000000000000000000081565b61012a6102a83660046115ba565b610df1565b6101586102bb36600461160d565b610e36565b6040516370a0823160e01b81523060048201525f907f00000000000000000000000000000000000000000000000000000000000000006001600160a01b0316906370a0823190602401602060405180830381865afa158015610324573d5f803e3d5ffd5b505050506040513d601f19601f820116820180604052508101906103489190611628565b905090565b610355610e70565b604051632329765b60e01b81526001600160a01b037f00000000000000000000000000000000000000000000000000000000000000001690632329765b906103a3908790879060040161163f565b602060405180830381865afa1580156103be573d5f803e3d5ffd5b505050506040513d601f19601f820116820180604052508101906103e2919061166d565b6104075760405162461bcd60e51b81526004016103fe9061168c565b60405180910390fd5b6104118484610df1565b8210156104305760405162461bcd60e51b81526004016103fe906116d5565b5f8181526001602052604090205460ff161561045e5760405162461bcd60e51b81526004016103fe9061171a565b5f81815260016020819052604091829020805460ff19169091179055516323b872dd60e01b8152336004820152306024820152604481018390527f00000000000000000000000000000000000000000000000000000000000000006001600160a01b0316906323b872dd906064016020604051808303815f875af11580156104e8573d5f803e3d5ffd5b505050506040513d601f19601f8201168201806040525081019061050c919061166d565b6105285760405162461bcd60e51b81526004016103fe9061175e565b60405163ca0e4a7b60e01b81525f906001600160a01b037f0000000000000000000000000000000000000000000000000000000000000000169063ca0e4a7b90610578908890889060040161163f565b602060405180830381865afa158015610593573d5f803e3d5ffd5b505050506040513d601f19601f820116820180604052508101906105b7919061179f565b90506105c38184610e8b565b81336001600160a01b031686866040516105de9291906117ba565b60408051918290038220878352426020840152917f8267e03a8e3229c36f0e99aeafd6072d0977f7bb9436c5e7672593df3ae527b0910160405180910390a45061063460015f805160206118c983398151915255565b50505050565b61064261128c565b60405163a9059cbb60e01b8152336004820152602481018290527f00000000000000000000000000000000000000000000000000000000000000006001600160a01b03169063a9059cbb906044016020604051808303815f875af11580156106ac573d5f803e3d5ffd5b505050506040513d601f19601f820116820180604052508101906106d0919061166d565b6107265760405162461bcd60e51b815260206004820152602160248201527f4172785061796d656e74526f757465723a207769746864726177206661696c656044820152601960fa1b60648201526084016103fe565b50565b61073161128c565b61073a5f6112b8565b565b610744610e70565b848314801561075257508281145b6107a85760405162461bcd60e51b815260206004820152602160248201527f4172785061796d656e74526f757465723a206c656e677468206d69736d6174636044820152600d60fb1b60648201526084016103fe565b846107f55760405162461bcd60e51b815260206004820152601e60248201527f4172785061796d656e74526f757465723a20656d70747920617272617973000060448201526064016103fe565b5f805b86811015610a9c577f00000000000000000000000000000000000000000000000000000000000000006001600160a01b0316632329765b898984818110610841576108416117c9565b905060200281019061085391906117dd565b6040518363ffffffff1660e01b815260040161087092919061163f565b602060405180830381865afa15801561088b573d5f803e3d5ffd5b505050506040513d601f19601f820116820180604052508101906108af919061166d565b6108cb5760405162461bcd60e51b81526004016103fe9061168c565b6108f28888838181106108e0576108e06117c9565b90506020028101906102a891906117dd565b868683818110610904576109046117c9565b9050602002013510156109295760405162461bcd60e51b81526004016103fe906116d5565b60015f85858481811061093e5761093e6117c9565b602090810292909201358352508101919091526040015f205460ff16156109775760405162461bcd60e51b81526004016103fe9061171a565b6001805f86868581811061098d5761098d6117c9565b9050602002013581526020019081526020015f205f6101000a81548160ff0219169083151502179055508585828181106109c9576109c96117c9565b90506020020135826109db9190611834565b91508383828181106109ef576109ef6117c9565b90506020020135336001600160a01b0316898984818110610a1257610a126117c9565b9050602002810190610a2491906117dd565b604051610a329291906117ba565b60405180910390207f8267e03a8e3229c36f0e99aeafd6072d0977f7bb9436c5e7672593df3ae527b0898986818110610a6d57610a6d6117c9565b9050602002013542604051610a8c929190918252602082015260400190565b60405180910390a46001016107f8565b506040516323b872dd60e01b8152336004820152306024820152604481018290527f00000000000000000000000000000000000000000000000000000000000000006001600160a01b0316906323b872dd906064016020604051808303815f875af1158015610b0d573d5f803e3d5ffd5b505050506040513d601f19601f82011682018060405250810190610b31919061166d565b610b4d5760405162461bcd60e51b81526004016103fe9061175e565b5f5b86811015610c34575f7f00000000000000000000000000000000000000000000000000000000000000006001600160a01b031663ca0e4a7b8a8a85818110610b9957610b996117c9565b9050602002810190610bab91906117dd565b6040518363ffffffff1660e01b8152600401610bc892919061163f565b602060405180830381865afa158015610be3573d5f803e3d5ffd5b505050506040513d601f19601f82011682018060405250810190610c07919061179f565b9050610c2b81888885818110610c1f57610c1f6117c9565b90506020020135610e8b565b50600101610b4f565b5050610c4c60015f805160206118c983398151915255565b505050505050565b610c5c61128c565b604051632329765b60e01b81526001600160a01b037f00000000000000000000000000000000000000000000000000000000000000001690632329765b90610caa908690869060040161163f565b602060405180830381865afa158015610cc5573d5f803e3d5ffd5b505050506040513d601f19601f82011682018060405250810190610ce9919061166d565b610d055760405162461bcd60e51b81526004016103fe9061168c565b5f8111610d545760405162461bcd60e51b815260206004820152601e60248201527f4172785061796d656e74526f757465723a207a65726f206d696e696d756d000060448201526064016103fe565b5f60028484604051610d679291906117ba565b90815260200160405180910390205490508160028585604051610d8b9291906117ba565b90815260405190819003602001812091909155610dab90859085906117ba565b6040805191829003822083835260208301859052917f1f3ed8731cdfaba716401ffff7068ba6991e09b459bee54cb413d7c87c3e621f910160405180910390a250505050565b5f8060028484604051610e059291906117ba565b90815260200160405180910390205490505f8111610e2a57662386f26fc10000610e2c565b805b9150505b92915050565b610e3e61128c565b6001600160a01b038116610e6757604051631e4fbdf760e01b81525f60048201526024016103fe565b610726816112b8565b610e78611307565b60025f805160206118c983398151915255565b5f807f00000000000000000000000000000000000000000000000000000000000000006001600160a01b031663a39fac126040518163ffffffff1660e01b81526004016040805180830381865afa158015610ee8573d5f803e3d5ffd5b505050506040513d601f19601f82011682018060405250810190610f0c9190611847565b90925090505f6064610f1f85604661187f565b610f299190611896565b90505f6064610f3986600a61187f565b610f439190611896565b90505f81610f5184886118b5565b610f5b91906118b5565b60405163a9059cbb60e01b81526001600160a01b038981166004830152602482018690529192507f00000000000000000000000000000000000000000000000000000000000000009091169063a9059cbb906044016020604051808303815f875af1158015610fcc573d5f803e3d5ffd5b505050506040513d601f19601f82011682018060405250810190610ff0919061166d565b61104f5760405162461bcd60e51b815260206004820152602a60248201527f4172785061796d656e74526f757465723a206275696c64696e67207472616e7360448201526919995c8819985a5b195960b21b60648201526084016103fe565b60405163a9059cbb60e01b81526001600160a01b038681166004830152602482018490527f0000000000000000000000000000000000000000000000000000000000000000169063a9059cbb906044016020604051808303815f875af11580156110bb573d5f803e3d5ffd5b505050506040513d601f19601f820116820180604052508101906110df919061166d565b6111405760405162461bcd60e51b815260206004820152602c60248201527f4172785061796d656e74526f757465723a206d61696e7461696e65722074726160448201526b1b9cd9995c8819985a5b195960a21b60648201526084016103fe565b60405163a9059cbb60e01b81526001600160a01b038581166004830152602482018390527f0000000000000000000000000000000000000000000000000000000000000000169063a9059cbb906044016020604051808303815f875af11580156111ac573d5f803e3d5ffd5b505050506040513d601f19601f820116820180604052508101906111d0919061166d565b61122f5760405162461bcd60e51b815260206004820152602a60248201527f4172785061796d656e74526f757465723a207472656173757279207472616e7360448201526919995c8819985a5b195960b21b60648201526084016103fe565b60408051848152602081018490529081018290526001600160a01b0380861691878216918a16907fdd70cbedef986d38c9487d5851b5853dd1aa48fd394af120d433738311a6a49e9060600160405180910390a450505050505050565b5f546001600160a01b0316331461073a5760405163118cdaa760e01b81523360048201526024016103fe565b5f80546001600160a01b038381166001600160a01b0319831681178455604051919092169283917f8be0079c531659141344cd1fd0a4f28419497f9722a3daafe3b4186f6b6457e09190a35050565b5f805160206118c98339815191525460020361073a57604051633ee5aeb560e01b815260040160405180910390fd5b634e487b7160e01b5f52604160045260245ffd5b5f6020828403121561135a575f80fd5b813567ffffffffffffffff80821115611371575f80fd5b818401915084601f830112611384575f80fd5b81358181111561139657611396611336565b604051601f8201601f19908116603f011681019083821181831017156113be576113be611336565b816040528281528760208487010111156113d6575f80fd5b826020860160208301375f928101602001929092525095945050505050565b5f8083601f840112611405575f80fd5b50813567ffffffffffffffff81111561141c575f80fd5b602083019150836020828501011115611433575f80fd5b9250929050565b5f805f806060858703121561144d575f80fd5b843567ffffffffffffffff811115611463575f80fd5b61146f878288016113f5565b90989097506020870135966040013595509350505050565b5f60208284031215611497575f80fd5b5035919050565b5f8083601f8401126114ae575f80fd5b50813567ffffffffffffffff8111156114c5575f80fd5b6020830191508360208260051b8501011115611433575f80fd5b5f805f805f80606087890312156114f4575f80fd5b863567ffffffffffffffff8082111561150b575f80fd5b6115178a838b0161149e565b9098509650602089013591508082111561152f575f80fd5b61153b8a838b0161149e565b90965094506040890135915080821115611553575f80fd5b5061156089828a0161149e565b979a9699509497509295939492505050565b5f805f60408486031215611584575f80fd5b833567ffffffffffffffff81111561159a575f80fd5b6115a6868287016113f5565b909790965060209590950135949350505050565b5f80602083850312156115cb575f80fd5b823567ffffffffffffffff8111156115e1575f80fd5b6115ed858286016113f5565b90969095509350505050565b6001600160a01b0381168114610726575f80fd5b5f6020828403121561161d575f80fd5b8135610e2a816115f9565b5f60208284031215611638575f80fd5b5051919050565b60208152816020820152818360408301375f818301604090810191909152601f909201601f19160101919050565b5f6020828403121561167d575f80fd5b81518015158114610e2a575f80fd5b60208082526029908201527f4172785061796d656e74526f757465723a206275696c64696e67206e6f7420726040820152681959da5cdd195c995960ba1b606082015260800190565b60208082526025908201527f4172785061796d656e74526f757465723a20696e73756666696369656e7420616040820152641b5bdd5b9d60da1b606082015260800190565b60208082526024908201527f4172785061796d656e74526f757465723a206e6f6e636520616c7265616479206040820152631d5cd95960e21b606082015260800190565b60208082526021908201527f4172785061796d656e74526f757465723a207472616e73666572206661696c656040820152601960fa1b606082015260800190565b5f602082840312156117af575f80fd5b8151610e2a816115f9565b818382375f9101908152919050565b634e487b7160e01b5f52603260045260245ffd5b5f808335601e198436030181126117f2575f80fd5b83018035915067ffffffffffffffff82111561180c575f80fd5b602001915036819003821315611433575f80fd5b634e487b7160e01b5f52601160045260245ffd5b80820180821115610e3057610e30611820565b5f8060408385031215611858575f80fd5b8251611863816115f9565b6020840151909250611874816115f9565b809150509250929050565b8082028115828204841417610e3057610e30611820565b5f826118b057634e487b7160e01b5f52601260045260245ffd5b500490565b81810381811115610e3057610e3061182056fe9b779b17422d0df92223018b32b4d1fa46e071723d6817e2486d003becc55f00a26469706673582212207bad98b47aacbab7dc9c5f4597dbf4445504629bef8e829f738606835ef2696c64736f6c63430008180033","linkReferences":{}},"methodIdentifiers":{"DEFAULT_MINIMUM()":"3c18a651","addresses()":"da0321cd","arxoToken()":"cf9bc12e","batchPayForAccess(string[],uint256[],bytes32[])":"a473d317","emergencyWithdraw(uint256)":"5312ea8e","getBalance()":"12065fe0","getMinimumPayment(string)":"e0f8698a","isNonceUsed(bytes32)":"b90665e5","minimumPayment(string)":"0bf1a514","noncesUsed(bytes32)":"755df326","owner()":"8da5cb5b","payForAccess(string,uint256,bytes32)":"388ab8ce","registry()":"7b103999","renounceOwnership()":"715018a6","setMinimumPayment(string,uint256)":"ac0f54f0","transferOwnership(address)":"f2fde38b"},"id":51}